:04000000C6EF13F044
:10080000010000000A00000064000000E80300008E
:1008100010270000A086010040420F00809698003B
:1008200000E1F50500CA9A3B00803FCDCC3DD723BF
:100830003C12833AB7D138C62737388635C0D6330D
:10084000CC2B32708930E7DB2EE53C1E42A20D0036
:10085000803F00204100C842007A44401C4650C3FB
:100860004724744997184BBCBE4C6B6E4E03155011
:1008700079AD60F34971252E32660000000E00014B
:100880000001686F4F0E0001676FF5D30001000192
:100890007E51250AD8B408D04BC0D9FF4CC0DAFF2E
:1008A00000017EC0DFFFE5D3000E000100016E6F86
:1008B000000E00016D6F4DC0F6FF4EC0F7FF08003F
:1008C000F5502E0AD8A437D0000100016E8D4D4A94
:1008D0004E2A000E000100017A6F000E0001796FB0
:1008E0001ED079C011F07AC012F0000E146E0A0EFC
:1008F000136E11EC13F04DC0F6FF4EC0F7FF080069
:10090000F5501126000E1222D00E11240001000114
:10091000796FFF0E122000017A6F4D4A4E2A4DC0AA
:10092000F6FF4EC0F7FF0800F5CF01F0B4EC13F06E
:10093000D8A010D0D6D7000E000100017A6F000EAB
:100940000001796F000100016E8904D000010001EF
:100950006E8513D04DC0F6FF4EC0F7FF4D4A4E2AAC
:1009600008000001F5CF7EF000017E51000AD8B4E6
:1009700090D3660AD8B4EAD77ED3070E00010001EF
:100980006E15D8B41CD3000100016EA907D0000E6B
:10099000000100017A6F060E0001796F67C0D9FF70
:1009A00068C0DAFF0001DECF7BF00001DECF7CF013
:1009B0000001DDCF7DF0030E000100016727000E6E
:1009C00000016823000100017D51800A800F07E1CA
:1009D000000E00017C5D03E1000E00017B5DD8B0DC
:1009E00012D07BC001F07CC002F07DC003F0A1EC0E
:1009F00013F003C07DF002C07CF001C07BF0030E59
:100A0000000100016D13000E00010001786F000E5F
:100A10000001776F7F0E000100017D1500017C1140
:100A200000017B11D8B491D0820E526EFF0E536E2E
:100A300000017BC054F000017CC055F000017DC076
:100A400056F000017EC057F0100E05D0D8905732F6
:100A5000563255325432E82EF9D754505224000100
:100A60000001776F0001000E5320786F0001000134
:100A70007707D8A0780777C011F078C012F0000E81
:100A8000146E030E136E11EC13F011C077F012C048
:100A900078F077C008F078C009F0000E0B6E0A0EEF
:100AA0000A6E42EC11F008C077F009C078F000013E
:100AB000000178AF05D0000100017707D8A07807C2
:100AC0000001000177510008376E50EC08F039C082
:100AD00076F038C075F037C074F00001000E386E43
:100AE0000001740E376E7BC039F07CC03AF07DC0D7
:100AF0003BF0D5EC12F074C001F075C002F076C086
:100B000003F0000E046E800E056E3F0E066EFAECCA
:100B100010F0D8B006D0000100017707D8A0780700
:100B200014D074C001F075C002F076C003F0000E5E
:100B3000046E200E056E410E066EFAEC10F0D8A081
:100B400004D000010001774B782B000100017A519D
:100B5000800A800F0D0ED8B4795DD8B012D0000194
:100B6000000E476E00017B0E466E79C037F0F6EC42
:100B70000BF039C04AF038C049F037C048F0F3EC08
:100B800012F0000100017851800A800F0A0ED8B4DB
:100B9000775DD8B022D07F0E000100017D150001E5
:100BA0007C1100017B11D8B467D07BC017F07CC0EA
:100BB00018F07DC019F02EEC10F01A501710181014
:100BC0001910D8A459D0000100017851800A800F73
:100BD000020ED8B4775DD8A04FD074C001F075C0B4
:100BE00002F076C003F0700E046E890E056E400EA2
:100BF000066EFAEC10F0D8B003D00001F70E02D068
:100C00000001F80E00017727FF0E0001782377C05E
:100C100037F050EC08F039C076F038C075F037C0C6
:100C200074F07BC001F07CC002F07DC003F074C0A2
:100C300004F075C005F076C006F01CEC0EF004C0A0
:100C400066F003C065F002C064F001C063F063C0E9
:100C50006FF064C070F065C071F066C072F0000E95
:100C6000000100017B6F000E000100017C6F000E8F
:100C7000000100017D6F2FD07BC017F07CC018F001
:100C80007DC019F02EEC10F01AC072F019C071F08E
:100C900018C070F017C06FF00001000E1E6E00014A
:100CA0007B0E1D6E6FC009F070C00AF071C00BF0B2
:100CB00072C00CF040EC12F00BC021F00AC020F022
:100CC00009C01FF0B7EC12F0000E00010001786FB0
:100CD000000E0001776F526E010E000100017E6F61
:100CE0005250000100017E510A0AD8B421D00001FF
:100CF00000017E51040D000EF324F66E080EF42060
:100D0000F76E0900F550000100016F5D0900F55014
:100D1000000170590900F550000171590900F550A2
:100D200000017259D8A004D0000100017E2BD9D750
:100D3000030E000100016D15526E000E000100014E
:100D40006E15536E53505210D8B443D04BC0D9FFD8
:100D50004CC0DAFF2D0E3AD06FC001F070C002F027
:100D600071C003F072C004F0000100017E51040D57
:100D7000000EF324F66E080EF420F76E0900F5CF8E
:100D800005F00900F5CF06F00900F5CF07F00A00DD
:100D9000F5CF08F08AEC11F001C069F002C06AF0EA
:100DA00069C001F06AC002F0000E046E0A0E036E04
:100DB00072EC12F001C069F002C06AF0000100019B
:100DC0006951300F4BC0D9FF4CC0DAFFDF6E4B4A80
:100DD0004C2A000100017E0700017E29D8B40ED004
:100DE000BBD74BC0D9FF4CC0DAFF300EDF6E4B4A89
:100DF0004C2A000100017707D8A078070001000104
:100E00007851800A800F010ED8B4775DD8B0E9D749
:100E1000000100017A51800A800F090ED8B4795D73
:100E2000D8A007D0526E080E000100017E6F52500C
:100E300002D079C07EF0000100017E510001000166
:100E4000795F000E00017EBFFF0E000100017A5B9A
:100E5000000100017E51D8B408D04BC0D9FF4CC06E
:100E6000DAFF2E0EDF6E4B4A4C2A7EC037F050EC74
:100E700008F039C062F038C061F037C060F07BC064
:100E800029F07CC02AF07DC02BF060C026F061C044
:100E900027F062C028F0ADEC0EF028C019F027C092
:100EA00018F026C017F02EEC10F01AC072F019C01E
:100EB00071F018C070F017C06FF065D06FC001F00E
:100EC00070C002F071C003F072C004F000010001B4
:100ED0007E51040D000EF324F66E080EF420F76E1A
:100EE0000900F5CF05F00900F5CF06F00900F5CFB0
:100EF00007F00A00F5CF08F08AEC11F001C06BF0A2
:100F000002C06CF06BC001F06CC002F0000E046E09
:100F10000A0E036E72EC12F001C06BF002C06CF0AE
:100F2000000100016B51300F4BC0D9FF4CC0DAFFFC
:100F3000DF6E4B4A4C2A6FC001F070C002F071C0E6
:100F400003F072C004F0000100017E51040D000E98
:100F5000F324F66E080EF420F76E0900F5CF05F0C5
:100F60000900F5CF06F00900F5CF07F00A00F5CF2C
:100F700008F00BEC12F004C072F003C071F002C074
:100F800070F001C06FF0000100017E0700017E29B2
:100F9000D8B40ED093D74BC0D9FF4CC0DAFF300E77
:100FA000DF6E4B4A4C2A000100017907D8A07A076E
:100FB000000100017A517911D8B45DD0ECD700015D
:100FC00000017A517911D8A40CD0000100017251AE
:100FD0006F1170117111D8A404D000010001794B78
:100FE0007A2B800E000100017EBF7F0E526E000141
:100FF00000017951000100017E5D000100017A517C
:10100000800A5258D8B003D079C07EF01ED00001BB
:1010100000017A51800A526E000100017E510001E8
:101020000001795D800E000100017EBF7F0E5258E5
:10103000D8B00BD0000100017E5100010001796F92
:1010400000017A6B000179BF7A07030E00010001ED
:101050006D15526E000E000100016E15536E535057
:101060005210D8B408D04BC0D9FF4CC0DAFF2D0EB7
:10107000DF6E4B4A4C2A4DC0F6FF4EC0F7FF4D4A7B
:101080004E2A08000001F5CF7EF000017E6746EF92
:1010900004F04BC0D9FF4CC0DAFF000EDF6E120027
:1010A00037AE08D1376C3750800A120FD8A09DD0C8
:1010B000000E146E030E136E000E0B6E0A0E0A6EF7
:1010C000000E046E640E036E3750016E026A01BE9C
:1010D0000206CDEC11F001C008F002C009F042ECAC
:1010E00011F0090E0824116E000E0920126E11EC89
:1010F00013F0280E1124F66E080E1220F76E090068
:10110000F5CF3AF00900F5CF3BF00900F5CF3CF000
:101110003CC02BF03BC02AF03AC029F0000E146E00
:10112000030E136E000E0B6E640E0A6E3750086EBF
:10113000096A08BE090642EC11F0120E0824116E6D
:10114000000E0920126E11EC13F0280E1124F66E19
:10115000080E1220F76E0900F5CF3DF00900F5CF1B
:101160003EF00900F5CF3FF03FC028F03EC027F029
:101170003DC026F0ADEC0EF028C042F027C041F093
:1011800026C040F040C026F041C027F042C028F001
:10119000000E146E030E136E000E046E0A0E036E24
:1011A0003750016E026A01BE0206CDEC11F001C09B
:1011B00011F002C012F011EC13F0280E1124F66E9B
:1011C000080E1220F76E0900F5CF3AF00900F5CFAE
:1011D0003BF00900F5CF3CF03CC02BF03BC02AF0BF
:1011E0003AC029F0ADEC0EF064D13750800A750F8B
:1011F000D8A059D0000E146E030E136E000E0B6EA5
:101200000A0E0A6E3750086E096A08BE090642ECDB
:1012100011F0090E0824116E000E0920126E11EC57
:1012200013F0280E1124F66E080E1220F76E090036
:10123000F5CF3AF00900F5CF3BF00900F5CF3CF0CF
:101240003CC028F03BC027F03AC026F0000E146ED8
:10125000030E136E000E046E0A0E036E3750016EFD
:10126000026A01BE0206CDEC11F001C011F002C00D
:1012700012F011EC13F0280E1124F66E080E122055
:10128000F76E0900F5CF3DF00900F5CF3EF00900FB
:10129000F5CF3FF03FC02BF03EC02AF03DC029F013
:1012A000ADEC0EF006D13750030D280EF324F66E88
:1012B000080E0CD13750800A120FD8A09DD0000E16
:1012C000146E030E136E000E0B6E0A0E0A6E000EE5
:1012D000046E640E036E3750016E026A01BE020690
:1012E000CDEC11F001C008F002C009F042EC11F0A1
:1012F000090E0824116E000E0920126E11EC13F075
:101300004F0E1124F66E080E1220F76E0900F5CF6D
:101310003AF00900F5CF3BF00900F5CF3CF03CC0B6
:101320002BF03BC02AF03AC029F0000E146E030ED9
:10133000136E000E0B6E640E0A6E3750086E096A4B
:1013400008BE090642EC11F0120E0824116E000EC0
:101350000920126E11EC13F04F0E1124F66E080ED8
:101360001220F76E0900F5CF3DF00900F5CF3EF0F1
:101370000900F5CF3FF03FC028F03EC027F03DC048
:1013800026F0ADEC0EF028C042F027C041F026C098
:1013900040F040C026F041C027F042C028F0000EC7
:1013A000146E030E136E000E046E0A0E036E375099
:1013B000016E026A01BE0206CDEC11F001C011F00F
:1013C00002C012F011EC13F04F0E1124F66E080E4D
:1013D0001220F76E0900F5CF3AF00900F5CF3BF087
:1013E0000900F5CF3CF03CC02BF03BC02AF03AC0DE
:1013F00029F0ADEC0EF05DD03750800A750FD8A003
:101400005FD0000E146E030E136E000E0B6E0A0EEC
:101410000A6E3750086E096A08BE090642EC11F0E0
:10142000090E0824116E000E0920126E11EC13F043
:101430004F0E1124F66E080E1220F76E0900F5CF3C
:101440003AF00900F5CF3BF00900F5CF3CF03CC085
:1014500028F03BC027F03AC026F0000E146E030EB1
:10146000136E000E046E0A0E036E3750016E026A90
:1014700001BE0206CDEC11F001C011F002C012F065
:1014800011EC13F04F0E1124F66E080E1220F76EB9
:101490000900F5CF3DF00900F5CF3EF00900F5CF8A
:1014A0003FF03FC02BF03EC02AF03DC029F0ADEC2C
:1014B0000EF028C039F027C038F026C037F017D01A
:1014C0003750030D4F0EF324F66E080EF420F76E1E
:1014D0000900F5CF3AF00900F5CF3BF00900F5CF50
:1014E0003CF03CC039F03BC038F03AC037F0120055
:1014F000D1EC13F0000E946E94CF95FF000E936E16
:10150000928049EC13F0586E800E016E585078ECC2
:1015100013F0000EC2B2010E586E010E596E582A19
:1015200002D0D8905936582EFCD7000EC2B0010E0A
:101530005A6E010E5B6E5A2A02D0D8905B365A2E34
:10154000FCD75B505910C212C2B2FED7C450596EBC
:10155000586AC3505824096E000E59200A6E95EC43
:1015600012F00BC08BF00AC08AF009C089F0000E9F
:10157000296EA00E2A6E400E2B6E89C026F08AC0FE
:1015800027F08BC028F0ADEC0EF028C039F027C052
:1015900038F026C037F0C00E3A6E7F0E3B6E440E18
:1015A0003C6E35EC0FF039C08BF038C08AF037C094
:1015B00089F00001000E4C6E00017F0E4B6E080E8C
:1015C0004E6E760E4D6E89C04FF08AC050F08BC0C3
:1015D00051F03EEC04F00001000E036E00017F0E9E
:1015E000026E8EEC13F0000E016E000E026E000E05
:1015F000036E89C004F08AC005F08BC006F0FAECD7
:1016000010F0D8B012D089C001F08AC002F08BC0AF
:1016100003F0000E046E200E056E410E066EFAEC0D
:1016200010F0D8B002D0800EDFD089C001F08AC09F
:1016300002F08BC003F0000E046E200E056E410E0A
:10164000066EFAEC10F0D8A012D089C001F08AC062
:1016500002F08BC003F0000E046EA00E056E410E6A
:10166000066EFAEC10F0D8B002D0C00EBDD089C022
:1016700001F08AC002F08BC003F0000E046EA00ED1
:10168000056E410E066EFAEC10F0D8A012D089C09B
:1016900001F08AC002F08BC003F0000E046EF00E61
:1016A000056E410E066EFAEC10F0D8B002D0E00ED6
:1016B0009BD089C001F08AC002F08BC003F0000EFD
:1016C000046EF00E056E410E066EFAEC10F0D8A016
:1016D00012D089C001F08AC002F08BC003F0000E66
:1016E000046E200E056E420E066EFAEC10F0D8B0B5
:1016F00002D0F00E79D089C001F08AC002F08BC010
:1017000003F0000E046E200E056E420E066EFAEC1B
:1017100010F0D8A012D089C001F08AC002F08BC0AE
:1017200003F0000E046E480E056E420E066EFAECD3
:1017300010F0D8B002D0F80E57D089C001F08AC09E
:1017400002F08BC003F0000E046E480E056E420ED0
:10175000066EFAEC10F0D8A012D089C001F08AC051
:1017600002F08BC003F0000E046E700E056E420E88
:10177000066EFAEC10F0D8B002D0FC0E35D089C05D
:1017800001F08AC002F08BC003F0000E046E700EF0
:10179000056E420E066EFAEC10F0D8A012D089C089
:1017A00001F08AC002F08BC003F0000E046E8C0EB4
:1017B000056E420E066EFAEC10F0D8B002D0FE0EA6
:1017C00013D089C001F08AC002F08BC003F0000E74
:1017D000046E8C0E056E420E066EFAEC10F0D8A068
:1017E00002D08A6890D6000E8A6E8DD66D0E376450
:1017F000ABD0000E146E030E136E000E0B6E0A0EAD
:101800000A6E000E046E640E036E37C001F0026AA9
:10181000CDEC11F001C008F002C009F042EC11F06B
:10182000090E0824116E000E0920126E11EC13F03F
:10183000280E1124F66E080E1220F76E0900F5CF5F
:101840003AF00900F5CF3BF00900F5CF3CF03CC081
:101850002BF03BC02AF03AC029F0000E146E030EA4
:10186000136E000E0B6E640E0A6E37C008F0096A24
:1018700042EC11F0120E0824116E000E0920126EB7
:1018800011EC13F0280E1124F66E080E1220F76EDC
:101890000900F5CF3DF00900F5CF3EF00900F5CF86
:1018A0003FF03FC028F03EC027F03DC026F0ADEC31
:1018B0000EF028C045F027C044F026C043F0000ECB
:1018C000146E030E136E000E046E0A0E036E37C004
:1018D00001F0026ACDEC11F001C011F002C012F06B
:1018E00011EC13F0280E1124F66E080E1220F76E7C
:1018F0000900F5CF3AF00900F5CF3BF00900F5CF2C
:101900003CF03CC02BF03BC02AF03AC029F043C069
:1019100026F044C027F045C028F0ADEC0EF028C0FA
:1019200042F027C041F026C040F040C026F041C040
:1019300027F042C028F0000E296E000E2A6E3F0EDE
:101940002B6EADEC0EF08BD00A0E376469D0000E12
:10195000146E030E136E000E046E0A0E036E37C073
:1019600001F0026ACDEC11F001C011F002C012F0DA
:1019700011EC13F0280E1124F66E080E1220F76EEB
:101980000900F5CF3AF00900F5CF3BF00900F5CF9B
:101990003CF03CC02BF03BC02AF03AC029F0000ECE
:1019A000146E030E136E000E0B6E0A0E0A6E37C015
:1019B00008F0096A42EC11F0090E0824116E000EBD
:1019C0000920126E11EC13F0280E1124F66E080E89
:1019D0001220F76E0900F5CF3DF00900F5CF3EF07B
:1019E0000900F5CF3FF03FC028F03EC027F03DC0D2
:1019F00026F0ADEC0EF028C045F027C044F026C01C
:101A000043F043C026F044C027F045C028F0000E44
:101A1000296E000E2A6E3F0E2B6EADEC0EF01FD01D
:101A20003750030D280EF324F66E080EF420F76EDF
:101A30000900F5CF3AF00900F5CF3BF00900F5CFEA
:101A40003CF03CC028F03BC027F03AC026F0000E26
:101A5000296E000E2A6E3F0E2B6EADEC0EF028C0E4
:101A600039F027C038F026C037F012000F0E0F6E85
:101A700009C010F00AC011F00BC012F00F28136E4D
:101A800004D0D890123211321032132EFAD71050DF
:101A9000166E0F0E0F6E0CC010F00DC011F00EC0C0
:101AA00012F00F28136E04D0D89012321132103277
:101AB000132EFAD71050156E1650D8B40BD01550FF
:101AC00016600FD01650000815240F6E190E0F5C0B
:101AD000D8A007D00CC009F00DC00AF00EC00BF062
:101AE000AAD01550D8B40BD0165015600FD0155091
:101AF000000816240F6E190E0F5CD8A007D009C07D
:101B000009F00AC00AF00BC00BF095D00F6E060E5C
:101B1000146E0F500BBE148E0EBE148C0A8EFF0E68
:101B20000916FF0E0A16000E0B160D8EFF0E0C1670
:101B3000FF0E0D16000E0E161550166018D0D89018
:101B40000C360D360E36150615501618D8B40BD0B7
:101B500014061450070BD8B406D0F1D7D8900B3226
:101B60000A320932162A15501662F8D71AD01650C2
:101B7000156017D0D89009360A360B361606155060
:101B80001618D8B40BD014061450070BD8B406D0CE
:101B9000F1D7D8900E320D320C32152A155016623C
:101BA000F8D714AE0CD0FF0E091AFF0E0A1AFF0E5A
:101BB0000B1A010E0926000E0A22000E0B2214AC8D
:101BC0000CD0FF0E0C1AFF0E0D1AFF0E0E1A010E8E
:101BD0000C26000E0D22000E0E220F6E000E146E4B
:101BE0000F5009500C260A500D220B500E220EAE3B
:101BF00010D0FF0E0C1AFF0E0D1AFF0E0E1A010E5A
:101C00000C26000E0D22000E0E220F6E010E146E19
:101C10000F500CC001F00DC002F00EC003F016C052
:101C200004F014C005F09EEC10F003C00BF002C0ED
:101C30000AF001C009F012000F0E076E01C008F093
:101C400002C009F003C00AF007280B6E04D0D89038
:101C50000A32093208320B2EFAD70850116E11667B
:101C600001D061D00F0E076E04C008F005C009F066
:101C700006C00AF007280B6E04D0D8900A32093249
:101C800008320B2EFAD70850106E106601D04BD0D8
:101C9000028EFF0E0116FF0E0216000E0316058EB1
:101CA000FF0E0416FF0E0516000E0616000E0C6E33
:101CB000000E0D6E000E0E6E000E0F6E7F0E115E8A
:101CC0001050980F115E076E180E106E0750D890C6
:101CD0000C360D360E360F360450015C0550025896
:101CE00006500358D8A007D00450015E0550025A90
:101CF0000650035A0C80D890013602360336102E57
:101D0000E6D711AE0DD01150800A970FD8A00BD096
:101D1000D8900F320E320D320C32113EF9D714D05A
:101D2000170E11640FD0000E016E000E026E000E31
:101D3000036E000E046E10D0D8900C360D360E36A1
:101D40000F3611061166F8D70CC001F00DC002F075
:101D50000EC003F00FC004F012000F0E2C6E26C050
:101D60002DF027C02EF028C02FF02C28306E04D084
:101D7000D8902F322E322D32302EFAD72D50316E90
:101D8000316601D015D00F0E2C6E29C02DF02AC05F
:101D90002EF02BC02FF02C28306E04D0D8902F328C
:101DA0002E322D32302EFAD72D50366E366607D0B1
:101DB000000E266E000E276E000E286E55D036508F
:101DC0007B0F312628C036F02B50361A800E36167F
:101DD000278E2A8EFF0E2916FF0E2A16000E2B16AE
:101DE000000E326E000E336E000E346E2C6E070E37
:101DF000356E2C5026A006D0295032262A50332288
:101E00002B503422D890283227322632D8902936C7
:101E10002A362B36352EEED72C6E090E356E2C5009
:101E200026A006D0295032262A5033222B503422A5
:101E3000D890283227322632D89034323332323298
:101E4000352EEED732C001F033C002F034C003F0BB
:101E500031C004F036C005F09EEC10F003C028F04D
:101E600002C027F001C026F012000F0E3D6E37C0F1
:101E70003EF038C03FF039C040F03D28416E04D0FC
:101E8000D89040323F323E32412EFAD73E50466E15
:101E9000466601D015D00F0E3D6E3AC03EF03BC0F5
:101EA0003FF03CC040F03D28416E04D0D890403215
:101EB0003F323E32412EFAD73E50476E476607D03A
:101EC000000E376E000E386E000E396E4CD0000ECC
:101ED000436E000E446E000E456E4750890F465EFD
:101EE00039C047F03C50471A800E4716388EFF0E17
:101EF0003716FF0E3816000E39163B8EFF0E3A16B7
:101F0000FF0E3B16000E3C163D6E180E426E3D5005
:101F1000D8904336443645363A50375C3B503858B3
:101F20003C503958D8A007D03A50375E3B50385A09
:101F30003C50395A4380D890373638363936422E9D
:101F4000E7D743C001F044C002F045C003F046C0EB
:101F500004F047C005F09EEC10F003C039F002C059
:101F600038F001C037F01200033404340D6E0D66F2
:101F700001D05AD0063407340C6E0C6601D054D010
:101F8000038EFF0E0116FF0E0216FF0E0316000E43
:101F90000416068EFF0E0416FF0E0516FF0E06161B
:101FA000000E0716000E086E000E096E000E0A6E77
:101FB000000E0B6E7F0E0D5E0C50A00F0D5E076EB7
:101FC000200E0C6E0750D890083609360A360B36AC
:101FD0000450015C0550025806500358075004583D
:101FE000D8A009D00450015E0550025A0650035A89
:101FF0000750045A0880D89001360236033604365A
:102000000C2EE1D70DAE0DD00D50800A9F0FD8A039
:102010000BD0D8900B320A32093208320D3EF9D774
:1020200014D01F0E0D640FD0000E016E000E026E54
:10203000000E036E000E046E10D0D89008360936DC
:102040000A360B360D060D66F8D708C001F009C038
:1020500002F00AC003F00BC004F012000F0E1B6E5A
:1020600017C01CF018C01DF019C01EF01B281F6EF1
:1020700004D0D8901E321D321C321F2EFAD71C50AD
:10208000256E256601D035D0170E1B6E17C01CF0CB
:1020900018C01DF019C01EF01B281F6E04D0D89068
:1020A0001E321D321C321F2EFAD71C50206E188E85
:1020B000FF0E1716FF0E1816000E19161750216E78
:1020C0001850226E1950236E246A8E0E255E25AE9E
:1020D0000DD02550800A8F0FD8A00BD0D890243275
:1020E000233222322132253EF9D714D0170E25642F
:1020F0000FD0000E176E000E186E000E196E000E37
:102100001A6E1BD0D8902136223623362436250667
:102110002566F8D72050D8B408D0241E231E221ECE
:10212000216C000E22222322242221C017F022C07B
:1021300018F023C019F024C01AF012000450D8B4CB
:1021400005D0015002100310D8A40CD0000E016E6F
:10215000000E026E000E036E4CD0042AD89003329B
:1021600002320132000E0114066E000E0214076ED8
:10217000FE0E0314086E065007100810D8B40CD0D9
:10218000ECD7042A010E0126000E0222000E0322C3
:10219000D890033202320132000E0114066E000E96
:1021A0000214076EFF0E0314086E06500710081085
:1021B000D8B406D0E6D70406D890013602360336E6
:1021C00002AEF9D704A0029ED89004320450086EE3
:1021D000076A066A065001120750021208500312DD
:1021E0000550D8A4038E01C001F002C002F003C064
:1021F00003F0120003AE16D001C007F002C008F0D1
:1022000003C009F0071E081E091E072A000E082237
:102210000922000E0724016E000E0820026E800EB7
:102220000920036E06AE16D004C007F005C008F002
:1022300006C009F0071E081E091E072A000E082204
:102240000922000E0724046E000E0820056E800E81
:102250000920066E000E011A000E021A800E031AE3
:10226000000E041A000E051A800E061A0450015CB6
:102270000550025806500358D8B002D0D89001D06B
:10228000D88012000C6E000E0E6E0C500BAE08D0F3
:102290000A6C0B1ED8B00B2A0C6E010E0E6E0C5081
:1022A00009AE06D0086C091ED8B0092A010E0E1A14
:1022B000000E106E000E0F6E0B500A10D8B41ED018
:1022C0000C6E010E0D6E0C5004D0D8900A360B36F1
:1022D0000D2A0BAEFAD7D8900F3610360A50085C8C
:1022E0000B500958D8A005D00A50085E0B50095A67
:1022F0000F80D8900B320A320D2EEDD70E50D8B485
:1023000004D00F6C101ED8B0102A0FC008F010C0F7
:1023100009F01200000E0A6E000E0B6E000E0C6E1D
:10232000000E0D6E0850051006100710D8B42CD002
:10233000096E010E0E6E095006D0D890053606368D
:10234000073608360E2A08AEF8D7D8900A360B366C
:102350000C360D360550015C0650025807500358E4
:1023600008500458D8A009D00550015E0650025A02
:102370000750035A0850045A0A80D890083207328E
:10238000063205320E2EE1D70AC001F00BC002F072
:102390000CC003F00DC004F01200056E000E076EB5
:1023A000055002AE08D0016C021ED8B0022A056E9C
:1023B000010E076E055004AE04D0036C041ED8B0A5
:1023C000042A04500310D8B41AD0056E010E066E0C
:1023D000055004D0D89003360436062A04AEFAD746
:1023E0000350015C04500258D8A004D00350015E91
:1023F0000450025AD89004320332062EF1D7075007
:10240000D8B404D0016C021ED8B0022A01C001F079
:1024100002C002F012000850051006100710D8B4D0
:1024200026D0096E010E0A6E095006D0D8900536E6
:102430000636073608360A2A08AEF8D70550015C7A
:10244000065002580750035808500458D8A008D026
:102450000550015E0650025A0750035A0850045AAC
:10246000D89008320732063205320A2EE7D701C06B
:1024700001F002C002F003C003F004C004F0120037
:102480000D6E8E0E116E0D5006D0D8900C320B32A0
:102490000A320932112A000E09140D6E000E0A14B8
:1024A0000E6E000E0B140F6EFF0E0C14106E1050FB
:1024B0000D100E100F10D8A4E8D709C001F00AC003
:1024C00002F00BC003F011C004F00D6E000E056E9B
:1024D0000D509EEC10F003C00BF002C00AF001C0DA
:1024E00009F0120004500310D8B41AD0056E010E82
:1024F000066E055004D0D89003360436062A04AE82
:10250000FAD70350015C04500258D8A004D00350FD
:10251000015E0450025AD89004320332062EF1D7DD
:1025200001C001F002C002F012000C6E000E0D6E30
:102530000C500AAE08D0096C0A1ED8B00A2A0C6EDC
:10254000010E0D6E0C5009C001F00AC002F0036AC2
:102550000C6E8E0E046E0C500DC005F09EEC10F04B
:1025600003C00BF002C00AF001C009F012001DC048
:10257000D9FF1EC0DAFFDECF17F0DECF18F0DDCFB7
:1025800019F01FC01AF020C01BF021C01CF02EEC67
:1025900013F01DC0D9FF1EC0DAFF17C0DEFF18C040
:1025A000DEFF19C0DDFFDD52120037C0D9FF38C091
:1025B000DAFFDECF26F0DECF27F0DDCF28F039C0FE
:1025C00029F03AC02AF03BC02BF0ADEC0EF037C03A
:1025D000D9FF38C0DAFF26C0DEFF27C0DEFF28C0E3
:1025E000DDFFDD52120046C0D9FF47C0DAFFDECF63
:1025F00009F0DECF0AF0DDCF0BF048C00CF049C087
:102600000DF04AC00EF036EC0DF046C0D9FF47C0C1
:10261000DAFF09C0DEFF0AC0DEFF0BC0DDFFDD52BE
:10262000120011501302F3CF15F0F4CF16F0115031
:102630001402F3CFF4FFF36AF3501526F450162278
:1026400012501302F3CFF4FFF36AF3501526F4503F
:10265000162215C011F016C012F01200000E1A1A40
:10266000000E1B1A800E1C1A17C009F018C00AF0C1
:1026700019C00BF01AC00CF01BC00DF01CC00EF0FE
:1026800036EC0DF00BC019F00AC018F009C017F0B5
:102690001200026E380E016E025078EC13F0026EDA
:1026A0000C0E016E025078EC13F0026E060E016EF5
:1026B000025078EC13F0026E800E016E025078EC3E
:1026C00013F0120001C083FF828082928284000E88
:1026D0005D6E000E5C6E5D50800A7D0FE90ED8B411
:1026E0005C5CD8B003D05C4A5D2AF5D782941200B6
:1026F00001C083FF829082928284000E5D6E000E84
:102700005C6E5D50800A7D0FE90ED8B45C5CD8B079
:1027100003D05C4A5D2AF5D7829412000AD002C029
:10272000D9FF03C0DAFFDF50016E62EC13F0024AFA
:10273000032A02C0D9FF03C0DAFFDF50D8B4120069
:10274000EED77F0E031402100110D8B406D0000E8D
:10275000011A000E021A800E031A01C001F002C015
:1027600002F003C003F01200026E000E036E02506E
:102770003A0E016007D02F0E016404D0026E010EE4
:10278000036E025003C002F00230120000018B6B96
:102790008A6B896B5D6A5C6A000EF86E000178EFE7
:1027A0000AF092680E0EC16E920EC06E000EC46EDC
:0627B000000EC36E1200D2
:020000040020DA
:08000000FFFFFFFFFFFFFFFF00
:020000040030CA
:0E00000000051F1FFF8385FF0FC00FE00F409C
:00000001FF
