:04000000B9EF3CF028
:0C78E2009268000E936E000E816E120082
:1078EF005443432041647269616E650043454645C8
:1078FF00542D4D4700010EC26E0E0EC16EA60EC066
:10790F006E000EC46E000EC36E120020C083FF8D7A
:10791F00808D82D70E1A6E230E1B6E3C0E1C6E13BB
:10792F00EC3DF08D92D70E1A6E230E1B6E3C0E1C83
:10793F006E13EC3DF0120020C083FF8D908D82D727
:10794F000E1A6E230E1B6E3C0E1C6E13EC3DF08D4B
:10795F0092D70E1A6E230E1B6E3C0E1C6E13EC3D4F
:10796F00F01200456A446A436AEF0EF66E780EF71E
:10797F006E000EF86E00EE2EF010EE15F00900F509
:10798F00CFEEFFE550E150FAE10001C9EF3EF015EF
:10799F006E000E166E155013AE08D0126C131ED853
:1079AF00B0132A156E010E166E155012C001F0138A
:1079BF00C002F0036A156E8E0E046E155016C005C8
:1079CF00F0E5EC3DF003C014F002C013F001C0125B
:1079DF00F01200000E286E000E276E0CD0275021DB
:1079EF0024D96E28502220DA6EDF50206E8DEC3CA9
:1079FF00F0274A282AFF0E2324246E256AFF0E251E
:107A0F00222850800A266E2450275C2550800A2693
:107A1F0058D8B01200E3D7000E1F6E000E1E6E1A5C
:107A2F00C009F01BC00AF01CC00BF0000E0C6EC892
:107A3F000E0D6E420E0E6E41EC3EF00BC01CF00AA6
:107A4F00C01BF009C01AF0000E1F6E000E1E6E0A4A
:107A5F00D0410E1D6EEE0EE82EFED71D2EFCD70068
:107A6F00F01E4A1F2A1EC012F01FC013F0CFEC3CAD
:107A7F00F014C00BF013C00AF012C009F01AC00CBA
:107A8F00F01BC00DF01CC00EF051EC3DF0D8B01241
:107A9F0000DFD70BAE16D009C00FF00AC010F00BE5
:107AAF00C011F00F1E101E111E0F2A000E102211F2
:107ABF0022000E0F24096E000E10200A6E800E1188
:107ACF00200B6E0EAE16D00CC00FF00DC010F00EC6
:107ADF00C011F00F1E101E111E0F2A000E102211C2
:107AEF0022000E0F240C6E000E10200D6E800E1152
:107AFF00200E6E000E091A000E0A1A800E0B1A00C5
:107B0F000E0C1A000E0D1A800E0E1A0C50095C0D79
:107B1F00500A580E500B58D8B002D0D89001D0D878
:107B2F00801200000E956E000E966E000E8C6E0089
:107B3F000E8D6E8D908D948D92296E010E206E2973
:107B4F0050A3EC3CF0296E3C0E206E2950A3EC3C68
:107B5F00F0296E060E206E2950A3EC3CF0296E0C16
:107B6F000E206E2950A3EC3CF0296E840E206E2956
:107B7F0050A3EC3CF0000E226E3A0E216E296E09D6
:107B8F000E236E2950F1EC3CF0296EC20E206E29A7
:107B9F0050A3EC3CF0000E226E2E0E216E296E0CBF
:107BAF000E236E2950F1EC3CF0000E1A6E000E1BE6
:107BBF006E400E1C6E13EC3DF012000450D8B4054D
:107BCF00D0015002100310D8A40CD0000E016E008B
:107BDF000E026E000E036E4CD0042AD890033202B0
:107BEF00320132000E0114066E000E0214076EFEF3
:107BFF000E0314086E065007100810D8B40CD0EC02
:107C0F00D7042A010E0126000E0222000E0322D8ED
:107C1F0090033202320132000E0114066E000E0282
:107C2F0014076EFF0E0314086E065007100810D8C5
:107C3F00B406D0E6D70406D89001360236033602D2
:107C4F00AEF9D704A0029ED89004320450086E07F4
:107C5F006A066A06500112075002120850031205F5
:107C6F0050D8A4038E01C001F002C002F003C0037C
:107C7F00F012000F0E0F6E09C010F00AC011F00BBA
:107C8F00C012F00F28136E04D0D890123211321098
:107C9F0032132EFAD71050176E176601D015D00F6A
:107CAF000E0F6E0CC010F00DC011F00EC012F00FC1
:107CBF0028136E04D0D890123211321032132EFACC
:107CCF00D71050196E196607D0000E096E000E0AF4
:107CDF006E000E0B6E55D019507B0F17260BC01967
:107CEF00F00E50191A800E19160A8E0D8EFF0E0CFB
:107CFF0016FF0E0D16000E0E16000E146E000E154A
:107D0F006E000E166E0F6E070E186E0F5009A0063E
:107D1F00D00C5014260D5015220E501622D8900B51
:107D2F00320A320932D8900C360D360E36182EEE36
:107D3F00D70F6E090E186E0F5009A006D00C5014F5
:107D4F00260D5015220E501622D8900B320A3209EA
:107D5F0032D890163215321432182EEED714C001C5
:107D6F00F015C002F016C003F017C004F019C005DB
:107D7F00F0E5EC3DF003C00BF002C00AF001C009C2
:107D8F00F0120082EC3CF071EC3CF099EC3DF0000D
:107D9F000EC2B2010E2A6E010E2B6E2A2A02D0D805
:107DAF00902B362A2EFCD7000EC2B0010E2C6E017E
:107DBF000E2D6E2C2A02D0D8902D362C2EFCD72DBE
:107DCF00502B10C212C2B2FED7C4502B6E2A6AC3F8
:107DDF00502A24126E000E2B20136ECFEC3CF014A1
:107DEF00C045F013C044F012C043F0000E096EA05E
:107DFF000E0A6E410E0B6E43C00CF044C00DF045E1
:107E0F00C00EF051EC3DF0D8B012D043C009F04491
:107E1F00C00AF045C00BF0000E0C6EF00E0D6E4157
:107E2F000E0E6E51EC3DF0D8B002D0800EDFD04375
:107E3F00C009F044C00AF045C00BF0000E0C6EF004
:107E4F000E0D6E410E0E6E51EC3DF0D8A012D043C8
:107E5F00C009F044C00AF045C00BF0000E0C6E20B4
:107E6F000E0D6E420E0E6E51EC3DF0D8B002D0C02A
:107E7F000EBDD043C009F044C00AF045C00BF0005E
:107E8F000E0C6E200E0D6E420E0E6E51EC3DF0D8A4
:107E9F00A012D043C009F044C00AF045C00BF00057
:107EAF000E0C6E480E0D6E420E0E6E51EC3DF0D85C
:107EBF00B002D0E00E9BD043C009F044C00AF04599
:107ECF00C00BF0000E0C6E480E0D6E420E0E6E5172
:107EDF00EC3DF0D8A012D043C009F044C00AF045E1
:107EEF00C00BF0000E0C6E700E0D6E420E0E6E512A
:107EFF00EC3DF0D8B002D0F00E79D043C009F04479
:107F0F00C00AF045C00BF0000E0C6E700E0D6E42E5
:107F1F000E0E6E51EC3DF0D8A012D043C009F044C4
:107F2F00C00AF045C00BF0000E0C6E8C0E0D6E42A9
:107F3F000E0E6E51EC3DF0D8B002D0F80E57D04374
:107F4F00C009F044C00AF045C00BF0000E0C6E8C57
:107F5F000E0D6E420E0E6E51EC3DF0D8A012D043B6
:107F6F00C009F044C00AF045C00BF0000E0C6EA023
:107F7F000E0D6E420E0E6E51EC3DF0D8B002D0FCDD
:107F8F000E35D043C009F044C00AF045C00BF000D5
:107F9F000E0C6EA00E0D6E420E0E6E51EC3DF0D813
:107FAF00A012D043C009F044C00AF045C00BF00046
:107FBF000E0C6EB40E0D6E420E0E6E51EC3DF0D8DF
:107FCF00B002D0FE0E13D043C009F044C00AF045F2
:107FDF00C00BF0000E0C6EB40E0D6E420E0E6E51F5
:107FEF00EC3DF0D8A002D08A68D2D6000E8A6ECFB0
:027FFF00D6FFAB
:020000040020DA
:08000000FFFFFFFFFFFFFFFF00
:020000040030CA
:0E00000000051F1FFF8385FF0FC00FE00F409C
:00000001FF
