:0400000039EF16F0CE
:10080000010000000A00000064000000E80300008E
:1008100010270000A086010040420F00809698003B
:1008200000E1F50500CA9A3B00803FCDCC3DD723BF
:100830003C12833AB7D138C62737388635C0D6330D
:10084000CC2B32708930E7DB2EE53C1E42A20D0036
:10085000803F00204100C842007A44401C4650C3FB
:100860004724744997184BBCBE4C6B6E4E03155011
:1008700079AD60F3497144697374616E6369613A7B
:100880002025303364636D004C44523A20252E32CB
:1008900066000000000E000100016C6F4F0E0001A9
:1008A0006B6F7CEF0AF0000100018051250AD8B47B
:1008B0000BD04BC0D9FF4CC0DAFF000180C0DFFF76
:1008C0004B4A4C2A7CEF0AF0000E000100017A6FBF
:1008D000000E0001796F000E00010001766F000E1E
:1008E0000001756F05D00001000175854D4A4E2A43
:1008F0004DC0F6FF4EC0F7FF0800F550300AD8B4DF
:10090000F2D74DC0F6FF4EC0F7FF0800F5CF01F05B
:1009100017EC16F0D8A037D0000E000100017A6F56
:10092000000E0001796F79C011F07AC012F0000E4C
:10093000146E0A0E136E7FEC15F011C079F012C020
:100940007AF04DC0F6FF4EC0F7FF0800F5CF52F029
:10095000D00E5224536E546AFF0E5422535000019D
:10096000000179275450000100017A234D4A4E2A94
:100970004DC0F6FF4EC0F7FF0800F5CF01F017ECB1
:1009800016F0D8B0D0D74DC0F6FF4EC0F7FF080024
:10099000F5502E0AD8A437D000010001768D4D4ABB
:1009A0004E2A000E000100017F6F000E00017E6FD5
:1009B0001ED07EC011F07FC012F0000E146E0A0E21
:1009C000136E7FEC15F04DC0F6FF4EC0F7FF080028
:1009D000F5501126000E1222D00E11240001000144
:1009E0007E6FFF0E122000017F6F4D4A4E2A4DC0D0
:1009F000F6FF4EC0F7FF0800F5CF01F017EC16F038
:100A0000D8A010D0D6D7000E000100017F6F000ED5
:100A100000017E6F00010001768904D00001000111
:100A200076851AD04DC0F6FF4EC0F7FF4D4A4E2ACC
:100A300008000001F5CF80F000018051000AD8B411
:100A40008AEF0AF0640AD8B407D0020AD8B4E6D70D
:100A50000F0AD8A47CEF0AF0070E000100017615FA
:100A6000D8B48CD30001000176A907D0000E000194
:100A700000017F6F060E00017E6F6BC0D9FF6CC056
:100A8000DAFF0001DECF7BF00001DECF7CF0000159
:100A9000DDCF7DF0030E000100016B27000E000189
:100AA0006C23000100017D51800A800F07E1000ED8
:100AB00000017C5D03E1000E00017B5DD8B012D027
:100AC0007BC001F07CC002F07DC003F004EC16F0A6
:100AD00003C07DF002C07CF001C07BF0030E00017A
:100AE00000017513000E00010001786F000E000177
:100AF000776F7F0E000100017D1500017C11000160
:100B00007B11D8B491D0820E526EFF0E536E00014D
:100B10007BC054F000017CC055F000017DC056F050
:100B200000017EC057F0100E05D0D89057325632D3
:100B300055325432E82EF9D75450522400010001A6
:100B4000776F0001000E5320786F000100017707D6
:100B5000D8A0780777C011F078C012F0000E146E9C
:100B6000030E136E7FEC15F011C077F012C078F011
:100B700077C008F078C009F0000E0B6E0A0E0A6EFE
:100B80001BEC13F008C077F009C078F000010001F9
:100B900078AF05D0000100017707D8A078070001E1
:100BA000000177510008376E91EC0AF039C06FF000
:100BB00038C06EF037C06DF00001000E386E0001D5
:100BC0006D0E376E7BC039F07CC03AF07DC03BF0D3
:100BD00043EC15F06DC001F06EC002F06FC003F081
:100BE000000E046E800E056E3F0E066ED3EC12F002
:100BF000D8B006D0000100017707D8A0780714D03C
:100C00006DC001F06EC002F06FC003F0000E046E04
:100C1000200E056E410E066ED3EC12F0D8A004D063
:100C200000010001774B782B000100017F51800A01
:100C3000800F0D0ED8B47E5DD8B012D00001000E2A
:100C4000476E00017B0E466E7EC037F0B9EC0CF0AB
:100C500039C04AF038C049F037C048F061EC15F0AF
:100C6000000100017851800A800F0A0ED8B4775D28
:100C7000D8B022D07F0E000100017D1500017C114B
:100C800000017B11D8B467D07BC017F07CC018F08E
:100C90007DC019F0F1EC10F01A501710181019104F
:100CA000D8A459D0000100017851800A800F020EAB
:100CB000D8B4775DD8A04FD06DC001F06EC002F0FF
:100CC0006FC003F0700E046E890E056E400E066E46
:100CD000D3EC12F0D8B003D00001F70E02D000011F
:100CE000F80E00017727FF0E0001782377C037F058
:100CF00091EC0AF039C06FF038C06EF037C06DF07B
:100D00007BC001F07CC002F07DC003F06DC004F038
:100D10006EC005F06FC006F0DFEC0EF004C066F0A8
:100D200003C065F002C064F001C063F063C070F0FE
:100D300064C071F065C072F066C073F0000E00010F
:100D400000017B6F000E000100017C6F000E0001AE
:100D500000017D6F2FD07BC017F07CC018F07DC0E4
:100D600019F0F1EC10F01AC073F019C072F018C04D
:100D700071F017C070F00001000E1E6E00017B0EB6
:100D80001D6E70C009F071C00AF072C00BF073C024
:100D90000CF058EC14F00BC021F00AC020F009C090
:100DA0001FF025EC15F0000E00010001786F000E19
:100DB0000001776F526E010E00010001806F5250EA
:100DC0000001000180510A0AD8B421D000010001BD
:100DD0008051040D000EF324F66E080EF420F76E19
:100DE0000900F55000010001705D0900F550000197
:100DF00071590900F550000172590900F5500001C0
:100E00007359D8A004D000010001802BD9D700016C
:100E100080C052F0536A52BE5306000100017E5159
:100E20005226000100017F51532200010001775139
:100E30005226000100017851532252500001000156
:100E4000795F5350000100017A5B000100017F517E
:100E50007E11D8B405D0000100017907D8A07A0727
:100E6000030E000100017515526E000E0001000115
:100E70007615536E53505210D8B405D000010001BE
:100E80007907D8A07A070001000175B50ED025D0EA
:100E90004BC0D9FF4CC0DAFF300EDF6E4B4A4C2AF4
:100EA000000100017907D8A07A07000100017A51FA
:100EB000800A800F010ED8B4795DD8A069D0E8D738
:100EC0004BC0D9FF4CC0DAFF200EDF6E4B4A4C2AD4
:100ED000000100017907D8A07A07000100017A51CA
:100EE000800A800F010ED8B4795DD8B0E9D7030E1F
:100EF000000100017515526E000E0001000176150B
:100F0000536E53505210D8B443D04BC0D9FF4CC08D
:100F1000DAFF2D0E3AD070C001F071C002F072C03D
:100F200003F073C004F0000100018051040D000EB5
:100F3000F324F66E080EF420F76E0900F5CF05F0E5
:100F40000900F5CF06F00900F5CF07F00A00F5CF4C
:100F500008F063EC13F001C067F002C068F067C0EE
:100F600001F068C002F0000E046E0A0E036EE0ECA1
:100F700014F001C067F002C068F000010001675181
:100F8000300F4BC0D9FF4CC0DAFFDF6E4B4A4C2A02
:100F900000010001800700018029D8B40ED0BBD722
:100FA0004BC0D9FF4CC0DAFF300EDF6E4B4A4C2AE3
:100FB000000100017707D8A07807000100017851EF
:100FC000800A800F010ED8B4775DD8B0E9D7000150
:100FD00000017F51800A800F090ED8B47E5DD8A031
:100FE00007D0526E080E00010001806F525002D0EF
:100FF0007EC080F0000100018051000100017E5F91
:10100000000E000180BFFF0E000100017F5B0001A8
:1010100000018051D8B408D04BC0D9FF4CC0DAFFD2
:101020002E0EDF6E4B4A4C2A80C037F091EC0AF04E
:1010300039C062F038C061F037C060F07BC029F081
:101040007CC02AF07DC02BF060C026F061C027F084
:1010500062C028F070EC0FF028C019F027C018F01B
:1010600026C017F0F1EC10F01AC073F019C072F03E
:1010700018C071F017C070F065D070C001F071C079
:1010800002F072C003F073C004F00001000180514F
:10109000040D000EF324F66E080EF420F76E09001E
:1010A000F5CF05F00900F5CF06F00900F5CF07F000
:1010B0000A00F5CF08F063EC13F001C069F002C03C
:1010C0006AF069C001F06AC002F0000E046E0A0EF8
:1010D000036EE0EC14F001C069F002C06AF0000198
:1010E00000016951300F4BC0D9FF4CC0DAFFDF6EF1
:1010F0004B4A4C2A70C00FF071C010F072C011F052
:1011000073C012F0000100018051040D000EF324A1
:10111000F66E080EF420F76E0900F5CF13F0090003
:10112000F5CF14F00900F5CF15F00A00F5CF16F051
:1011300023EC14F012C073F011C072F010C071F003
:101140000FC070F000010001800700018029D8B4B1
:101150000ED093D74BC0D9FF4CC0DAFF300EDF6EF4
:101160004B4A4C2A000100017E07D8A07F070001EE
:1011700000017F517E11D8B4BFD1ECD76BC0D9FF2D
:101180006CC0DAFF0001DECF70F00001DDCF71F03E
:101190000001000E000171BFFF0E0001726F00011F
:1011A000736F020E000100016B27000E00016C231B
:1011B0000001000173AF14D0030E0001000175138C
:1011C00000010001731F0001721F0001711F000167
:1011D000706D000E00017123000172230001732362
:1011E000000100017F517E11D8A40CD00001000144
:1011F0007351701171117211D8A404D00001000153
:101200007E4B7F2B526E010E00010001806F525009
:101210000001000180510A0AD8B421D00001000168
:101220008051040D000EF324F66E080EF420F76EC4
:101230000900F55000010001705D0900F550000142
:1012400071590900F550000172590900F55000016B
:101250007359D8A004D000010001802BD9D7800E8B
:101260000001000180BF7F0E526E000100017E511F
:1012700000010001805D000100017F51800A525889
:10128000D8B003D07EC080F01ED0000100017F5195
:10129000800A526E000100018051000100017E5D54
:1012A000800E0001000180BF7F0E5258D8B00BD0D5
:1012B000000100018051000100017E6F00017F6B81
:1012C00000017EBF7F07000100017A517911D8B477
:1012D00013D0030E000100017515526E000E0001BF
:1012E00000017615536E53505210D8B405D000014A
:1012F00000017907D8A07A070001000176AD26D059
:10130000000100017F51800A526E000100017951F5
:10131000000100017E5D000100017A51800A5258EF
:10132000D8B00DD0000100017E5100010001795FAD
:10133000000100017F51000100017A5B07D0000E1F
:10134000000100017A6F000E0001796F800E00012C
:10135000000180BF7F0E526E000100017951000133
:101360000001805D000100017A51800A5258D8B016
:101370000ED000010001805100010001795F000ED4
:10138000000180BFFF0E000100017A5B07D0000E54
:10139000000100017A6F000E0001796F0001000169
:1013A00075A52AD0030E000100017515526E000EBE
:1013B000000100017615536E53505210D8B408D076
:1013C0004BC0D9FF4CC0DAFF2D0EDF6E4B4A4C2AC2
:1013D000000100017A517911D8B483D04BC0D9FFF4
:1013E0004CC0DAFF300EDF6E4B4A4C2A0001000180
:1013F0007907D8A07A07EDD7000100017A51791159
:10140000D8B412D04BC0D9FF4CC0DAFF200EDF6E2B
:101410004B4A4C2A000100017907D8A07A07000145
:101420007A517911D8A4EED7030E00010001751589
:10143000526E000E000100017615536E535052108B
:10144000D8B44FD04BC0D9FF4CC0DAFF2D0EDF6EA1
:1014500046D000017EC052F000017FC053F0D8900A
:1014600052365336D89052365336000E5224F66E0A
:10147000080E5320F76E0900F5CF05F00900F5CFEF
:1014800006F00900F5CF07F00A00F5CF08F070C0AC
:1014900001F071C002F072C003F073C004F063EC9D
:1014A00013F004C012F003C011F002C010F001C02C
:1014B0000FF00A0E136E000E146E000E156E000E65
:1014C000166E23EC14F00F50300F00010001806FF6
:1014D0004BC0D9FF4CC0DAFF000180C0DFFF4B4A90
:1014E0004C2A000100017E07D8A07F0700017E2959
:1014F000D8B47F29D8A4ADD74DC0F6FF4EC0F7FFB2
:101500004D4A4E2A08000001F5CF80F000018067A7
:1015100053EF04F04BC0D9FF4CC0DAFF000EDF6E72
:10152000120037AE08D1376C3750800A120FD8A09E
:101530009DD0000E146E030E136E000E0B6E0A0E7D
:101540000A6E000E046E640E036E3750016E026A5E
:1015500001BE0206E5EC13F001C008F002C009F07C
:101560001BEC13F0090E0824116E000E0920126EF8
:101570007FEC15F0280E1124F66E080E1220F76E7F
:101580000900F5CF3AF00900F5CF3BF00900F5CF9F
:101590003CF03CC02BF03BC02AF03AC029F0000ED2
:1015A000146E030E136E000E0B6E640E0A6E37502F
:1015B000086E096A08BE09061BEC13F0120E082417
:1015C000116E000E0920126E7FEC15F0280E11240A
:1015D000F66E080E1220F76E0900F5CF3DF00900F7
:1015E000F5CF3EF00900F5CF3FF03FC028F03EC0F8
:1015F00027F03DC026F070EC0FF028C042F027C065
:1016000041F026C040F040C026F041C027F042C063
:1016100028F0000E146E030E136E000E046E0A0EF8
:10162000036E3750016E026A01BE0206E5EC13F04C
:1016300001C011F002C012F07FEC15F0280E112449
:10164000F66E080E1220F76E0900F5CF3AF0090089
:10165000F5CF3BF00900F5CF3CF03CC02BF03BC090
:101660002AF03AC029F070EC0FF064D13750800AAC
:10167000750FD8A059D0000E146E030E136E000E15
:101680000B6E0A0E0A6E3750086E096A08BE09060C
:101690001BEC13F0090E0824116E000E0920126EC7
:1016A0007FEC15F0280E1124F66E080E1220F76E4E
:1016B0000900F5CF3AF00900F5CF3BF00900F5CF6E
:1016C0003CF03CC028F03BC027F03AC026F0000EAA
:1016D000146E030E136E000E046E0A0E036E375066
:1016E000016E026A01BE0206E5EC13F001C011F0C2
:1016F00002C012F07FEC15F0280E1124F66E080ED1
:101700001220F76E0900F5CF3DF00900F5CF3EF04D
:101710000900F5CF3FF03FC02BF03EC02AF03DC09E
:1017200029F070EC0FF006D13750030D280EF3248A
:10173000F66E080E0CD13750800A120FD8A09DD03B
:10174000000E146E030E136E000E0B6E0A0E0A6E60
:10175000000E046E640E036E3750016E026A01BE05
:101760000206E5EC13F001C008F002C009F01BEC22
:1017700013F0090E0824116E000E0920126E7FEC82
:1017800015F04F0E1124F66E080E1220F76E0900A8
:10179000F5CF3AF00900F5CF3BF00900F5CF3CF06A
:1017A0003CC02BF03BC02AF03AC029F0000E146E6A
:1017B000030E136E000E0B6E640E0A6E3750086E29
:1017C000096A08BE09061BEC13F0120E0824116EFC
:1017D000000E0920126E7FEC15F04F0E1124F66EEC
:1017E000080E1220F76E0900F5CF3DF00900F5CF85
:1017F0003EF00900F5CF3FF03FC028F03EC027F093
:101800003DC026F070EC0FF028C042F027C041F038
:1018100026C040F040C026F041C027F042C028F06A
:10182000000E146E030E136E000E046E0A0E036E8D
:101830003750016E026A01BE0206E5EC13F001C0EA
:1018400011F002C012F07FEC15F04F0E1124F66E6D
:10185000080E1220F76E0900F5CF3AF00900F5CF17
:101860003BF00900F5CF3CF03CC02BF03BC02AF028
:101870003AC029F070EC0FF05DD03750800A750F38
:10188000D8A05FD0000E146E030E136E000E0B6E08
:101890000A0E0A6E3750086E096A08BE09061BEC6C
:1018A00013F0090E0824116E000E0920126E7FEC51
:1018B00015F04F0E1124F66E080E1220F76E090077
:1018C000F5CF3AF00900F5CF3BF00900F5CF3CF039
:1018D0003CC028F03BC027F03AC026F0000E146E42
:1018E000030E136E000E046E0A0E036E3750016E67
:1018F000026A01BE0206E5EC13F001C011F002C05D
:1019000012F07FEC15F04F0E1124F66E080E122027
:10191000F76E0900F5CF3DF00900F5CF3EF0090064
:10192000F5CF3FF03FC02BF03EC02AF03DC029F07C
:1019300070EC0FF028C039F027C038F026C037F01F
:1019400017D03750030D4F0EF324F66E080EF42017
:10195000F76E0900F5CF3AF00900F5CF3BF009002A
:10196000F5CF3CF03CC039F03BC038F03AC037F01E
:1019700012006D0E3764ABD0000E146E030E136EA2
:10198000000E0B6E0A0E0A6E000E046E640E036EDD
:1019900037C001F0026AE5EC13F001C008F002C0A4
:1019A00009F01BEC13F0090E0824116E000E09203B
:1019B000126E7FEC15F0280E1124F66E080E122020
:1019C000F76E0900F5CF3AF00900F5CF3BF00900BA
:1019D000F5CF3CF03CC02BF03BC02AF03AC029F0D8
:1019E000000E146E030E136E000E0B6E640E0A6E64
:1019F00037C008F0096A1BEC13F0120E0824116EB0
:101A0000000E0920126E7FEC15F0280E1124F66EE0
:101A1000080E1220F76E0900F5CF3DF00900F5CF52
:101A20003EF00900F5CF3FF03FC028F03EC027F060
:101A30003DC026F070EC0FF028C045F027C044F000
:101A400026C043F0000E146E030E136E000E046EDB
:101A50000A0E036E37C001F0026AE5EC13F001C014
:101A600011F002C012F07FEC15F0280E1124F66E72
:101A7000080E1220F76E0900F5CF3AF00900F5CFF5
:101A80003BF00900F5CF3CF03CC02BF03BC02AF006
:101A90003AC029F043C026F044C027F045C028F0E2
:101AA00070EC0FF028C042F027C041F026C040F093
:101AB00040C026F041C027F042C028F0000E296E39
:101AC000000E2A6E3F0E2B6E70EC0FF08BD00A0EBC
:101AD000376469D0000E146E030E136E000E046E90
:101AE0000A0E036E37C001F0026AE5EC13F001C084
:101AF00011F002C012F07FEC15F0280E1124F66EE2
:101B0000080E1220F76E0900F5CF3AF00900F5CF64
:101B10003BF00900F5CF3CF03CC02BF03BC02AF075
:101B20003AC029F0000E146E030E136E000E0B6EF9
:101B30000A0E0A6E37C008F0096A1BEC13F0090E92
:101B40000824116E000E0920126E7FEC15F0280E8D
:101B50001124F66E080E1220F76E0900F5CF3DF045
:101B60000900F5CF3EF00900F5CF3FF03FC028F067
:101B70003EC027F03DC026F070EC0FF028C045F0C5
:101B800027C044F026C043F043C026F044C027F0ED
:101B900045C028F0000E296E000E2A6E3F0E2B6EF7
:101BA00070EC0FF01FD03750030D280EF324F66EA3
:101BB000080EF420F76E0900F5CF3AF00900F5CFD2
:101BC0003BF00900F5CF3CF03CC028F03BC027F0CB
:101BD0003AC026F0000E296E000E2A6E3F0E2B6EC4
:101BE00070EC0FF028C039F027C038F026C037F06D
:101BF00012000F0E0F6E09C010F00AC011F00BC0DA
:101C000012F00F28136E04D0D89012321132103215
:101C1000132EFAD71050166E0F0E0F6E0CC010F068
:101C20000DC011F00EC012F00F28136E04D0D89022
:101C3000123211321032132EFAD71050156E165080
:101C4000D8B40BD0155016600FD0165000081524CC
:101C50000F6E190E0F5CD8A007D00CC009F00DC094
:101C60000AF00EC00BF0AAD01550D8B40BD0165005
:101C700015600FD01550000816240F6E190E0F5C5A
:101C8000D8A007D009C009F00AC00AF00BC00BF0B9
:101C900095D00F6E060E146E0F500BBE148E0EBE36
:101CA000148C0A8EFF0E0916FF0E0A16000E0B1674
:101CB0000D8EFF0E0C16FF0E0D16000E0E16155093
:101CC000166018D0D8900C360D360E361506155005
:101CD0001618D8B40BD014061450070BD8B406D07D
:101CE000F1D7D8900B320A320932162A15501662F3
:101CF000F8D71AD01650156017D0D89009360A3682
:101D00000B36160615501618D8B40BD014061450FE
:101D1000070BD8B406D0F1D7D8900E320D320C3262
:101D2000152A15501662F8D714AE0CD0FF0E091AFA
:101D3000FF0E0A1AFF0E0B1A010E0926000E0A22C8
:101D4000000E0B2214AC0CD0FF0E0C1AFF0E0D1A55
:101D5000FF0E0E1A010E0C26000E0D22000E0E2292
:101D60000F6E000E146E0F5009500C260A500D22F3
:101D70000B500E220EAE10D0FF0E0C1AFF0E0D1AD5
:101D8000FF0E0E1A010E0C26000E0D22000E0E2262
:101D90000F6E010E146E0F500CC001F00DC002F05A
:101DA0000EC003F016C004F014C005F01BEC12F0D6
:101DB00003C00BF002C00AF001C009F012000F0EC0
:101DC000076E01C008F002C009F003C00AF007283E
:101DD0000B6E04D0D8900A32093208320B2EFAD793
:101DE0000850116E116601D061D00F0E076E04C04D
:101DF00008F005C009F006C00AF007280B6E04D0F1
:101E0000D8900A32093208320B2EFAD70850106ED9
:101E1000106601D04BD0028EFF0E0116FF0E021687
:101E2000000E0316058EFF0E0416FF0E0516000E9B
:101E30000616000E0C6E000E0D6E000E0E6E000EDD
:101E40000F6E7F0E115E1050980F115E076E180E08
:101E5000106E0750D8900C360D360E360F360450E3
:101E6000015C0550025806500358D8A007D0045012
:101E7000015E0550025A0650035A0C80D890013674
:101E800002360336102EE6D711AE0DD01150800A5F
:101E9000970FD8A00BD0D8900F320E320D320C32E3
:101EA000113EF9D714D0170E11640FD0000E016E39
:101EB000000E026E000E036E000E046E10D0D8905D
:101EC0000C360D360E360F3611061166F8D70CC0DB
:101ED00001F00DC002F00EC003F00FC004F01200BC
:101EE0000F0E2C6E26C02DF027C02EF028C02FF02C
:101EF0002C28306E04D0D8902F322E322D32302E36
:101F0000FAD72D50316E316601D015D00F0E2C6EE0
:101F100029C02DF02AC02EF02BC02FF02C28306EB7
:101F200004D0D8902F322E322D32302EFAD72D50A9
:101F3000366E366607D0000E266E000E276E000E37
:101F4000286E55D036507B0F312628C036F02B50E6
:101F5000361A800E3616278E2A8EFF0E2916FF0E91
:101F60002A16000E2B16000E326E000E336E000E77
:101F7000346E2C6E070E356E2C5026A006D02950DC
:101F800032262A5033222B503422D890283227323E
:101F90002632D89029362A362B36352EEED72C6E9F
:101FA000090E356E2C5026A006D0295032262A5014
:101FB00033222B503422D890283227322632D89020
:101FC000343233323232352EEED732C001F033C0E4
:101FD00002F034C003F031C004F036C005F01BEC51
:101FE00012F003C028F002C027F001C026F0120052
:101FF0000F0E3D6E37C03EF038C03FF039C040F0A4
:102000003D28416E04D0D89040323F323E32412EBE
:10201000FAD73E50466E466601D015D00F0E3D6E83
:102020003AC03EF03BC03FF03CC040F03D28416E1E
:1020300004D0D89040323F323E32412EFAD73E5043
:10204000476E476607D0000E376E000E386E000EE2
:10205000396E4CD0000E436E000E446E000E456E7D
:102060004750890F465E39C047F03C50471A800EF2
:102070004716388EFF0E3716FF0E3816000E39162B
:102080003B8EFF0E3A16FF0E3B16000E3C163D6EC1
:10209000180E426E3D50D8904336443645363A507D
:1020A000375C3B5038583C503958D8A007D03A508C
:1020B000375E3B50385A3C50395A4380D8903736B7
:1020C00038363936422EE7D743C001F044C002F01B
:1020D00045C003F046C004F047C005F01BEC12F009
:1020E00003C039F002C038F001C037F012000334E9
:1020F00004340D6E0D6601D05AD0063407340C6ED0
:102100000C6601D054D0038EFF0E0116FF0E02168E
:10211000FF0E0316000E0416068EFF0E0416FF0EA9
:102120000516FF0E0616000E0716000E086E000EAE
:10213000096E000E0A6E000E0B6E7F0E0D5E0C50C7
:10214000A00F0D5E076E200E0C6E0750D89008365B
:1021500009360A360B360450015C05500258065009
:10216000035807500458D8A009D00450015E055008
:10217000025A0650035A0750045A0880D890013674
:102180000236033604360C2EE1D70DAE0DD00D50BD
:10219000800A9F0FD8A00BD0D8900B320A32093298
:1021A00008320D3EF9D714D01F0E0D640FD0000E6B
:1021B000016E000E026E000E036E000E046E10D053
:1021C000D890083609360A360B360D060D66F8D754
:1021D00008C001F009C002F00AC003F00BC004F00F
:1021E00012000F0E1B6E17C01CF018C01DF019C096
:1021F0001EF01B281F6E04D0D8901E321D321C32D8
:102200001F2EFAD71C50256E256601D035D0170E2B
:102210001B6E17C01CF018C01DF019C01EF01B2843
:102220001F6E04D0D8901E321D321C321F2EFAD7DA
:102230001C50206E188EFF0E1716FF0E1816000E7B
:1022400019161750216E1850226E1950236E246AE9
:102250008E0E255E25AE0DD02550800A8F0FD8A09A
:102260000BD0D8902432233222322132253EF9D7A6
:1022700014D0170E25640FD0000E176E000E186EC6
:10228000000E196E000E1A6E1BD0D8902136223621
:102290002336243625062566F8D72050D8B408D032
:1022A000241E231E221E216C000E22222322242201
:1022B00021C017F022C018F023C019F024C01AF072
:1022C000120058EC16F04EEC16F077EC12F044ECDD
:1022D00016F0A6EC13F009C05DF00AC05EF0BEEC8B
:1022E00011F04AC05CF049C05BF048C05AF0586E2B
:1022F000010E046E5850596E010E056E5950B5EC22
:1023000014F00001000E4C6E0001810E4B6E080EA1
:102310004E6E880E4D6E5AC04FF05BC050F05CC0E0
:1023200051F04AEC04F00001000E066E0001810E2F
:10233000056ED4EC15F00001000E4C6E0001810E0C
:102340004B6E080E4E6E760E4D6E5DC04FF05EC049
:1023500050F04AEC04F0586E020E046E5850596E5C
:10236000010E056E5950B5EC14F00001000E066E1A
:102370000001810E056ED4EC15F0ABD7000E4F6E48
:10238000000E506E000E516E000EC2B2010E4B6E6A
:10239000010E4C6E4B2A02D0D8904C364B2EFCD7F7
:1023A000000EC2B0010E4D6E010E4E6E4D2A02D0CF
:1023B000D8904E364D2EFCD74E504C10C212C2B2A1
:1023C000FED7C4504C6E4B6AC3504B24096E000EAE
:1023D0004C200A6E03EC15F00BC051F00AC050F00F
:1023E00009C04FF0000E296EA00E2A6E400E2B6E13
:1023F0004FC026F050C027F051C028F070EC0FF00D
:1024000028C039F027C038F026C037F0C00E3A6E29
:102410007F0E3B6E440E3C6EF8EC0FF039C051F06D
:1024200038C050F037C04FF04FC048F050C049F0AE
:1024300051C04AF012000450D8B405D00150021027
:102440000310D8A40CD0000E016E000E026E000E18
:10245000036E4CD0042AD890033202320132000EAF
:102460000114066E000E0214076EFE0E0314086EB1
:10247000065007100810D8B40CD0ECD7042A010E6F
:102480000126000E0222000E0322D89003320232EF
:102490000132000E0114066E000E0214076EFF0ECC
:1024A0000314086E065007100810D8B406D0E6D7FB
:1024B0000406D89001360236033602AEF9D704A0DE
:1024C000029ED89004320450086E076A066A0650CD
:1024D000011207500212085003120550D8A4038EAF
:1024E00001C001F002C002F003C003F01200000EB0
:1024F000956E046E000E016E0450EFEC15F0340E74
:10250000046EF10EE82EFED7042EFCD700D0046E28
:10251000030E026E045029EC16F00D0E046EFB0E35
:10252000E82EFED7042EFCD700D0046E030E026EF8
:10253000045029EC16F01D0E046E910EE82EFED705
:10254000042EFCD7046E030E026E045029EC16F024
:10255000046E020E026E045029EC16F0046E020E98
:10256000026E045029EC16F0046E080E026E045040
:1025700029EC16F0046E000E026E045029EC16F0E1
:10258000046E0C0E026E045029EC16F0046E000E60
:10259000026E045029EC16F0046E060E026E045012
:1025A00029EC16F0120003AE16D001C007F002C0ED
:1025B00008F003C009F0071E081E091E072A000EB6
:1025C00008220922000E0724016E000E0820026E68
:1025D000800E0920036E06AE16D004C007F005C0B9
:1025E00008F006C009F0071E081E091E072A000E83
:1025F00008220922000E0724046E000E0820056E32
:10260000800E0920066E000E011A000E021A800EBE
:10261000031A000E041A000E051A800E061A045042
:10262000015C0550025806500358D8B002D0D8902B
:1026300001D0D88012000C6E000E0E6E0C500BAE46
:1026400008D00A6C0B1ED8B00B2A0C6E010E0E6E51
:102650000C5009AE06D0086C091ED8B0092A010E2C
:102660000E1A000E106E000E0F6E0B500A10D8B42A
:102670001ED00C6E010E0D6E0C5004D0D8900A3690
:102680000B360D2A0BAEFAD7D8900F3610360A50FB
:10269000085C0B500958D8A005D00A50085E0B50B2
:1026A000095A0F80D8900B320A320D2EEDD70E50FA
:1026B000D8B404D00F6C101ED8B0102A0FC008F088
:1026C00010C009F01200000E0A6E000E0B6E000E14
:1026D0000C6E000E0D6E0850051006100710D8B4D1
:1026E0002CD0096E010E0E6E095006D0D89005361A
:1026F0000636073608360E2A08AEF8D7D8900A36BE
:102700000B360C360D360550015C0650025807504A
:10271000035808500458D8A009D00550015E06504F
:10272000025A0750035A0850045A0A80D8900832B7
:102730000732063205320E2EE1D70AC001F00BC077
:1027400002F00CC003F00DC004F012008982060EE6
:10275000E82EFED700D0899280A4FED7CD8080B429
:10276000FED7CD90CECF0BF0CFCF0CF0D8900C3061
:10277000106E0B300F6EA10E0F5C5A0E1058D8B0B1
:102780000FD00FC001F010C002F0000E046E3A0E20
:10279000036E8AEC14F001C00DF002C00EF008D0F8
:1027A000740E0F5C000E1058000E0E6E000E0D6EB3
:1027B000000E106E000E0F6E000ECF6E000ECE6E6D
:1027C0000DC009F00EC00AF01200056E000E076E73
:1027D000055002AE08D0016C021ED8B0022A056E68
:1027E000010E076E055004AE04D0036C041ED8B071
:1027F000042A04500310D8B41AD0056E010E066ED8
:10280000055004D0D89003360436062A04AEFAD711
:102810000350015C04500258D8A004D00350015E5C
:102820000450025AD89004320332062EF1D70750D2
:10283000D8B404D0016C021ED8B0022A01C001F045
:1028400002C002F012001650131014101510D8B464
:1028500026D0176E010E186E175006D0D89013367A
:10286000143615361636182A16AEF8D713500F5CE4
:10287000145010581550115816501258D8A008D09E
:1028800013500F5E1450105A1550115A1650125A08
:10289000D8901632153214321332182EE7D70FC0E3
:1028A0000FF010C010F011C011F012C012F01200A1
:1028B0000D6E8E0E116E0D5006D0D8900C320B326C
:1028C0000A320932112A000E09140D6E000E0A1484
:1028D0000E6E000E0B140F6EFF0E0C14106E1050C7
:1028E0000D100E100F10D8A4E8D709C001F00AC0CF
:1028F00002F00BC003F011C004F00D6E000E056E67
:102900000D501BEC12F003C00BF002C00AF001C026
:1029100009F01200000E076E000E066E0450031040
:10292000D8B41ED0056E010E086E055004D0D890A4
:1029300003360436082A04AEFAD7D890063607368E
:102940000350015C04500258D8A005D00350015E2A
:102950000450025A0680D89004320332082EEDD774
:1029600006C001F007C002F012000404D8A412D07F
:1029700005507F0F086E08380F0B066E08500F0BBE
:10298000076E06C002F029EC16F007C002F029EC31
:1029900016F015D00450020AD8A411D00550BF0F6C
:1029A000086E08380F0B066E08500F0B076E06C036
:1029B00002F029EC16F007C002F029EC16F0120024
:1029C00004500310D8B41AD0056E010E066E0550DF
:1029D00004D0D89003360436062A04AEFAD7035042
:1029E000015C04500258D8A004D00350015E04508A
:1029F000025AD89004320332062EF1D701C001F0FA
:102A000002C002F012000C6E000E0D6E0C500AAEE9
:102A100008D0096C0A1ED8B00A2A0C6E010E0D6E81
:102A20000C5009C001F00AC002F0036A0C6E8E0E51
:102A3000046E0C500DC005F01BEC12F003C00BF03F
:102A400002C00AF001C009F012001DC0D9FF1EC06B
:102A5000DAFFDECF17F0DECF18F0DDCF19F01FC0A0
:102A60001AF020C01BF021C01CF0B9EC15F01DC0FD
:102A7000D9FF1EC0DAFF17C0DEFF18C0DEFF19C085
:102A8000DDFFDD52120037C0D9FF38C0DAFFDECFDC
:102A900026F0DECF27F0DDCF28F039C029F03AC08C
:102AA0002AF03BC02BF070EC0FF037C0D9FF38C0D4
:102AB000DAFF26C0DEFF27C0DEFF28C0DDFFDD52C3
:102AC000120046C0D9FF47C0DAFFDECF09F0DECFE3
:102AD0000AF0DDCF0BF048C00CF049C00DF04AC041
:102AE0000EF0F9EC0DF046C0D9FF47C0DAFF09C07F
:102AF000DEFF0AC0DEFF0BC0DDFFDD521200115009
:102B00001302F3CF15F0F4CF16F011501402F3CFE7
:102B1000F4FFF36AF3501526F450162212501302F4
:102B2000F3CFF4FFF36AF3501526F450162215C0C4
:102B300011F016C012F0120002500F0B036E02507B
:102B4000F00B046E838404380F0B016EEFEC15F06C
:102B500083861A0EE82EFED700D0839603C001F0BC
:102B6000EFEC15F083861A0EE82EFED700D0839680
:102B70001200000E1A1A000E1B1A800E1C1A17C023
:102B800009F018C00AF019C00BF01AC00CF01BC0F5
:102B90000DF01CC00EF0F9EC0DF00BC019F00AC0DE
:102BA00018F009C017F01200000E086E000E076E34
:102BB0000CD007500524D96E08500620DA6EDF507D
:102BC000026E9CEC15F0074A082A07500524D96EBE
:102BD00008500620DA6EDF50D8B41200EAD701A000
:102BE00002D0838801D0839801A202D0838A01D0C9
:102BF000839A01A402D0838C01D0839C01A602D0C9
:102C0000838E01D0839E12007F0E031402100110E8
:102C1000D8B406D0000E011A000E021A800E031A54
:102C200001C001F002C002F003C003F01200026E06
:102C3000000E036E02503A0E016007D02F0E0164A1
:102C400004D0026E010E036E025003C002F0023087
:102C50001200839402C001F0EFEC15F083860B0E96
:102C6000036E620EE82EFED7032EFCD700F083968B
:102C7000120000EE81F0200EEE6AE806FDE1000E83
:102C8000F86E000161EF11F092800E0EC16E920E8F
:102C9000C06E000EC46E000EC36E1200CD8ECF0E3D
:102CA000CD16CD92000ECF6E000ECE6ECD901200DE
:102CB000C180C182C184C18692929284000E936EBB
:022CC000120000
:020000040020DA
:08000000FFFFFFFFFFFFFFFF00
:020000040030CA
:0E000000000C191EFF8381FF0FC00FE00F40A0
:00000001FF
