:0400000053EF00F0CA
:10000800FACF02F0FBCF03F0E9CF04F07DED2DF03D
:10001800D8CFA1F0E8CFA2F0E0CFA3F0FACFA4F0B8
:10002800FBCFA5F0E9CFA6F0EACFA7F0E1CFA8F083
:10003800E2CFA9F0D9CFAAF0DACFABF0F3CFACF08A
:10004800F4CFADF0F6CFAEF0F7CFAFF0F8CFB0F019
:10005800F5CFB1F0CAEC30F0B1C0F5FFB0C0F8FF91
:10006800AFC0F7FFAEC0F6FFADC0F4FFACC0F3FF02
:10007800ABC0DAFFAAC0D9FFA9C0E2FFA8C0E1FF60
:10008800A7C0EAFFA6C0E9FFA5C0FBFFA4C0FAFF0E
:10009800A3C0E0FFA2C0E8FFA1C0D8FF10003AEF5C
:0200A80030F036
:10080000010000000A00000064000000E80300008E
:1008100010270000A086010040420F00809698003B
:1008200000E1F50500CA9A3B00803FCDCC3DD723BF
:100830003C12833AB7D138C62737388635C0D6330D
:10084000CC2B32708930E7DB2EE53C1E42A20D0036
:10085000803F00204100C842007A44401C4650C3FB
:100860004724744997184BBCBE4C6B6E4E03155011
:1008700079AD60F3497144697374616E6369613A7B
:100880002025303364636D004C44523A20252E32CB
:10089000660000000101010E010101016A6F010102
:1008A000550E0101696F3CEF0BF0010101017E5112
:1008B000250AD8B40DD051C1D9FF52C1DAFF0101C8
:1008C0007EC1DFFF01010101514B522B3CEF0BF0C8
:1008D000000E01010101786F000E0101776F000E1B
:1008E00001010101746F000E0101736F07D0010156
:1008F0000101738501010101534B542B010153C1C7
:10090000F6FF010154C1F7FF0800F550300AD8B4D2
:10091000EED7010153C1F6FF010154C1F7FF0800F2
:100920000101F5CF00F192EC31F0D8A049D0000ED2
:1009300001010101786F000E0101776F77C110F19D
:1009400078C111F1000E01010101136F0A0E0101BE
:10095000126F8AEC2FF0010110C177F1010111C172
:1009600078F1010153C1F6FF010154C1F7FF0800FE
:10097000F5CF58F1D00E010158250101596F010141
:1009800001015A6BFF0E5A23010159510101010166
:10099000772701015A510101010178230101010169
:1009A000534B542B010153C1F6FF010154C1F7FF12
:1009B00008000101F5CF00F192EC31F0D8B0BED7BC
:1009C000010153C1F6FF010154C1F7FF0800F550C2
:1009D0002E0AD8A44AD001010101748D0101010140
:1009E000534B542B000E010101017D6F000E0101DC
:1009F0007C6F2CD07CC110F17DC111F1000E010182
:100A00000101136F0A0E0101126F8AEC2FF0010130
:100A100053C1F6FF010154C1F7FF0800F550010171
:100A200001011027000E01011123D00E0101010167
:100A30001025010101017C6FFF0E0101010111214F
:100A400001017D6F01010101534B542B010153C181
:100A5000F6FF010154C1F7FF08000101F5CF00F1D5
:100A600092EC31F0D8A010D0C5D7000E01010101E1
:100A70007D6F000E01017C6F01010101748904D0BA
:100A80000101010174851ED0010153C1F6FF01016E
:100A900054C1F7FF01010101534B542B0800010120
:100AA000F5CF7EF101017E51000AD8B44EEF0BF074
:100AB000640AD8B407D0020AD8B4E2D70F0AD8A47F
:100AC0003CEF0BF0070E010101017415D8B4EFD310
:100AD0000101010174A907D0000E010101017D6F20
:100AE000060E01017C6F69C1D9FF6AC1DAFF0101FD
:100AF000DECF79F10101DECF7AF10101DDCF7BF1AB
:100B0000030E010101016927000E01016A230101A1
:100B100001017B51800A800F07E1000E01017A5D1F
:100B200003E1000E0101795DD8B012D079C100F166
:100B30007AC101F17BC102F129EC32F002C17BF1F3
:100B400001C17AF100C179F1030E010101017313B2
:100B5000000E01010101766F000E0101756F7F0E1D
:100B6000010101017B1501017A1101017911D8B44C
:100B7000B1D0820E0101586FFF0E596F010179C18A
:100B80005AF101017AC15BF101017BC15CF1010104
:100B90007CC15DF1100E06D00101D8905D335C334D
:100BA0005B335A33E82EF8D701015A510101582519
:100BB00001010101756F01010101000E5921766FDC
:100BC000010101017507D8A0760775C110F176C142
:100BD00011F1000E01010101136F030E0101126FEB
:100BE0008AEC2FF0010110C175F1010111C176F1FC
:100BF00075C107F176C108F1000E010101010A6F0C
:100C00000A0E0101096FA4EC24F0010107C175F17E
:100C1000010108C176F10101010176AF05D00101A2
:100C200001017507D8A0760701010101755100087F
:100C300001010101276F0AEC12F029C16DF128C1F1
:100C40006CF127C16BF10101010E01010101286F57
:100C500001016B0E0101276F79C129F17AC12AF1D7
:100C60007BC12BF150EC31F06BC100F16CC101F193
:100C70006DC102F1000E01010101036F800E01013F
:100C80000101046F3F0E01010101056F48EC27F0DF
:100C9000D8B006D0010101017507D8A076071AD097
:100CA0006BC100F16CC101F16DC102F1000E0101D7
:100CB0000101036F200E01010101046F410E0101CA
:100CC0000101056F48EC27F0D8A004D00101010113
:100CD000754B762B010101017D51800A800F0D0EAD
:100CE000D8B47C5DD8B015D00101010E010101011D
:100CF000476F0101790E0101466F7CC127F13CEC81
:100D000017F029C14AF128C149F127C148F171EC16
:100D100031F0010101017651800A800F0A0ED8B42A
:100D2000755DD8B024D07F0E010101017B15010152
:100D30007A1101017911D8B46FD079C133F17AC138
:100D400034F17BC135F170EC21F001010101365124
:100D5000331134113511D8A45FD00101010176514E
:100D6000800A800F020ED8B4755DD8A055D06BC133
:100D700000F16CC101F16DC102F1700E01010101C0
:100D8000036F890E01010101046F400E0101010191
:100D9000056F48EC27F0D8B003D00101F70E02D060
:100DA0000101F80E01017527FF0E0101762375C1BF
:100DB00027F10AEC12F029C16DF128C16CF127C1AD
:100DC0006BF179C100F17AC101F17BC102F16BC114
:100DD00003F16CC104F16DC105F1D9EC1BF003C145
:100DE00064F102C163F101C162F100C161F161C14D
:100DF0006EF162C16FF163C170F164C171F1000EF7
:100E000001010101796F000E010101017A6F000EED
:100E1000010101017B6F32D079C133F17AC134F124
:100E20007BC135F170EC21F036C171F135C170F143
:100E300034C16FF133C16EF10101010E01010101F5
:100E40004D6F0101790E01014C6F6EC108F16FC148
:100E500009F170C10AF171C10BF1D0EC2BF00AC19C
:100E600050F109C14FF108C14EF10EEC31F0000E06
:100E700001010101766F000E0101756F0101586FCC
:100E8000010E010101017E6F0101585101010101B3
:100E90007E510A0AD8B421D0010101017E51040D0E
:100EA000000EF324F66E080EF420F76E0900F550DC
:100EB000010101016E5D0900F55001016F59090042
:100EC000F550010170590900F55001017159D8A080
:100ED00004D0010101017E2BD9D701017EC158F157
:100EE0000101596B58BF5907010101017C510101F2
:100EF0005827010101017D5101015923010101011F
:100F00007551010158270101010176510101592351
:100F10000101585101010101775F0101595101019E
:100F20000101785B010101017D517C11D8B405D02C
:100F3000010101017707D8A07807030E0101010123
:100F400073150101586F000E0101010174150101B3
:100F5000596F010159515811D8B405D0010101014F
:100F60007707D8A078070101010173B510D029D007
:100F700051C1D9FF52C1DAFF300EDF6E010101010C
:100F8000514B522B010101017707D8A078070101CD
:100F900001017851800A800F010ED8B4775DD8A086
:100FA00079D0E6D751C1D9FF52C1DAFF200EDF6EEA
:100FB00001010101514B522B010101017707D8A01A
:100FC0007807010101017851800A800F010ED8B421
:100FD000775DD8B0E7D7030E010101017315010158
:100FE000586F000E0101010174150101596F0101D3
:100FF00059515811D8B44ED051C1D9FF52C1DAFF5E
:101000002D0E43D06EC100F16FC101F170C102F12C
:1010100071C103F1010101017E51040D000EF324A1
:10102000F66E080EF420F76E09000101F5CF04F109
:1010300009000101F5CF05F109000101F5CF06F125
:101040000A000101F5CF07F142EC26F000C165F17D
:1010500001C166F165C100F166C101F1000E010137
:101060000101036F0A0E0101026FF5EC2CF0010182
:1010700000C165F1010101C166F101010101655184
:10108000300F51C1D9FF52C1DAFFDF6E01010101FA
:10109000514B522B010101017E0701017E29D8B479
:1010A00010D0B0D751C1D9FF52C1DAFF300EDF6E78
:1010B00001010101514B522B010101017507D8A01B
:1010C0007607010101017651800A800F010ED8B424
:1010D000755DD8B0E7D7010101017D51800A800F0D
:1010E000090ED8B47C5DD8A009D00101586F080E54
:1010F000010101017E6F0101585102D07CC17EF1D6
:10110000010101017E51010101017C5F000E01011D
:101110007EBFFF0E010101017D5B010101017E51D6
:10112000D8B40AD051C1D9FF52C1DAFF2E0EDF6EFA
:1011300001010101514B522B7EC127F10AEC12F043
:1011400029C160F128C15FF127C15EF179C119F1B0
:101150007AC11AF17BC11BF15EC116F15FC117F1B3
:1011600060C118F1E1EC1CF018C135F117C134F180
:1011700016C133F170EC21F036C171F135C170F157
:1011800034C16FF133C16EF174D06EC100F16FC123
:1011900001F170C102F171C103F1010101017E5140
:1011A000040D000EF324F66E080EF420F76E09000D
:1011B0000101F5CF04F109000101F5CF05F10900A6
:1011C0000101F5CF06F10A000101F5CF07F142EC6C
:1011D00026F000C167F101C168F167C100F168C183
:1011E00001F1000E01010101036F0A0E0101026FFE
:1011F000F5EC2CF0010100C167F1010101C168F1BA
:10120000010101016751300F51C1D9FF52C1DAFF0D
:10121000DF6E01010101514B522B6EC10EF16FC106
:101220000FF170C110F171C111F1010101017E5185
:10123000040D000EF324F66E080EF420F76E09007C
:101240000101F5CF12F109000101F5CF13F10900F9
:101250000101F5CF14F10A000101F5CF15F107ECFA
:101260002AF011C171F110C170F10FC16FF10EC1FF
:101270006EF1010101017E0701017E29D8B410D071
:1012800084D751C1D9FF52C1DAFF300EDF6E0101A0
:101290000101514B522B010101017C07D8A07D07B0
:1012A000010101017D517C11D8B4E6D1EAD769C1B1
:1012B000D9FF6AC1DAFF0101DECF6EF10101DDCF96
:1012C0006FF10101000E01016FBFFF0E0101706F90
:1012D0000101716F020E010101016927000E010178
:1012E0006A230101010171AF14D0030E0101010154
:1012F000731301010101711F0101701F01016F1FB3
:1013000001016E6D000E01016F23010170230101C7
:101310007123010101017D517C11D8A40CD0010180
:10132000010171516E116F117011D8A404D0010127
:1013300001017C4B7D2B0101586F010E0101010160
:101340007E6F01015851010101017E510A0AD8B492
:1013500021D0010101017E51040D000EF324F66E2F
:10136000080EF420F76E0900F550010101016E5DD1
:101370000900F55001016F590900F550010170593C
:101380000900F55001017159D8A004D001010101F3
:101390007E2BD9D7800E010101017EBF7F0E586FD1
:1013A000010101017C51010101017E5D0101010189
:1013B0007D51800A01015859D8B003D07CC17EF11B
:1013C00020D0010101017D51800A0101586F010106
:1013D00001017E51010101017C5D800E01010101CD
:1013E0007EBF7F0E01015859D8B00BD00101010119
:1013F0007E51010101017C6F01017D6B01017CBF08
:101400007D070101010178517711D8B416D0030E80
:101410000101010173150101586F000E0101010165
:1014200074150101596F010159515811D8B405D0F3
:10143000010101017707D8A078070101010174AD0E
:1014400028D0010101017D51800A0101586F01017D
:1014500001017751010101017C5D01010101785118
:10146000800A01015859D8B00DD0010101017C5109
:1014700001010101775F010101017D5101010101BC
:10148000785B07D0000E01010101786F000E0101A9
:10149000776F800E010101017EBF7F0E586F010141
:1014A00001017751010101017E5D010101017851C6
:1014B000800A01015859D8B00ED0010101017E51B6
:1014C00001010101775F000E01017EBFFF0E0101E6
:1014D0000101785B07D0000E01010101786F000E59
:1014E0000101776F0101010173A531D0030E0101E4
:1014F000010173150101586F000E010101017415FE
:101500000101596F010159515811D8B40AD051C184
:10151000D9FF52C1DAFF2D0EDF6E01010101514BDF
:10152000522B0101010178517711D8B49AD051C1E1
:10153000D9FF52C1DAFF300EDF6E01010101514BBC
:10154000522B010101017707D8A07807EBD70101E1
:10155000010178517711D8B414D051C1D9FF52C1CB
:10156000DAFF200EDF6E01010101514B522B010108
:1015700001017707D8A07807010178517711D8A425
:10158000ECD7030E0101010173150101586F000E24
:101590000101010174150101596F010159515811DF
:1015A000D8B45FD051C1D9FF52C1DAFF2D0EDF6E22
:1015B00054D001017CC158F101017DC159F10101F3
:1015C000D890583759370101D89058375937000EFD
:1015D00001015825F66E080E5921F76E0900010128
:1015E000F5CF04F109000101F5CF05F10900010172
:1015F000F5CF06F10A000101F5CF07F16EC100F148
:101600006FC101F170C102F171C103F142EC26F02A
:1016100003C111F102C110F101C10FF100C10EF1BE
:101620000A0E01010101126F000E0101136F000E7D
:101630000101146F000E0101156F07EC2AF0010182
:1016400001010E51300F010101017E6F51C1D9FF1F
:1016500052C1DAFF01017EC1DFFF01010101514BDF
:10166000522B010101017C07D8A07D0701017C29D3
:10167000D8B47D29D8A49DD7010153C1F6FF01013B
:1016800054C1F7FF01010101534B542B0800010124
:10169000F5CF7EF101017E6755EF04F051C1D9FF0E
:1016A00052C1DAFF000EDF6E12000001000E0001D1
:1016B00000018A6F0001750E0001896FF1EF11F0D2
:1016C000000100019E51250AD8B40DD071C0D9FF88
:1016D00072C0DAFF00019EC0DFFF00010001714B04
:1016E000722BF1EF11F0000E00010001986F000E57
:1016F0000001976F000E00010001946F000E0001C1
:10170000936F07D000010001938500010001734B26
:10171000742B000173C0F6FF000174C0F7FF0800CE
:10172000F550300AD8B4EED7000173C0F6FF0001BF
:1017300074C0F7FF0800F5CF11F051EC33F0D8A0DA
:1017400043D0000E00010001986F000E0001976F5A
:1017500097C021F098C022F0000E246E0A0E236E6E
:1017600063EC32F021C097F022C098F0000173C002
:10177000F6FF000174C0F7FF0800F5CF78F0D00E37
:10178000000178250001796F000100017A6BFF0EDE
:101790007A230001795100010001972700017A5155
:1017A00000010001982300010001734B742B00011C
:1017B00073C0F6FF000174C0F7FF0800F5CF11F009
:1017C00051EC33F0D8B0C4D7000173C0F6FF00016C
:1017D00074C0F7FF0800F5502E0AD8A43FD00001CE
:1017E0000001948D00010001734B742B000E000169
:1017F00000019D6F000E00019C6F22D09CC021F063
:101800009DC022F0000E246E0A0E236E63EC32F0AF
:10181000000173C0F6FF000174C0F7FF0800F55027
:101820002126000E2222D00E2124000100019C6FEF
:10183000FF0E222000019D6F00010001734B742BED
:10184000000173C0F6FF000174C0F7FF0800F5CF78
:1018500011F051EC33F0D8A010D0D0D7000E000119
:1018600000019D6F000E00019C6F00010001948932
:1018700004D00001000194851ED0000173C0F6FF62
:10188000000174C0F7FF00010001734B742B0800C6
:101890000001F5CF9EF000019E51000AD8B403EF7D
:1018A00012F0640AD8B407D0020AD8B4E2D70F0AFB
:1018B000D8A4F1EF11F0070E000100019415D8B47F
:1018C000B6D30001000194A907D0000E0001000169
:1018D0009D6F060E00019C6F89C0D9FF8AC0DAFF98
:1018E0000001DECF99F00001DECF9AF00001DDCFDC
:1018F0009BF0030E000100018927000E00018A23DE
:10190000000100019B51800A800F07E1000E0001D9
:101910009A5D03E1000E0001995DD8B012D099C024
:1019200011F09AC012F09BC013F03EEC33F013C0DC
:101930009BF012C09AF011C099F0030E0001000153
:101940009313000E00010001966F000E0001956FC9
:101950007F0E000100019B1500019A1100019911F1
:10196000D8B499D0820E0001786FFF0E796F000114
:1019700099C07AF000019AC07BF000019BC07CF016
:1019800000019CC07DF0100E06D00001D8907D3380
:101990007C337B337A33E82EF8D700017A5100018B
:1019A000782500010001956F00010001000E7921EA
:1019B000966F000100019507D8A0960795C021F009
:1019C00096C022F0000E246E030E236E63EC32F0FC
:1019D00021C095F022C096F095C018F096C019F07D
:1019E000000E1B6E0A0E1A6E66EC2CF018C095F0F5
:1019F00019C096F00001000196AF05D0000100016A
:101A00009507D8A096070001000195510008476E80
:101A100014EC15F049C08DF048C08CF047C08BF035
:101A20000001000E00010001616F00018B0E00013A
:101A3000606F99C062F09AC063F09BC064F0EDECF7
:101A400031F08BC011F08CC012F08DC013F0000E7D
:101A5000146E800E156E3F0E166E1EEC2CF0D8B074
:101A600006D0000100019507D8A0960714D08BC0BE
:101A700011F08CC012F08DC013F0000E146E200E09
:101A8000156E410E166E1EEC2CF0D8A004D000018D
:101A90000001954B962B000100019D51800A800F9B
:101AA0000D0ED8B49C5DD8B015D00001000E000119
:101AB00000016D6F0001990E00016C6F9CC047F032
:101AC00099EC1AF049C070F048C06FF047C06EF052
:101AD0000BEC32F0000100019651800A800F0A0ED3
:101AE000D8B4955DD8B022D07F0E000100019B15BF
:101AF00000019A1100019911D8B467D099C027F05C
:101B00009AC028F09BC029F02BEC29F02A5027100E
:101B100028102910D8A459D0000100019651800A3C
:101B2000800F020ED8B4955DD8A04FD08BC011F0B5
:101B30008CC012F08DC013F0700E146E890E156EED
:101B4000400E166E1EEC2CF0D8B003D00001F70E3C
:101B500002D00001F80E00019527FF0E0001962328
:101B600095C047F014EC15F049C08DF048C08CF0DA
:101B700047C08BF099C011F09AC012F09BC013F0CF
:101B80008BC014F08CC015F08DC016F013EC24F04F
:101B900014C084F013C083F012C082F011C081F031
:101BA00081C08EF082C08FF083C090F084C091F02D
:101BB000000E00010001996F000E000100019A6FF4
:101BC000000E000100019B6F2FD099C027F09AC032
:101BD00028F09BC029F02BEC29F02AC091F029C0F5
:101BE00090F028C08FF027C08EF00001000E2E6EFE
:101BF0000001990E2D6E8EC019F08FC01AF090C0A2
:101C00001BF091C01CF058EC2FF01BC031F01AC033
:101C100030F019C02FF0CFEC31F0000E00010001C0
:101C2000966F000E0001956F0001786F010E0001A4
:101C300000019E6F00017851000100019E510A0AC7
:101C4000D8B421D0000100019E51040D000EF324F0
:101C5000F66E080EF420F76E0900F5500001000141
:101C60008E5D0900F55000018F590900F550000103
:101C700090590900F55000019159D8A004D00001F5
:101C800000019E2BD9D700019EC078F00001796B2E
:101C900078BF7907000100019C51000178270001FD
:101CA00000019D51000179230001000195510001BF
:101CB0007827000100019651000179230001785135
:101CC00000010001975F0001795100010001985B5C
:101CD000000100019D519C11D8B405D00001000104
:101CE0009707D8A09807030E000100019315000183
:101CF000786F000E0001000194150001796F00015A
:101D000079517811D8B405D0000100019707D8A007
:101D100098070001000193B510D029D071C0D9FFF8
:101D200072C0DAFF300EDF6E00010001714B722BC2
:101D3000000100019707D8A0980700010001985101
:101D4000800A800F010ED8B4975DD8A070D0E6D776
:101D500071C0D9FF72C0DAFF200EDF6E00010001F2
:101D6000714B722B000100019707D8A09807000162
:101D700000019851800A800F010ED8B4975DD8B049
:101D8000E7D7030E0001000193150001786F000EE4
:101D90000001000194150001796F0001795178115B
:101DA000D8B445D071C0D9FF72C0DAFF2D0E3AD039
:101DB0008EC011F08FC012F090C013F091C014F0DB
:101DC000000100019E51040D000EF324F66E080E72
:101DD000F420F76E0900F5CF15F00900F5CF16F0E5
:101DE0000900F5CF17F00A00F5CF18F03AEC2DF006
:101DF00011C085F012C086F085C011F086C012F0C7
:101E0000000E146E0A0E136E85EC30F011C085F0D2
:101E100012C086F0000100018551300F71C0D9FF5A
:101E200072C0DAFFDF6E00010001714B722B0001FE
:101E300000019E0700019E29D8B410D0B9D771C007
:101E4000D9FF72C0DAFF300EDF6E00010001714B66
:101E5000722B000100019507D8A096070001000130
:101E60009651800A800F010ED8B4955DD8B0E7D79F
:101E7000000100019D51800A800F090ED8B49C5DBD
:101E8000D8A009D00001786F080E000100019E6FF4
:101E90000001785102D09CC09EF0000100019E51CB
:101EA000000100019C5F000E00019EBFFF0E0001BB
:101EB00000019D5B000100019E51D8B40AD071C0A1
:101EC000D9FF72C0DAFF2E0EDF6E00010001714BE8
:101ED000722B9EC047F014EC15F049C080F048C04A
:101EE0007FF047C07EF099C039F09AC03AF09BC0AD
:101EF0003BF07EC036F07FC037F080C038F0BAECDF
:101F000025F038C029F037C028F036C027F02BEC78
:101F100029F02AC091F029C090F028C08FF027C086
:101F20008EF067D08EC011F08FC012F090C013F009
:101F300091C014F0000100019E51040D000EF32425
:101F4000F66E080EF420F76E0900F5CF15F00900C3
:101F5000F5CF16F00900F5CF17F00A00F5CF18F00D
:101F60003AEC2DF011C087F012C088F087C011F054
:101F700088C012F0000E146E0A0E136E85EC30F05D
:101F800011C087F012C088F0000100018751300FA6
:101F900071C0D9FF72C0DAFFDF6E00010001714B22
:101FA000722B8EC01FF08FC020F090C021F091C026
:101FB00022F0000100019E51040D000EF324F66E84
:101FC000080EF420F76E0900F5CF23F00900F5CFD5
:101FD00024F00900F5CF25F00A00F5CF26F0F1EC4A
:101FE0002EF022C091F021C090F020C08FF01FC0D1
:101FF0008EF0000100019E0700019E29D8B410D088
:1020000091D771C0D9FF72C0DAFF300EDF6E0001C8
:102010000001714B722B000100019C07D8A09D07A5
:10202000000100019D519C11D8B4DBD1EAD789C0D1
:10203000D9FF8AC0DAFF0001DECF8EF00001DDCFCC
:102040008FF00001000E00018FBFFF0E0001906FA6
:102050000001916F020E000100018927000E0001AE
:102060008A230001000191AF14D0030E000100018A
:10207000931300010001911F0001901F00018F1FA9
:1020800000018E6D000E00018F23000190230001DE
:102090009123000100019D519C11D8A40CD0000196
:1020A000000191518E118F119011D8A404D000011C
:1020B00000019C4B9D2B0001786F010E0001000177
:1020C0009E6F00017851000100019E510A0AD8B4A8
:1020D00021D0000100019E51040D000EF324F66E84
:1020E000080EF420F76E0900F550000100018E5D26
:1020F0000900F55000018F590900F5500001905971
:102100000900F55000019159D8A004D00001000148
:102110009E2BD9D7800E000100019EBF7F0E786FE5
:10212000000100019C51000100019E5D00010001C1
:102130009D51800A00017859D8B003D09CC09EF010
:1021400020D0000100019D51800A0001786F00013C
:1021500000019E51000100019C5D800E0001000104
:102160009EBF7F0E00017859D8B00BD0000100014E
:102170009E51000100019C6F00019D6B00019CBFFE
:102180009D070001000198519711D8B416D0030E95
:102190000001000193150001786F000E000100019D
:1021A00094150001796F000179517811D8B405D0E8
:1021B000000100019707D8A098070001000194AD25
:1021C00028D0000100019D51800A0001786F0001B4
:1021D00000019751000100019C5D00010001985130
:1021E000800A00017859D8B00DD0000100019C513F
:1021F00000010001975F000100019D5100010001F5
:10220000985B07D0000E00010001986F000E0001DE
:10221000976F800E000100019EBF7F0E786F000156
:1022200000019751000100019E5D000100019851DD
:10223000800A00017859D8B00ED0000100019E51EB
:1022400000010001975F000E00019EBFFF0E00011C
:102250000001985B07D0000E00010001986F000E8E
:102260000001976F0001000193A531D0030E00011A
:10227000000193150001786F000E00010001941514
:102280000001796F000179517811D8B40AD071C07A
:10229000D9FF72C0DAFF2D0EDF6E00010001714B15
:1022A000722B0001000198519711D8B48FD071C0E2
:1022B000D9FF72C0DAFF300EDF6E00010001714BF2
:1022C000722B000100019707D8A09807EBD70001F7
:1022D000000198519711D8B414D071C0D9FF72C0C1
:1022E000DAFF200EDF6E00010001714B722B00013E
:1022F00000019707D8A09807000198519711D8A41A
:10230000ECD7030E0001000193150001786F000E59
:102310000001000194150001796F000179517811D5
:10232000D8B454D071C0D9FF72C0DAFF2D0EDF6E61
:1023300049D000019CC078F000019DC079F00001F7
:10234000D890783779370001D89078377937000EF0
:1023500000017825F66E080E7921F76E0900F5CF99
:1023600015F00900F5CF16F00900F5CF17F00A00B7
:10237000F5CF18F08EC011F08FC012F090C013F09E
:1023800091C014F03AEC2DF014C022F013C021F0EB
:1023900012C020F011C01FF00A0E236E000E246E32
:1023A000000E256E000E266EF1EC2EF01F50300F41
:1023B000000100019E6F71C0D9FF72C0DAFF0001F9
:1023C0009EC0DFFF00010001714B722B0001000174
:1023D0009C07D8A09D0700019C29D8B49D29D8A4AA
:1023E000A8D7000173C0F6FF000174C0F7FF000119
:1023F0000001734B742B08000001F5CF9EF0000123
:102400009E6760EF0BF071C0D9FF72C0DAFF000E5B
:10241000DF6E12000101010127AF79D10101010135
:10242000276D010101012751800A120FD8A0DFD0CA
:10243000000E01010101136F030E0101126F000E66
:10244000010101010A6F0A0E0101096F000E01016D
:102450000101036F640E0101026F010101012751A7
:1024600001010101006F0101016B010100BF0107C2
:10247000B4EC28F0010100C107F1010101C108F12C
:10248000A4EC24F0090E010101010725010101015D
:10249000106F000E0101010108210101116F8AEC8A
:1024A0002FF0280E010101011025F66E080E010122
:1024B0001121F76E0900F5CF2AF10900F5CF2BF1B4
:1024C0000900F5CF2CF12CC11BF12BC11AF12AC147
:1024D00019F1000E01010101136F030E0101126FCA
:1024E000000E010101010A6F640E0101096F010173
:1024F0000101275101010101076F0101086B010171
:1025000007BF0807A4EC24F0120E01010101072502
:1025100001010101106F000E0101010108210101FB
:10252000116F8AEC2FF0280E010101011025F66EC3
:10253000080E01011121F76E0900F5CF2DF10900F8
:10254000F5CF2EF10900F5CF2FF12FC118F12EC1D3
:1025500017F12DC116F1E1EC1CF018C132F117C1D1
:1025600031F116C130F130C116F131C117F132C16C
:1025700018F1000E01010101136F030E0101126F2A
:10258000000E01010101036F0A0E0101026F01013A
:102590000101275101010101006F0101016B0101DE
:1025A00000BF0107B4EC28F0010100C110F10101E6
:1025B00001C111F18AEC2FF0280E01010101102553
:1025C000F66E080E01011121F76E0900F5CF2AF110
:1025D0000900F5CF2BF10900F5CF2CF12CC11BF12F
:1025E0002BC11AF12AC119F1E1EC1CF0FCD1010157
:1025F00001012751800A750FD8A080D0000E01017B
:102600000101136F030E0101126F000E01010101A0
:102610000A6F0A0E0101096F010101012751010131
:102620000101076F0101086B010107BF0807A4EC56
:1026300024F0090E01010101072501010101106FBC
:10264000000E0101010108210101116F8AEC2FF038
:10265000280E010101011025F66E080E010111215D
:10266000F76E0900F5CF2AF10900F5CF2BF109002B
:10267000F5CF2CF12CC118F12BC117F12AC116F19D
:10268000000E01010101136F030E0101126F000E14
:1026900001010101036F0A0E0101026F0101010135
:1026A000275101010101006F0101016B010100BF10
:1026B0000107B4EC28F0010100C110F1010101C1D2
:1026C00011F18AEC2FF0280E010101011025F66EA0
:1026D000080E01011121F76E0900F5CF2DF1090057
:1026E000F5CF2EF10900F5CF2FF12FC11BF12EC12F
:1026F0001AF12DC119F1E1EC1CF075D101010101B4
:102700002751030D280EF324F66E080E7BD101012C
:1027100001012751800A120FD8A0DFD0000E01015D
:102720000101136F030E0101126F000E010101017F
:102730000A6F0A0E0101096F000E01010101036F0A
:10274000640E0101026F0101010127510101010124
:10275000006F0101016B010100BF0107B4EC28F01B
:10276000010100C107F1010101C108F1A4EC24F04D
:10277000090E01010101072501010101106F000E81
:102780000101010108210101116F8AEC2FF04F0EA8
:10279000010101011025F66E080E01011121F76EED
:1027A0000900F5CF2AF10900F5CF2BF10900F5CF8B
:1027B0002CF12CC11BF12BC11AF12AC119F1000E09
:1027C00001010101136F030E0101126F000E0101DF
:1027D00001010A6F640E0101096F01010101275116
:1027E00001010101076F0101086B010107BF080723
:1027F000A4EC24F0120E01010101072501010101E1
:10280000106F000E0101010108210101116F8AEC16
:102810002FF04F0E010101011025F66E080E010187
:102820001121F76E0900F5CF2DF10900F5CF2EF13A
:102830000900F5CF2FF12FC118F12EC117F12DC1CD
:1028400016F1E1EC1CF018C132F117C131F116C1DB
:1028500030F130C116F131C117F132C118F1000E5B
:1028600001010101136F030E0101126F000E01013E
:102870000101036F0A0E0101026F010101012751DD
:1028800001010101006F0101016B010100BF01079E
:10289000B4EC28F0010100C110F1010101C111F1F6
:1028A0008AEC2FF04F0E010101011025F66E080E83
:1028B00001011121F76E0900F5CF2AF10900F5CFCA
:1028C0002BF10900F5CF2CF12CC11BF12BC11AF112
:1028D0002AC119F1E1EC1CF086D001010101275158
:1028E000800A750FD8A086D0000E01010101136F78
:1028F000030E0101126F000E010101010A6F0A0EA1
:102900000101096F01010101275101010101076F57
:102910000101086B010107BF0807A4EC24F0090EB0
:1029200001010101072501010101106F000E0101E4
:10293000010108210101116F8AEC2FF04F0E0101F6
:1029400001011025F66E080E01011121F76E090034
:10295000F5CF2AF10900F5CF2BF10900F5CF2CF1C5
:102960002CC118F12BC117F12AC116F1000E01017B
:102970000101136F030E0101126F000E010101012D
:10298000036F0A0E0101026F0101010127510101CC
:102990000101006F0101016B010100BF0107B4ECEF
:1029A00028F0010100C110F1010101C111F18AEC0F
:1029B0002FF04F0E010101011025F66E080E0101E6
:1029C0001121F76E0900F5CF2DF10900F5CF2EF199
:1029D0000900F5CF2FF12FC11BF12EC11AF12DC126
:1029E00019F1E1EC1CF018C129F117C128F116C149
:1029F00027F119D0010101012751030D4F0EF324D6
:102A0000F66E080EF420F76E0900F5CF2AF10900E2
:102A1000F5CF2BF10900F5CF2CF12CC129F12BC1F9
:102A200028F12AC127F1120047AE08D1476C475060
:102A3000800A120FD8A09DD0000E246E030E236EC4
:102A4000000E1B6E0A0E1A6E000E146E640E136ECC
:102A50004750116E126A11BE12067AEC2EF011C0A8
:102A600018F012C019F066EC2CF0090E1824216E33
:102A7000000E1920226E63EC32F0280E2124F66E2F
:102A8000080E2220F76E0900F5CF60F00900F5CF9F
:102A900061F00900F5CF62F062C03BF061C03AF02E
:102AA00060C039F0000E246E030E236E000E1B6E04
:102AB000640E1A6E4750186E196A18BE190666EC35
:102AC0002CF0120E1824216E000E1920226E63ECD9
:102AD00032F0280E2124F66E080E2220F76E09002F
:102AE000F5CF63F00900F5CF64F00900F5CF65F08C
:102AF00065C038F064C037F063C036F0BAEC25F03A
:102B000038C068F037C067F036C066F066C036F08F
:102B100067C037F068C038F0000E246E030E236ED5
:102B2000000E146E0A0E136E4750116E126A11BE1B
:102B300012067AEC2EF011C021F012C022F063ECE4
:102B400032F0280E2124F66E080E2220F76E0900BE
:102B5000F5CF60F00900F5CF61F00900F5CF62F024
:102B600062C03BF061C03AF060C039F0BAEC25F0C9
:102B700064D14750800A750FD8A059D0000E246E3A
:102B8000030E236E000E1B6E0A0E1A6E4750186E4F
:102B9000196A18BE190666EC2CF0090E1824216E6D
:102BA000000E1920226E63EC32F0280E2124F66EFE
:102BB000080E2220F76E0900F5CF60F00900F5CF6E
:102BC00061F00900F5CF62F062C038F061C037F003
:102BD00060C036F0000E246E030E236E000E146EDD
:102BE0000A0E136E4750116E126A11BE12067AEC6D
:102BF0002EF011C021F012C022F063EC32F0280E4A
:102C00002124F66E080E2220F76E0900F5CF63F03E
:102C10000900F5CF64F00900F5CF65F065C03BF021
:102C200064C03AF063C039F0BAEC25F006D14750E1
:102C3000030D280EF324F66E080E0CD14750800ABF
:102C4000120FD8A09DD0000E246E030E236E000E2E
:102C50001B6E0A0E1A6E000E146E640E136E475031
:102C6000116E126A11BE12067AEC2EF011C018F025
:102C700012C019F066EC2CF0090E1824216E000E1B
:102C80001920226E63EC32F04F0E2124F66E080EEE
:102C90002220F76E0900F5CF60F00900F5CF61F052
:102CA0000900F5CF62F062C03BF061C03AF060C04D
:102CB00039F0000E246E030E236E000E1B6E640EA0
:102CC0001A6E4750186E196A18BE190666EC2CF079
:102CD000120E1824216E000E1920226E63EC32F0C1
:102CE0004F0E2124F66E080E2220F76E0900F5CF54
:102CF00063F00900F5CF64F00900F5CF65F065C019
:102D000038F064C037F063C036F0BAEC25F038C054
:102D100068F037C067F036C066F066C036F067C04E
:102D200037F068C038F0000E246E030E236E000EDC
:102D3000146E0A0E136E4750116E126A11BE1206FF
:102D40007AEC2EF011C021F012C022F063EC32F0C8
:102D50004F0E2124F66E080E2220F76E0900F5CFE3
:102D600060F00900F5CF61F00900F5CF62F062C0B4
:102D70003BF061C03AF060C039F0BAEC25F05DD0AC
:102D80004750800A750FD8A05FD0000E246E030E46
:102D9000236E000E1B6E0A0E1A6E4750186E196ACB
:102DA00018BE190666EC2CF0090E1824216E000ED0
:102DB0001920226E63EC32F04F0E2124F66E080EBD
:102DC0002220F76E0900F5CF60F00900F5CF61F021
:102DD0000900F5CF62F062C038F061C037F060C022
:102DE00036F0000E246E030E236E000E146E0A0ED3
:102DF000136E4750116E126A11BE12067AEC2EF055
:102E000011C021F012C022F063EC32F04F0E2124E9
:102E1000F66E080E2220F76E0900F5CF63F0090068
:102E2000F5CF64F00900F5CF65F065C03BF064C0F4
:102E30003AF063C039F0BAEC25F038C049F037C039
:102E400048F036C047F017D04750030D4F0EF3241B
:102E5000F66E080EF420F76E0900F5CF60F0090059
:102E6000F5CF61F00900F5CF62F062C049F061C0B2
:102E700048F060C047F012006D0E010101012765A6
:102E8000EDD0000E01010101136F030E0101126F5D
:102E9000000E010101010A6F0A0E0101096F000E07
:102EA00001010101036F640E0101026F01010101C3
:102EB00027C100F101010101016BB4EC28F001010F
:102EC00000C107F1010101C108F1A4EC24F0090ED1
:102ED00001010101072501010101106F000E01012F
:102EE000010108210101116F8AEC2FF0280E010168
:102EF00001011025F66E080E01011121F76E09007F
:102F0000F5CF2AF10900F5CF2BF10900F5CF2CF10F
:102F10002CC11BF12BC11AF12AC119F1000E0101BC
:102F20000101136F030E0101126F000E0101010177
:102F30000A6F640E0101096F0101010127C107F148
:102F400001010101086BA4EC24F0120E0101010142
:102F5000072501010101106F000E01010101082187
:102F60000101116F8AEC2FF0280E010101011025DB
:102F7000F66E080E01011121F76E0900F5CF2DF153
:102F80000900F5CF2EF10900F5CF2FF12FC118F16F
:102F90002EC117F12DC116F1E1EC1CF018C135F16D
:102FA00017C134F116C133F1000E01010101136F95
:102FB000030E0101126F000E01010101036F0A0EE1
:102FC0000101026F0101010127C100F101010101AD
:102FD000016BB4EC28F0010100C110F1010101C145
:102FE00011F18AEC2FF0280E010101011025F66E77
:102FF000080E01011121F76E0900F5CF2AF1090031
:10300000F5CF2BF10900F5CF2CF12CC11BF12BC111
:103010001AF12AC119F133C116F134C117F135C1C2
:1030200018F1E1EC1CF018C132F117C131F116C1F1
:1030300030F130C116F131C117F132C118F1000E73
:1030400001010101196F000E010101011A6F3F0E0C
:10305000010101011B6FE1EC1CF0BED00A0E010161
:103060000101276592D0000E01010101136F030ECB
:103070000101126F000E01010101036F0A0E01012F
:10308000026F0101010127C100F101010101016B82
:10309000B4EC28F0010100C110F1010101C111F1EE
:1030A0008AEC2FF0280E010101011025F66E080EA2
:1030B00001011121F76E0900F5CF2AF10900F5CFC2
:1030C0002BF10900F5CF2CF12CC11BF12BC11AF10A
:1030D0002AC119F1000E01010101136F030E010154
:1030E000126F000E010101010A6F0A0E0101096F42
:1030F0000101010127C107F101010101086BA4ECE5
:1031000024F0090E01010101072501010101106FE1
:10311000000E0101010108210101116F8AEC2FF05D
:10312000280E010101011025F66E080E0101112182
:10313000F76E0900F5CF2DF10900F5CF2EF109004A
:10314000F5CF2FF12FC118F12EC117F12DC116F1B6
:10315000E1EC1CF018C135F117C134F116C133F19F
:1031600033C116F134C117F135C118F1000E010158
:103170000101196F000E010101011A6F3F0E0101DB
:1031800001011B6FE1EC1CF027D001010101275167
:10319000030D280EF324F66E080EF420F76E0900D6
:1031A000F5CF2AF10900F5CF2BF10900F5CF2CF16D
:1031B0002CC118F12BC117F12AC116F1000E010123
:1031C0000101196F000E010101011A6F3F0E01018B
:1031D00001011B6FE1EC1CF018C129F117C128F1A6
:1031E00016C127F112000F0E01013E6F010138C117
:1031F0003FF1010139C140F101013AC141F1010141
:103200003E290101426F05D00101D890413340337E
:103210003F330101422FF8D701013F510101010164
:10322000456F0F0E01013E6F01013BC13FF10101EE
:103230003CC140F101013DC141F101013E290101C3
:10324000426F05D00101D890413340333F33010133
:10325000422FF8D701013F5101010101446F0101E3
:1032600001014551D8B415D00101010144510101BA
:103270000101456115D0010101014551000801011D
:103280000101442501013E6F190E01013E5DD8A0E8
:1032900007D03BC138F13CC139F13DC13AF148D1C9
:1032A000010101014451D8B415D00101010145517A
:1032B00001010101446115D00101010144510008DF
:1032C00001010101452501013E6F190E01013E5D1D
:1032D000D8A007D038C138F139C139F13AC13AF133
:1032E00027D101013E6F060E01010101436F01016B
:1032F0003E51010101013AAF03D001010101438FA9
:10330000010101013DAF03D001010101438D010124
:103310000101398FFF0E010101013817FF0E010174
:1033200001013917000E010101013A1701010101E4
:103330003C8FFF0E010101013B17FF0E010101014E
:103340003C17000E010101013D170101010144512B
:103350000101010145612FD00101D89001013B37E6
:1033600001013C3701013D37010101014407010121
:1033700001014451010101014519D8B414D00101E2
:103380000101430701014351070BD8B40CD0E4D726
:103390000101D89001013A33010139330101383379
:1033A00001010101452B010101014451010101010C
:1033B0004563EED735D001010101455101010101FD
:1033C00044612ED00101D89001013837010139370D
:1033D00001013A3701010101450701010101445191
:1033E000010101014519D8B414D0010101014307BD
:1033F00001014351070BD8B40CD0E4D70101D89098
:1034000001013D3301013C3301013B330101010165
:10341000442B010101014451010101014563EED733
:103420000101010143AF18D0FF0E01010101381B5A
:10343000FF0E01010101391BFF0E010101013A1BC1
:10344000010E010101013827000E0101010139239C
:10345000000E010101013A230101010143AD18D021
:10346000FF0E010101013B1BFF0E010101013C1B8D
:10347000FF0E010101013D1B010E010101013B276E
:10348000000E010101013C23000E010101013D2359
:1034900001013E6F000E01010101436F01013E5128
:1034A000010101013851010101013B270101010125
:1034B0003951010101013C23010101013A5101018E
:1034C00001013D23010101013DAF20D0FF0E0101AB
:1034D00001013B1BFF0E010101013C1BFF0E01011D
:1034E00001013D1B010E010101013B27000E0101FD
:1034F00001013C23000E010101013D2301013E6F4A
:10350000010E01010101436F01013E513BC100F178
:103510003CC101F13DC102F145C103F143C104F1D8
:1035200030EC22F002C13AF101C139F100C138F1A9
:1035300012006D0E4764ABD0000E246E030E236E96
:10354000000E1B6E0A0E1A6E000E146E640E136EC1
:1035500047C011F0126A7AEC2EF011C018F012C0B8
:1035600019F066EC2CF0090E1824216E000E1920BB
:10357000226E63EC32F0280E2124F66E080E222013
:10358000F76E0900F5CF60F00900F5CF61F0090092
:10359000F5CF62F062C03BF061C03AF060C039F034
:1035A000000E246E030E236E000E1B6E640E1A6E48
:1035B00047C018F0196A66EC2CF0120E1824216E20
:1035C000000E1920226E63EC32F0280E2124F66ED4
:1035D000080E2220F76E0900F5CF63F00900F5CF41
:1035E00064F00900F5CF65F065C038F064C037F0CD
:1035F00063C036F0BAEC25F038C06BF037C06AF023
:1036000036C069F0000E246E030E236E000E146E99
:103610000A0E136E47C011F0126A7AEC2EF011C038
:1036200021F012C022F063EC32F0280E2124F66E55
:10363000080E2220F76E0900F5CF60F00900F5CFE3
:1036400061F00900F5CF62F062C03BF061C03AF072
:1036500060C039F069C036F06AC037F06BC038F02E
:10366000BAEC25F038C068F037C067F036C066F0B5
:1036700066C036F067C037F068C038F0000E396EAB
:10368000000E3A6E3F0E3B6EBAEC25F08BD00A0E60
:10369000476469D0000E246E030E236E000E146E74
:1036A0000A0E136E47C011F0126A7AEC2EF011C0A8
:1036B00021F012C022F063EC32F0280E2124F66EC5
:1036C000080E2220F76E0900F5CF60F00900F5CF53
:1036D00061F00900F5CF62F062C03BF061C03AF0E2
:1036E00060C039F0000E246E030E236E000E1B6EB8
:1036F0000A0E1A6E47C018F0196A66EC2CF0090E13
:103700001824216E000E1920226E63EC32F0280E70
:103710002124F66E080E2220F76E0900F5CF63F023
:103720000900F5CF64F00900F5CF65F065C038F009
:1037300064C037F063C036F0BAEC25F038C06BF0E7
:1037400037C06AF036C069F069C036F06AC037F039
:103750006BC038F0000E396E000E3A6E3F0E3B6EB5
:10376000BAEC25F01FD04750030D280EF324F66E57
:10377000080EF420F76E0900F5CF60F00900F5CFD0
:1037800061F00900F5CF62F062C038F061C037F037
:1037900060C036F0000E396E000E3A6E3F0E3B6E82
:1037A000BAEC25F038C049F037C048F036C047F0D1
:1037B00012000F0E0101066F010100C107F10101A6
:1037C00001C108F1010102C109F10101062901014C
:1037D0000A6F05D00101D89009330833073301017E
:1037E0000A2FF8D70101075101010101106F0101F2
:1037F000106701D0BED00F0E0101066F010103C199
:1038000007F1010104C108F1010105C109F101013C
:10381000062901010A6F05D00101D8900933083348
:10382000073301010A2FF8D70101075101010101F6
:103830000F6F01010F6701D09CD001010101018FC1
:10384000FF0E010101010017FF0E01010101011727
:10385000000E01010101021701010101048FFF0E99
:10386000010101010317FF0E010101010417000E00
:10387000010101010517000E010101010B6F000E8E
:1038800001010C6F000E01010D6F000E01010E6FA2
:103890007F0E01010101105F010101010F51980F1D
:1038A00001010101105F0101066F180E0101010104
:1038B0000F6F010106510101D89001010B37010181
:1038C0000C3701010D3701010E37010101010351D0
:1038D00001010101005D010101010451010101012A
:1038E0000159010101010551010101010259D8A04D
:1038F00015D001010101035101010101005F010126
:103900000101045101010101015B010101010551A6
:1039100001010101025B010101010B810101D8904C
:1039200001010037010101370101023701010101E5
:103930000F2FC1D70101010110AF16D00101010104
:103940001051800A970FD8A014D00101D89001011E
:103950000E3301010D3301010C3301010B33010161
:103960000101103FF2D724D0170E010101011065AB
:103970001BD0000E01010101006F000E0101016F5B
:10398000000E0101026F000E0101036F19D0010149
:10399000D89001010B3701010C3701010D370101EE
:1039A0000E37010101011007010101011067EFD776
:1039B0000BC100F10CC101F10DC102F10EC103F107
:1039C00012000F0E01011C6F010116C11DF1010152
:1039D00017C11EF1010118C11FF101011C290101CC
:1039E000206F05D00101D8901F331E331D33010114
:1039F000202FF8D701011D5101010101216F0101A3
:103A0000216701D021D00F0E01011C6F010119C1E6
:103A10001DF101011AC11EF101011BC11FF10101BC
:103A20001C290101206F05D00101D8901F331E33DE
:103A30001D330101202FF8D701011D5101010101A2
:103A4000266F010126670DD0000E01010101166FDE
:103A5000000E01010101176F000E01010101186F35
:103A6000A6D00101010126517B0F0101010121278F
:103A700018C126F101011B5101010101261B800E15
:103A800001010101261701010101178F0101010147
:103A90001A8FFF0E010101011917FF0E010101012B
:103AA0001A17000E010101011B17000E010101018F
:103AB000226F000E01010101236F000E01010101BF
:103AC000246F01011C6F070E01010101256F010127
:103AD0001C510101010116A112D00101010119516E
:103AE000010101012227010101011A510101010116
:103AF0002323010101011B510101010124230101C3
:103B0000D890010118330101173301011633010167
:103B1000D8900101193701011A3701011B37010142
:103B20000101252FD6D701011C6F090E01010101EA
:103B3000256F01011C510101010116A112D00101E3
:103B400001011951010101012227010101011A514D
:103B5000010101012323010101011B5101010101A7
:103B600024230101D8900101183301011733010109
:103B700016330101D89001012433010123330101DF
:103B8000223301010101252FD6D722C100F123C123
:103B900001F124C102F121C103F126C104F130EC8D
:103BA00022F002C118F101C117F100C116F1120093
:103BB0000101023501010335010101010C6F010111
:103BC0000C6701D0B7D001010535010106350101AF
:103BD00001010B6F01010B6701D0ACD001010101A4
:103BE000028FFF0E010101010017FF0E01010117F5
:103BF000FF0E01010217000E01010317010101016F
:103C0000058FFF0E010101010317FF0E01010417CB
:103C1000FF0E01010517000E01010617000E01013C
:103C20000101076F000E0101086F000E0101096F0D
:103C3000000E01010A6F7F0E010101010C5F0101FD
:103C400001010B51A00F010101010C5F0101066F81
:103C5000200E010101010B6F010106510101D890F5
:103C600001010737010108370101093701010A374E
:103C700001010101035101010101005D0101010187
:103C80000451010101010159010101010551010125
:103C9000010102590101010106510101010103590C
:103CA000D8A01BD001010101035101010101005FF6
:103CB00001010101045101010101015B0101010147
:103CC000055101010101025B0101010106510101E0
:103CD0000101035B0101010107810101D89001018C
:103CE00000370101013701010237010103370101EA
:103CF00001010B2FB3D7010101010CAF16D0010157
:103D000001010C51800A9F0FD8A014D00101D89056
:103D100001010A33010109330101083301010733AD
:103D2000010101010C3FF2D724D01F0E0101010156
:103D30000C651BD0000E01010101006F000E010196
:103D4000016F000E0101026F000E0101036F19D017
:103D50000101D89001010737010108370101093736
:103D600001010A37010101010C07010101010C6782
:103D7000EFD707C100F108C101F109C102F10AC181
:103D800003F112000F0E1F6E19C020F01AC021F0AF
:103D90001BC022F01F28236E04D0D890223221327B
:103DA0002032232EFAD72050266E0F0E1F6E1CC015
:103DB00020F01DC021F01EC022F01F28236E04D069
:103DC000D890223221322032232EFAD72050256E6D
:103DD0002650D8B40BD0255026600FD026500008AE
:103DE00025241F6E190E1F5CD8A007D01CC019F027
:103DF0001DC01AF01EC01BF0AAD02550D8B40BD09D
:103E0000265025600FD02550000826241F6E190E5D
:103E10001F5CD8A007D019C019F01AC01AF01BC037
:103E20001BF095D01F6E060E246E1F501BBE248EF5
:103E30001EBE248C1A8EFF0E1916FF0E1A16000EC7
:103E40001B161D8EFF0E1C16FF0E1D16000E1E16D5
:103E50002550266018D0D8901C361D361E362506F3
:103E600025502618D8B40BD024062450070BD8B4FC
:103E700006D0F1D7D8901B321A321932262A255093
:103E80002662F8D71AD02650256017D0D890193658
:103E90001A361B36260625502618D8B40BD0240611
:103EA0002450070BD8B406D0F1D7D8901E321D325B
:103EB0001C32252A25502662F8D724AE0CD0FF0EDE
:103EC000191AFF0E1A1AFF0E1B1A010E1926000EE0
:103ED0001A22000E1B2224AC0CD0FF0E1C1AFF0E5F
:103EE0001D1AFF0E1E1A010E1C26000E1D22000EAA
:103EF0001E221F6E000E246E1F5019501C261A50D1
:103F00001D221B501E221EAE10D0FF0E1C1AFF0ECB
:103F10001D1AFF0E1E1A010E1C26000E1D22000E79
:103F20001E221F6E010E246E1F501CC011F01DC0FA
:103F300012F01EC013F026C014F024C015F072EC6D
:103F40002AF013C01BF012C01AF011C019F01200B1
:103F50000F0E01012D6F010127C12EF1010128C1B2
:103F60002FF1010129C130F101012D290101316F2A
:103F700005D00101D89030332F332E330101312F7A
:103F8000F8D701012E5101010101366F0101366799
:103F900001D021D00F0E01012D6F01012AC12EF198
:103FA00001012BC12FF101012CC130F101012D299B
:103FB0000101316F05D00101D89030332F332E33FA
:103FC0000101312FF8D701012E5101010101376F95
:103FD000010137670DD0000E01010101276F000EAE
:103FE00001010101286F000E01010101296F93D029
:103FF000000E01010101336F000E01010101346F58
:10400000000E01010101356F010101013751890FD6
:1040100001010101365F29C137F101012C51010174
:104020000101371B800E0101010137170101010158
:10403000288FFF0E010101012717FF0E0101010169
:104040002817000E010101012917010101012B8F21
:10405000FF0E010101012A17FF0E010101012B17BB
:10406000000E010101012C1701012D6F180E010135
:104070000101326F01012D510101D8900101333747
:104080000101343701013537010101012A510101D4
:104090000101275D010101012B5101010101285995
:1040A000010101012C51010101012959D8A015D0AC
:1040B000010101012A5101010101275F01010101F3
:1040C0002B5101010101285B010101012C5101016A
:1040D0000101295B0101010133810101D890010136
:1040E0002737010128370101293701010101322F4A
:1040F000C3D733C100F134C101F135C102F136C17A
:1041000003F137C104F130EC22F002C129F101C101
:1041100028F100C127F112000F0E0001666F0001A7
:1041200060C067F0000161C068F0000162C069F022
:104130000001662900016A6F05D00001D89069333B
:104140006833673300016A2FF8D700016751000117
:1041500000016C6F00016C6701D021D00F0E0001CF
:10416000666F000163C067F0000164C068F0000181
:1041700065C069F00001662900016A6F05D0000181
:10418000D89069336833673300016A2FF8D700018C
:10419000675100010001706F000170670DD0000EC3
:1041A00000010001606F000E00010001616F000E50
:1041B00000010001626F93D0000E000100016D6FDD
:1041C000000E000100016E6F000E000100016F6F14
:1041D000000100017051890F000100016C5F62C095
:1041E00070F00001655100010001701B800E00019C
:1041F0000001701700010001618FFF0E0001000136
:104200006017FF0E000100016117000E00010001A0
:10421000621700010001648FFF0E000100016317A7
:10422000FF0E000100016417000E00010001651778
:104230000001666F180E000100016B6F00016651EE
:104240000001D89000016D3700016E3700016F3713
:1042500000010001635100010001605D00010001E7
:104260006451000100016159000100016551000124
:1042700000016259D8A015D000010001635100016E
:104280000001605F00010001645100010001615BF9
:1042900000010001655100010001625B00010001A5
:1042A0006D810001D8900001603700016137000185
:1042B0006237000100016B2FC3D76DC011F06EC0D3
:1042C00012F06FC013F06CC014F070C015F072ECF7
:1042D0002AF013C062F012C061F011C060F0120049
:1042E0000F0E0101376F010133C138F1010134C1F3
:1042F00039F1010135C13AF10101372901013B6F63
:1043000005D00101D8903A333933383301013B2FBE
:10431000F8D70101385101010101416F01014167E5
:1043200001D061D0170E0101376F010133C138F19F
:10433000010134C139F1010135C13AF101013729D7
:1043400001013B6F05D00101D8903A33393338333E
:1043500001013B2FF8D701013851010101013C6FE8
:1043600001010101348FFF0E010101013317FF0E1E
:10437000010101013417000E01010101351701018E
:1043800001013351010101013D6F0101010134516E
:1043900001013E6F0101355101013F6F0101406B89
:1043A0008E0E01010101415F0101010141AF16D0F3
:1043B000010101014151800A8F0FD8A014D00101E1
:1043C000D8900101403301013F3301013E33010127
:1043D0003D3301010101413FF2D724D0170E010105
:1043E000010141651BD0000E01010101336F000E78
:1043F0000101346F000E0101356F000E0101366FAF
:104400002ED00101D89001013D3701013E37010155
:104410003F3701014037010101014107010101015D
:104420004167EFD7010101013C51D8B410D001011F
:104430000101401F01013F1F01013E1F01013D6DB0
:10444000000E01013E2301013F23010140233DC134
:1044500033F13EC134F13FC135F140C136F11200B4
:10446000010101010351D8B409D00101010100513A
:104470000101011101010211D8A418D0000E01019F
:104480000101006F000E01010101016F000E010129
:104490000101026F91D001010101032B0101D890AC
:1044A000010102330101013301010033000E01015A
:1044B000010100150101056F000E01010101011547
:1044C0000101066FFE0E0101010102150101076FD6
:1044D0000101055106110711D8B418D0DCD701012C
:1044E0000101032B010E010101010027000E010152
:1044F00001010123000E0101010102230101D890F5
:10450000010102330101013301010033000E0101F9
:10451000010100150101056F000E010101010115E6
:104520000101066FFF0E0101010102150101076F74
:104530000101055106110711D8B40CD0D0D70101E3
:10454000010103070101D890010100370101013782
:10455000010102370101010101AFF1D701010101A0
:1045600003B103D001010101019F0101D890033380
:104570000101010103510101076F066B056B010188
:104580000551010101010013010106510101010161
:104590000113010107510101010102130101010190
:1045A0000451D8B403D001010101028F00C100F110
:1045B00001C101F102C102F1120001010101A75183
:1045C00001010101815D01010101A8510101010108
:1045D0008259D8A044D0000E01010101826F000E63
:1045E0000101816FC7EC26F03AC1B4F039C1B3F0D4
:1045F00038C1B2F001017F6F010E01010101036FAB
:1046000001017F510101806F010E01010101046F61
:1046100001018051AEEC2CF00101010E01010101FC
:10462000526F0101870E0101516F080E0101010156
:10463000546F880E0101536FB2C055F1B3C056F1EB
:10464000B4C057F14AEC04F00101010E010101016F
:10465000056F0101870E0101046F26EC2FF00101A7
:104660000101A95101010101835D01010101AA516B
:10467000010101018459D8A042D0000E01010101BD
:10468000846F000E0101836FCEEC2AF0010108C196
:10469000B5F0010109C1B6F00101010E01010101EE
:1046A000526F0101870E0101516F080E01010101D6
:1046B000546F760E0101536FB5C055F1B6C056F177
:1046C0004AEC04F001017F6F020E01010101036F4A
:1046D00001017F510101806F010E01010101046F91
:1046E00001018051AEEC2CF00101010E010101012C
:1046F000056F0101870E0101046F26EC2FF01200F7
:1047000001010101A75101010101815D01010101C7
:10471000A851010101018259D8A03DD0000E01012C
:104720000101826F000E0101816F3CEC28F049C04D
:10473000B4F048C0B3F047C0B2F000019F6F010E63
:10474000146E00019F510001A06F010E156E000153
:10475000A051E6EC2FF00101010E00010001726F83
:104760000101870E0001716F080E00010001746FD6
:10477000880E0001736FB2C075F0B3C076F0B4C09C
:1047800077F055EC0BF00101010E166E0101870E5A
:10479000156EB8EC32F001010101A95101010101CE
:1047A000835D01010101AA51010101018459D8A0D1
:1047B00039D0000E01010101846F000E0101836FE9
:1047C0003BEC2EF019C0B5F01AC0B6F00101010E95
:1047D00000010001726F0101870E0001716F080E68
:1047E00000010001746F760E0001736FB5C075F0A3
:1047F000B6C076F055EC0BF000019F6F020E146E00
:1048000000019F510001A06F010E156E0001A05123
:10481000E6EC2FF00101010E166E0101870E156EF8
:10482000B8EC32F012000F0E176E11C018F012C063
:1048300019F013C01AF017281B6E04D0D8901A3242
:10484000193218321B2EFAD71850216E216601D06A
:1048500061D00F0E176E14C018F015C019F016C0F5
:104860001AF017281B6E04D0D8901A321932183259
:104870001B2EFAD71850206E206601D04BD0128E16
:10488000FF0E1116FF0E1216000E1316158EFF0ED8
:104890001416FF0E1516000E1616000E1C6E000ED6
:1048A0001D6E000E1E6E000E1F6E7F0E215E2050CC
:1048B000980F215E176E180E206E1750D8901C3678
:1048C0001D361E361F361450115C155012581650E6
:1048D0001358D8A007D01450115E1550125A165014
:1048E000135A1C80D890113612361336202EE6D774
:1048F00021AE0DD02150800A970FD8A00BD0D890B0
:104900001F321E321D321C32213EF9D714D0170E31
:1049100021640FD0000E116E000E126E000E136E89
:10492000000E146E10D0D8901C361D361E361F3661
:1049300021062166F8D71CC011F01DC012F01EC060
:1049400013F01FC014F0120001010B6F000E0101E3
:1049500001010D6F01010B51010101010AAF0FD0DF
:1049600001010101096D01010A1FD8B00A2B0101E3
:104970000B6F010E010101010D6F01010B510101CE
:10498000010108AF0BD001010101076D0101081FF2
:10499000D8B0082B010E010101010D1B000E010111
:1049A00001010F6F000E01010E6F010101010A519B
:1049B0000911D8B443D001010B6F010E01010101AF
:1049C0000C6F01010B5109D0010101010101D890C7
:1049D00009370A37010101010C2B010101010AAF5E
:1049E000F3D7010101010101D8900E370F37010102
:1049F0000101095101010101075D010101010A5194
:104A0000010101010859D8A00FD00101010109518C
:104A100001010101075F010101010A5101010101C9
:104A2000085B010101010E81010101010101D89022
:104A30000A330933010101010C2FD3D70101010110
:104A40000D51D8B407D0010101010E6D01010F1FF6
:104A5000D8B00F2B0EC107F10FC108F11200000EE4
:104A6000956E0101036F000E01010101006F01014C
:104A7000035146EC32F0340E0101036FF10EE82EC3
:104A8000FED7032FFCD700D00101036F030E0101F5
:104A90000101016F0101035163EC33F00D0E0101BF
:104AA000036FFB0EE82EFED7032FFCD700D00101C9
:104AB000036F030E01010101016F0101035163EC5A
:104AC00033F01D0E0101036F910EE82EFED7032F68
:104AD000FCD70101036F030E01010101016F010108
:104AE000035163EC33F00101036F020E0101010178
:104AF000016F0101035163EC33F00101036F020EFA
:104B000001010101016F0101035163EC33F0010167
:104B1000036F080E01010101016F0101035163ECF4
:104B200033F00101036F000E01010101016F01016A
:104B3000035163EC33F00101036F0C0E010101011D
:104B4000016F0101035163EC33F00101036F000EAB
:104B500001010101016F0101035163EC33F0010117
:104B6000036F060E01010101016F0101035163ECA6
:104B700033F012000F0E3C6E36C03DF037C03EF0F1
:104B800038C03FF03C28406E04D0D8903F323E32CF
:104B90003D32402EFAD73D50416E416601D015D0CE
:104BA0000F0E3C6E39C03DF03AC03EF03BC03FF0C6
:104BB0003C28406E04D0D8903F323E323D32402EE9
:104BC000FAD73D50466E466607D0000E366E000E90
:104BD000376E000E386E55D046507B0F412638C0D8
:104BE00046F03B50461A800E4616378E3A8EFF0E20
:104BF0003916FF0E3A16000E3B16000E426E000EDE
:104C0000436E000E446E3C6E070E456E3C5036A05F
:104C100006D0395042263A5043223B504422D89085
:104C2000383237323632D89039363A363B36452E1E
:104C3000EED73C6E090E456E3C5036A006D039507A
:104C400042263A5043223B504422D89038323732E1
:104C50003632D890443243324232452EEED742C0EB
:104C600011F043C012F044C013F041C014F046C02C
:104C700015F072EC2AF013C038F012C037F011C0F2
:104C800036F01200000E01010101096F000E010152
:104C90000A6F000E01010B6F000E01010C6F010184
:104CA00001010751041105110611D8B467D00101A3
:104CB000086F010E010101010D6F010108510DD0B6
:104CC0000101D890010104370101053701010637C0
:104CD00001010737010101010D2B0101010107AF9E
:104CE000EFD70101D8900101093701010A3701010D
:104CF0000B3701010C3701010101045101010101D0
:104D0000005D01010101055101010101015901018C
:104D1000010106510101010102590101010107517F
:104D2000010101010359D8A01BD001010101045167
:104D300001010101005F01010101055101010101B2
:104D4000015B01010101065101010101025B010149
:104D50000101075101010101035B01010101098109
:104D60000101D89001010733010106330101053328
:104D700001010433010101010D2FB3D709C100F175
:104D80000AC101F10BC102F10CC103F11200000EC6
:104D9000010101013F6F000E01010101406F000E92
:104DA00001010101416F000EC2B2010E01013B6F12
:104DB000010E01013C6F01013B2B03D00101D89092
:104DC0003C3701013B2FFAD7000EC2B0010E0101A2
:104DD0003D6F010E01013E6F01013D2B03D001012A
:104DE000D8903E3701013D2FFAD701013E51010114
:104DF0003C11C212C2B2FED7C45001013C6F3B6BE2
:104E0000C35001013B2501010101086F000E0101A2
:104E10003C210101096FB8EC2EF00AC141F109C132
:104E200040F108C13FF1000E01010101196FA00E10
:104E3000010101011A6F400E010101011B6F3FC109
:104E400016F140C117F141C118F1E1EC1CF018C195
:104E500029F117C128F116C127F1C00E0101010186
:104E60002A6F7F0E010101012B6F440E0101010128
:104E70002C6FA8EC1FF029C141F128C140F127C1D6
:104E80003FF13FC138F140C139F141C13AF112005F
:104E90000101010102AF21D0010100C106F10101B0
:104EA00001C107F1010102C108F10101061F071F3D
:104EB000081F062B000E07230823000E01010625FC
:104EC00001010101006F000E010107210101016FC5
:104ED000800E010108210101026F0101010105AFEE
:104EE00021D0010103C106F1010104C107F1010153
:104EF00005C108F10101061F071F081F062B000E40
:104F000007230823000E0101062501010101036F9B
:104F1000000E010107210101046F800E010108212B
:104F20000101056F000E01010101001B000E0101CE
:104F30000101011B800E01010101021B000E010194
:104F40000101031B000E01010101041B800E010180
:104F50000101051B01010101035101010101005D76
:104F60000101010104510101010101590101010186
:104F70000551010101010259D8B002D0D89001D0E9
:104F8000D8801200133414341D6E1D6601D05AD01F
:104F9000163417341C6E1C6601D054D0138EFF0ECD
:104FA0001116FF0E1216FF0E1316000E1416168E93
:104FB000FF0E1416FF0E1516FF0E1616000E17160E
:104FC000000E186E000E196E000E1A6E000E1B6E8B
:104FD0007F0E1D5E1C50A00F1D5E176E200E1C6EF6
:104FE0001750D890183619361A361B361450115CE3
:104FF000155012581650135817501458D8A009D0ED
:105000001450115E1550125A1650135A1750145A54
:105010001880D89011361236133614361C2EE1D76C
:105020001DAE0DD01D50800A9F0FD8A00BD0D89078
:105030001B321A32193218321D3EF9D714D01F0E06
:105040001D640FD0000E116E000E126E000E136E56
:10505000000E146E10D0D890183619361A361B363A
:105060001D061D66F8D718C011F019C012F01AC03D
:1050700013F01BC014F01200000E00010001756F48
:10508000000E00010001766F000E00010001776F35
:10509000000EC2B2010E0001716F010E0001726FAD
:1050A0000001712B03D00001D89072370001712FDD
:1050B000FAD7000EC2B0010E0001736F010E00019D
:1050C000746F0001732B03D00001D8907437000176
:1050D000732FFAD70001745100017211C212C2B2CB
:1050E000FED7C4500001726F716BC350000171256F
:1050F000196E000E000172211A6EECEC30F01BC02C
:1051000077F01AC076F019C075F0000E396EA00E57
:105110003A6E400E3B6E75C036F076C037F077C001
:1051200038F0BAEC25F038C062F037C061F036C014
:1051300060F0C00E00010001636F7F0E00010001EE
:10514000646F440E00010001656F8CEC20F062C0BA
:1051500077F061C076F060C075F075C047F076C03A
:1051600048F077C049F012000101046F000E010100
:105170000101066F010104510101010101AF0FD0CE
:1051800001010101006D0101011FD8B0012B0101D6
:10519000046F010E01010101066F010104510101BB
:1051A000010103AF07D001010101026D0101031FDD
:1051B000D8B0032B0101010103510211D8B43AD038
:1051C0000101046F010E01010101056F010104518C
:1051D00009D0010101010101D89002370337010113
:1051E0000101052B0101010103AFF3D70101010109
:1051F000025101010101005D0101010103510101A1
:1052000001010159D8A00CD0010101010251010195
:105210000101005F01010101035101010101015B75
:10522000010101010101D8900333023301010101A1
:10523000052FDCD7010101010651D8B407D00101C7
:105240000101006D0101011FD8B0012B00C100F167
:1052500001C101F112000F0E2B6E27C02CF028C0E7
:105260002DF029C02EF02B282F6E04D0D8902E328E
:105270002D322C322F2EFAD72C50356E356601D0B8
:1052800035D0170E2B6E27C02CF028C02DF029C06A
:105290002EF02B282F6E04D0D8902E322D322C32A7
:1052A0002F2EFAD72C50306E288EFF0E2716FF0EA9
:1052B0002816000E29162750316E2850326E2950BC
:1052C000336E346A8E0E355E35AE0DD03550800AA1
:1052D0008F0FD8A00BD0D8903432333232323132E3
:1052E000353EF9D714D0170E35640FD0000E276E57
:1052F000000E286E000E296E000E2A6E1BD0D8906C
:10530000313632363336343635063566F8D73050D6
:10531000D8B408D0341E331E321E316C000E322237
:105320003322342231C027F032C028F033C029F0B4
:1053300034C02AF0120001010C6F000E01010101BE
:10534000116F01010C5101010C6F8E0E0101010161
:10535000106F01010C51010101010BAF26D00101B9
:1053600001010B1F01010A1F0101091F0101086D45
:10537000000E0101092301010A2301010B23010190
:105380000C6F010E01010101116F01010C510DD0D3
:105390000101D89001010B3301010A3301010933E6
:1053A0000101083301010101102B000E010101016F
:1053B000081501010C6F000E010101010915010121
:1053C0000D6F000E010101010A1501010E6FFF0EA4
:1053D000010101010B1501010F6F01010F510C11AA
:1053E0000D110E11D8A4D4D708C100F109C101F1E3
:1053F0000AC102F110C103F111C104F130EC22F035
:1054000002C10AF101C109F100C108F11200010154
:1054100001011551121113111411D8B45AD0010100
:10542000166F010E01010101176F010116510DD018
:105430000101D8900101123701011337010114371E
:105440000101153701010101172B0101010115AF00
:10545000EFD7010101011251010101010E5D0101AE
:1054600001011351010101010F5901010101145101
:105470000101010110590101010115510101010151
:105480001159D8A018D001010101125101010101E7
:105490000E5F010101011351010101010F5B0101C7
:1054A0000101145101010101105B010101011551BC
:1054B00001010101115B0101D890010115330101C6
:1054C0001433010113330101123301010101172FBC
:1054D000C0D70EC10EF10FC10FF110C110F111C1F3
:1054E00011F112001450D8B405D01150121013103D
:1054F000D8A40CD0000E116E000E126E000E136EAA
:105500004CD0142AD890133212321132000E1114DA
:10551000166E000E1214176EFE0E1314186E16502F
:1055200017101810D8B40CD0ECD7142A010E11267D
:10553000000E1222000E1322D890133212321132B2
:10554000000E1114166E000E1214176EFF0E1314B7
:10555000186E165017101810D8B406D0E6D71406D7
:10556000D89011361236133612AEF9D714A0129E07
:10557000D89014321450186E176A166A1650111209
:1055800017501212185013121550D8A4138E11C0B0
:1055900011F012C012F013C013F012008982060E2F
:1055A000E82EFED700D0899280A4FED7CD8080B4AB
:1055B000FED7CD90CECF0AF1CFCF0BF1D89001011D
:1055C00001010B31010101010F6F010101010A31DC
:1055D00001010E6FA10E010101010E5D5A0E0101C4
:1055E0000F59D8B014D00EC100F10FC101F1000E57
:1055F00001010101036F3A0E0101026F7BEC2BF0F8
:10560000010100C10CF1010101C10DF10ED0740EB8
:10561000010101010E5D000E01010F59000E010193
:1056200001010D6F000E01010C6F000E010101015F
:105630000F6F000E01010E6F000ECF6E000ECE6ECA
:105640000CC108F10DC109F11200000E01010101A8
:10565000466FC20E0101476F010E0101486F000E37
:105660000101496F949C948E46C108F147C109F12C
:1056700048C10AF149C10BF19BEC29F00AC12CF198
:1056800009C12BF108C12AF1500E01010101276F58
:10569000430E01010101286F450E01010101296F2F
:1056A000A8EC1FF029C13AF128C139F127C138F11E
:1056B000000E010101013B6F800E010101013C6FF1
:1056C000BF0E010101013D6FF3EC18F03AC14CF13E
:1056D00039C14BF138C14AF14AC133F14BC134F100
:1056E0004CC135F170EC21F0010101013351AF6E75
:1056F000900EAB6E1200000E01010101076F000E4B
:105700000101066F0101010103510211D8B443D018
:105710000101046F010E01010101056F0101045136
:1057200009D0010101010101D890023703370101BD
:105730000101052B0101010103AFF3D701010101B3
:105740000101D8900637073701010101025101011B
:105750000101005D01010101035101010101015934
:10576000D8A00FD001010101025101010101005F28
:1057700001010101035101010101015B010101016D
:105780000681010101010101D890033302330101B7
:105790000101052FD3D706C100F107C101F11200A5
:1057A00001010C6F8E0E01010101106F01010C51FE
:1057B0000DD00101D89001010B3301010A33010121
:1057C00009330101083301010101102B000E010111
:1057D0000101081501010C6F000E010101010915FD
:1057E00001010D6F000E010101010A1501010E6F8B
:1057F000FF0E010101010B1501010F6F01010F5196
:105800000C110D110E11D8A4D4D708C100F109C193
:1058100001F10AC102F110C103F101010C6F000E88
:1058200001010101046F01010C5130EC22F002C1B1
:105830000AF101C109F100C108F1120013AE16D03E
:1058400011C017F012C018F013C019F0171E181E5F
:10585000191E172A000E18221922000E1724116E85
:10586000000E1820126E800E1920136E16AE16D080
:1058700014C017F015C018F016C019F0171E181E26
:10588000191E172A000E18221922000E1724146E52
:10589000000E1820156E800E1920166E000E111ABB
:1058A000000E121A800E131A000E141A000E151A8A
:1058B000800E161A1450115C1550125816501358B9
:1058C000D8B002D0D89001D0D88012001C6E000E43
:1058D0001E6E1C501BAE08D01A6C1B1ED8B01B2AA3
:1058E0001C6E010E1E6E1C5019AE06D0186C191ECF
:1058F000D8B0192A010E1E1A000E206E000E1F6E5F
:105900001B501A10D8B41ED01C6E010E1D6E1C50F8
:1059100004D0D8901A361B361D2A1BAEFAD7D89061
:105920001F3620361A50185C1B501958D8A005D0C5
:105930001A50185E1B50195A1F80D8901B321A3209
:105940001D2EEDD71E50D8B404D01F6C201ED8B029
:10595000202A1FC018F020C019F012000101010117
:105960000305D8A41ED00101010104517F0F0101DC
:105970000101076F0101010107390F0B010101014D
:10598000056F0101010107510F0B01010101066FB4
:1059900005C101F163EC33F006C101F163EC33F0B2
:1059A00023D0010101010351020AD8A41DD0010135
:1059B00001010451BF0F01010101076F0101010144
:1059C00007390F0B01010101056F010101010751A9
:1059D0000F0B01010101066F05C101F163EC33F00A
:1059E00006C101F163EC33F0120001010101035122
:1059F0000211D8B43AD00101046F010E0101010176
:105A0000056F0101045109D0010101010101D89084
:105A10000237033701010101052B0101010103AF29
:105A2000F3D701010101025101010101005D0101F2
:105A300001010351010101010159D8A00CD001015C
:105A40000101025101010101005F01010101035146
:105A500001010101015B010101010101D890033342
:105A6000023301010101052FDCD700C100F101C1A2
:105A700001F11200000E1A6E000E1B6E000E1C6E5D
:105A8000000E1D6E1850151016101710D8B42CD01B
:105A9000196E010E1E6E195006D0D89015361636A6
:105AA000173618361E2A18AEF8D7D8901A361B3675
:105AB0001C361D361550115C1650125817501358CD
:105AC00018501458D8A009D01550115E1650125A0B
:105AD0001750135A1850145A1A80D8901832173287
:105AE000163215321E2EE1D71AC011F01BC012F06B
:105AF0001CC013F01DC014F012000600EACF05F020
:105B0000E1CF06F0E2CF07F0D9CF08F0DACF09F005
:105B1000F3CF0AF0F4CF0BF0F6CF0CF0F7CF0DF087
:105B2000F8CF0EF0F5CF0FF09EAA01D001D008D02B
:105B3000AECF10F010C001F016EC33F09E9A00D0FA
:105B40000FC0F5FF0EC0F8FF0DC0F7FF0CC0F6FF49
:105B50000BC0F4FF0AC0F3FF09C0DAFF08C0D9FF89
:105B600007C0E2FF06C0E1FF05C0EAFF04C0E9FF8D
:105B700003C0FBFF02C0FAFF11004D504C10D8B417
:105B80003AD000010001B851B711D8B409D00101D1
:105B9000010186518511D8B403D0B7EC33F02BD076
:105BA00000010001B851B711D8A409D001010101C9
:105BB00086518511D8A403D0B7EC33F01CD0000176
:105BC0000001B851B711D8A409D0010101018651D3
:105BD0008511D8B403D0B7EC33F00DD0000100012B
:105BE000B851B711D8B407D0010101018651851110
:105BF000D8B4B4EC33F012004D504C10D8B43AD0B5
:105C000000010001B851B711D8B409D00101010158
:105C100086518511D8B403D0BDEC33F02BD00001F0
:105C20000001B851B711D8A409D001010101865172
:105C30008511D8A403D0BDEC33F01CD000010001C5
:105C4000B851B711D8A409D00101010186518511BD
:105C5000D8B403D0BDEC33F00DD000010001B85131
:105C6000B711D8B407D00101010186518511D8B40C
:105C7000BAEC33F012008982060EE82EFED700D06F
:105C8000899280A4FED7CD8080B4FED7CD90CECFB0
:105C90001BF0CFCF1CF0D8901C30206E1B301F6E35
:105CA000A10E1F5C5A0E2058D8B00FD01FC011F0A3
:105CB00020C012F0000E146E3A0E136EBBEC2FF0E3
:105CC00011C01DF012C01EF008D0740E1F5C000E33
:105CD0002058000E1E6E000E1D6E000E206E000E6F
:105CE0001F6E000ECF6E000ECE6E1DC019F01EC0CE
:105CF0001AF01200156E000E176E155012AE08D075
:105D0000116C121ED8B0122A156E010E176E1550A6
:105D100014AE04D0136C141ED8B0142A14501310EF
:105D2000D8B41AD0156E010E166E155004D0D89046
:105D300013361436162A14AEFAD71350115C1450C9
:105D40001258D8A004D01350115E1450125AD89093
:105D500014321332162EF1D71750D8B404D0116C68
:105D6000121ED8B0122A11C011F012C012F0120087
:105D700001010B6F000E010101010C6F01010B51BC
:105D80000101010109AF0FD001010101086D0101FD
:105D9000091FD8B0092B01010B6F010E0101010190
:105DA0000C6F01010B510101010108C100F101015A
:105DB000010109C101F101010101026B01010B6F38
:105DC0008E0E01010101036F01010B510CC104F1A1
:105DD00030EC22F002C10AF101C109F100C108F161
:105DE00012002650231024102510D8B426D0276E78
:105DF000010E286E275006D0D8902336243625363B
:105E00002636282A26AEF8D723501F5C2450205867
:105E10002550215826502258D8A008D023501F5E64
:105E20002450205A2550215A2650225AD8902632E2
:105E3000253224322332282EE7D71FC01FF020C07E
:105E400020F021C021F022C022F01200000E01013A
:105E50000101076F000E0101066F18D00101010159
:105E60000651010101010425D96E0101010107510B
:105E7000010101010521DA6EDF5001010101016F0D
:105E800011EC30F001010101064B072B010101016A
:105E90000651010101010425D96E010101010751DB
:105EA000010101010521DA6EDF50D8B41200D6D706
:105EB0001D6E8E0E216E1D5006D0D8901C321B32E6
:105EC0001A321932212A000E19141D6E000E1A14EE
:105ED0001E6E000E1B141F6EFF0E1C14206E205031
:105EE0001D101E101F10D8A4E8D719C011F01AC039
:105EF00012F01BC013F021C014F01D6E000E156EC1
:105F00001D5072EC2AF013C01BF012C01AF011C021
:105F100019F01200010101011051010101011203E8
:105F2000F3CF14F1F4CF15F101010101105101017A
:105F300001011303F3CFF4FFF36AF35001010101F0
:105F40001427F45001010101152301010101115130
:105F5000010101011203F3CFF4FFF36AF3500101D1
:105F600001011427F45001010101152314C110F19E
:105F700015C111F11200000E186E000E176E1450AC
:105F80001310D8B41ED0156E010E166E155004D025
:105F9000D89013361436162A14AEFAD7D89017367E
:105FA00018361350115C14501258D8A005D0135055
:105FB000115E1450125A1780D89014321332162ED4
:105FC000EDD717C011F018C012F012001404D8A4B5
:105FD00012D015507F0F186E18380F0B166E185010
:105FE0000F0B176E16C012F074EC33F017C012F0DE
:105FF00074EC33F015D01450020AD8A411D0155007
:10600000BF0F186E18380F0B166E18500F0B176E47
:1060100016C012F074EC33F017C012F074EC33F0C9
:1060200012000101010101510F0B01010101026F79
:10603000010101010151F00B01010101036F838492
:106040000101010103390F0B01010101006F46EC51
:1060500032F083861A0EE82EFED700D0839602C156
:1060600000F146EC32F083861A0EE82EFED700D0FF
:106070008396120001EE81F0260EEE6AE806FDE13D
:1060800000EEB2F0070EEE6AE806FDE14F6A4E6AD6
:106090004D6A4C6A4B6A4A6A8C0EF66E670EF76E52
:1060A000000EF86E01EEA7F010EE04F00900F5CF37
:1060B000EEFFE550E150FAE1000EF86E00012BEF23
:1060C00033F0000E01010101006F800E010101019A
:1060D000016F400E01010101026FB2C003F1B3C0B4
:1060E00004F1B4C005F148EC27F0D8B006D0000E9A
:1060F00001010101866F000E05D0000E01010101B2
:10610000866F010E0101856F120014501310D8B470
:106110001AD0156E010E166E155004D0D890133695
:106120001436162A14AEFAD71350115C14501258B4
:10613000D8A004D01350115E1450125AD8901432C3
:106140001332162EF1D711C011F012C012F0120046
:10615000F2A40FD0F294D80ED76EF00ED66E0101D5
:106160000101814B822B01010101834B842BDDEC6A
:1061700022F0B2C009F1B3C00AF1B4C00BF161EC76
:1061800030F0B5C000F1B6C001F1D3EC32F0BDEC97
:106190002DF01200F2A40FD0F294D80ED76EF00EAC
:1061A000D66E01010101814B822B01010101834B5C
:1061B000842B80EC23F0B2C01AF0B3C01BF0B4C043
:1061C0001CF0B1EC31F0B5C011F0B6C012F0EAEC41
:1061D00032F0FCEC2DF012001C6E000E1D6E1C50F7
:1061E0001AAE08D0196C1A1ED8B01A2A1C6E010EED
:1061F0001D6E1C5019C011F01AC012F0136A1C6EEB
:106200008E0E146E1C501DC015F072EC2AF013C0D7
:106210001BF012C01AF011C019F012004CC1D9FFC6
:106220004DC1DAFF0101DECF46F10101DECF47F1BA
