:0400000036EF0AF0DD
:1008000001000A006400E80310276D617269613A13
:100810002025640000000F0E316E2BC032F02CC07A
:1008200033F02DC034F03128356E04D0D8903432F6
:1008300033323232352EFAD73250386E0F0E316ED7
:100840002EC032F02FC033F030C034F03128356E76
:1008500004D0D890343233323232352EFAD7325077
:10086000376E3850D8B40BD0375038600FD038506E
:1008700000083724316E190E315CD8A007D02EC085
:100880002BF02FC02CF030C02DF0AAD03750D8B4A8
:100890000BD0385037600FD0375000083824316EF5
:1008A000190E315CD8A007D02BC02BF02CC02CF037
:1008B0002DC02DF095D0316E060E366E31502DBE06
:1008C000368E30BE368C2C8EFF0E2B16FF0E2C165D
:1008D000000E2D162F8EFF0E2E16FF0E2F16000E59
:1008E00030163750386018D0D8902E362F36303624
:1008F000370637503818D8B40BD036063650070BA9
:10090000D8B406D0F1D7D8902D322C322B32382AD9
:1009100037503862F8D71AD03850376017D0D8908F
:100920002B362C362D36380637503818D8B40BD025
:1009300036063650070BD8B406D0F1D7D8903032EF
:100940002F322E32372A37503862F8D736AE0CD0D5
:10095000FF0E2B1AFF0E2C1AFF0E2D1A010E2B263E
:10096000000E2C22000E2D2236AC0CD0FF0E2E1ABB
:10097000FF0E2F1AFF0E301A010E2E26000E2F2208
:10098000000E3022316E000E366E31502B502E2666
:100990002C502F222D50302230AE10D0FF0E2E1AA8
:1009A000FF0E2F1AFF0E301A010E2E26000E2F22D8
:1009B000000E3022316E010E366E31502EC001F025
:1009C0002FC002F030C003F038C004F036C005F08C
:1009D0006DEC07F003C02DF002C02CF001C02BF02D
:1009E0001200000E186E130E176E91D02050250ABB
:1009F000D8B409D00FC0D9FF10C0DAFF20C0DFFF84
:100A00000F4A102A84D0156E000E196E155011C0B1
:100A1000F6FF12C0F7FF114A122A0800F5CF20F0A6
:100A20002050000AD8B47ED0640AD8A40D0AD8A4F5
:100A30006ED017C0D9FF18C0DAFFDECF1BF0DDCFB4
:100A40001CF0020E1726000E18221CAE06D0030E54
:100A500019121B6C1C1ED8B01C2A156E010E206EBC
:100A600015502050050AD8B416D02050020D000EA3
:100A7000F324F66E080EF420F76E0900F5CF15F09A
:100A80000900F5CF16F015501B5C16501C58D8A065
:100A900002D0202AE6D71950030BD8B408D00FC0D3
:100AA000D9FF10C0DAFF2D0EDF6E0F4A102A20C0CA
:100AB0001AF029D01A50020D000EF324F66E080E1B
:100AC000F420F76E0900F5CF03F00A00F5CF04F02B
:100AD0001BC001F01CC002F045EC09F001C009F098
:100AE00002C00AF0000E0C6E0A0E0B6E94EC09F0B8
:100AF0000950300F206E0FC0D9FF10C0DAFF20C0A0
:100B0000DFFF0F4A102A1A061A28D8A4D3D711C01B
:100B1000F6FF12C0F7FF114A122A0800F5CF20F0A5
:100B2000206664D70FC0D9FF10C0DAFF000EDF6E59
:100B300012000F0E0F6E09C010F00AC011F00BC0AA
:100B400012F00F28136E04D0D890123211321032E6
:100B5000132EFAD71050176E176601D015D00F0E4E
:100B60000F6E0CC010F00DC011F00EC012F00F2867
:100B7000136E04D0D890123211321032132EFAD7DD
:100B80001050196E196607D0000E096E000E0A6E1D
:100B9000000E0B6E55D019507B0F17260BC019F0A5
:100BA0000E50191A800E19160A8E0D8EFF0E0C1695
:100BB000FF0E0D16000E0E16000E146E000E156EB2
:100BC000000E166E0F6E070E186E0F5009A006D09D
:100BD0000C5014260D5015220E501622D8900B32B0
:100BE0000A320932D8900C360D360E36182EEED752
:100BF0000F6E090E186E0F5009A006D00C50142667
:100C00000D5015220E501622D8900B320A3209329E
:100C1000D890163215321432182EEED714C001F0C7
:100C200015C002F016C003F017C004F019C005F09B
:100C30006DEC07F003C00BF002C00AF001C009F030
:100C400012000F0E206E1AC021F01BC022F01CC033
:100C500023F02028246E04D0D8902332223221326F
:100C6000242EFAD72150296E296601D015D00F0EF7
:100C7000206E1DC021F01EC022F01FC023F02028CE
:100C8000246E04D0D890233222322132242EFAD777
:100C900021502A6E2A6607D0000E1A6E000E1B6EB7
:100CA000000E1C6E4CD0000E256E000E266E000E3F
:100CB000276E2A50890F295E1CC02AF01F502A1A5D
:100CC000800E2A161B8EFF0E1A16FF0E1B16000E24
:100CD0001C161E8EFF0E1D16FF0E1E16000E1F1672
:100CE000206E180E286E2050D890253626362736CE
:100CF0001D501A5C1E501B581F501C58D8A007D0FE
:100D00001D501A5E1E501B5A1F501C5A2580D89029
:100D10001A361B361C36282EE7D725C001F026C010
:100D200002F027C003F029C004F02AC005F06DECE2
:100D300007F003C01CF002C01BF001C01AF0120043
:100D40000F0E056E01C006F002C007F003C008F0E8
:100D50000528096E04D0D890083207320632092ED1
:100D6000FAD706500F6E0F6601D035D0170E056EFC
:100D700001C006F002C007F003C008F00528096EA4
:100D800004D0D890083207320632092EFAD706501E
:100D90000A6E028EFF0E0116FF0E0216000E0316DB
:100DA00001500B6E02500C6E03500D6E0E6A8E0ECB
:100DB0000F5E0FAE0DD00F50800A8F0FD8A00BD052
:100DC000D8900E320D320C320B320F3EF9D714D0C0
:100DD000170E0F640FD0000E016E000E026E000E93
:100DE000036E000E046E1BD0D8900B360C360D36F9
:100DF0000E360F060F66F8D70A50D8B408D00E1E6C
:100E00000D1E0C1E0B6C000E0C220D220E220BC0B0
:100E100001F00CC002F00DC003F00EC004F012008F
:100E2000000E326E000E336E000E346E000EC2B233
:100E3000010E2E6E010E2F6E2E2A02D0D8902F3664
:100E40002E2EFCD7000EC2B0010E306E010E316E98
:100E5000302A02D0D8903136302EFCD731502F10A6
:100E6000C212C2B2FED7C4502F6E2E6AC3502E24B7
:100E7000096E000E2F200A6EB7EC09F00BC034F09B
:100E80000AC033F009C032F0000E0C6EA00E0D6ED9
:100E9000400E0E6E32C009F033C00AF034C00BF0C1
:100EA00099EC05F00BC01CF00AC01BF009C01AF049
:100EB000C00E1D6E7F0E1E6E440E1F6E21EC06F0DE
:100EC0001CC034F01BC033F01AC032F032C02BF01B
:100ED00033C02CF034C02DF012000450D8B405D02B
:100EE000015002100310D8A40CD0000E016E000EA9
:100EF000026E000E036E4CD0042AD89003320232E8
:100F00000132000E0114066E000E0214076EFE0E72
:100F10000314086E065007100810D8B40CD0ECD794
:100F2000042A010E0126000E0222000E0322D89090
:100F3000033202320132000E0114066E000E02145A
:100F4000076EFF0E0314086E065007100810D8B481
:100F500006D0E6D70406D89001360236033602AE34
:100F6000F9D704A0029ED89004320450086E076A94
:100F7000066A06500112075002120850031205506B
:100F8000D8A4038E01C001F002C002F003C003F038
:100F90001200000E956E046E000E016E045011ECEE
:100FA0000AF0340E046EF10EE82EFED7042EFCD7A4
:100FB00000D0046E030E026E045026EC0AF00D0EF3
:100FC000046EFB0EE82EFED7042EFCD700D0046E74
:100FD000030E026E045026EC0AF01D0E046E910EF4
:100FE000E82EFED7042EFCD7046E030E026E0450CA
:100FF00026EC0AF0046E020E026E045026EC0AF093
:10100000046E020E026E045026EC0AF0046E080E06
:10101000026E045026EC0AF0046E000E026E0450BC
:1010200026EC0AF0046E0C0E026E045026EC0AF058
:10103000046E000E026E045026EC0AF0046E060EDA
:10104000026E045026EC0AF01200000E396EC20E39
:101050003A6E010E3B6E000E3C6E949C948E39C02D
:1010600009F03AC00AF03BC00BF03CC00CF068EC51
:1010700008F00BC01FF00AC01EF009C01DF0500E92
:101080001A6E430E1B6E450E1C6E21EC06F01CC042
:101090002DF01BC02CF01AC02BF0000E2E6E800E0F
:1010A0002F6EBF0E306E0BEC04F02DC03FF02CC045
:1010B0003EF02BC03DF03DC001F03EC002F03FC00D
:1010C00003F0A0EC06F00150AF6E900EAB6E120074
:1010D0000D6E000E126E0D500D6E8E0E116E0D50B7
:1010E0000CAE13D00C1E0B1E0A1E096C000E0A2239
:1010F0000B220C220D6E010E126E0D5006D0D890F0
:101100000C320B320A320932112A000E09140D6E0C
:10111000000E0A140E6E000E0B140F6EFF0E0C1450
:10112000106E10500D100E100F10D8A4E8D709C083
:1011300001F00AC002F00BC003F011C004F012C0AD
:1011400005F06DEC07F003C00BF002C00AF001C01F
:1011500009F012008982060EE82EFED700D089928F
:1011600080A4FED7CD8080B4FED7CD90CECF0BF03B
:10117000CFCF0CF0D8900C30106E0B300F6EA10E4C
:101180000F5C5A0E1058D8B00FD00FC001F010C02D
:1011900002F0000E046E3A0E036E45EC09F001C039
:1011A0000DF002C00EF008D0740E0F5C000E105847
:1011B000000E0E6E000E0D6E000E106E000E0F6E05
:1011C000000ECF6E000ECE6E0DC009F00EC00AF0FC
:1011D00012002150D8B421D0226E020E046E22508B
:1011E000236E010E056E23501AEC09F00001000E6B
:1011F000106E0001600E0F6E080E126E0A0E116E58
:1012000021C013F0146AF1EC04F00001000E066E28
:101210000001600E056EF6EC09F02150AA0AD8A470
:1012200002D0010E05D02150AE0AD8A402D0000E83
:101230008A6E12000404D8A412D005507F0F086EE5
:1012400008380F0B066E08500F0B076E06C002F031
:1012500026EC0AF007C002F026EC0AF015D0045084
:10126000020AD8A411D00550BF0F086E08380F0B22
:10127000066E08500F0B076E06C002F026EC0AF04F
:1012800007C002F026EC0AF01200000E076E000EF6
:10129000066E04500310D8B41ED0056E010E086E01
:1012A000055004D0D89003360436082A04AEFAD785
:1012B000D890063607360350015C04500258D8A077
:1012C00005D00350015E0450025A0680D8900432C3
:1012D0000332082EEDD706C001F007C002F012005D
:1012E0005EEC0AF04BEC0AF0C9EC07F041EC0AF0B6
:1012F00025EC08F0406E610E466E4050AAEC08F0F6
:1013000009C044F00AC045F010EC07F02DC043F0CE
:101310002CC042F02BC041F055EC0AF0466E46C09E
:1013200021F0E9EC08F0EAD70C500B10D8B41AD031
:101330000D6E010E0E6E0D5004D0D8900B360C368B
:101340000E2A0CAEFAD70B50095C0C500A58D8A0E4
:1013500004D00B50095E0C500A5AD8900C320B3254
:101360000E2EF1D709C009F00AC00AF012000C6E67
:10137000000E0D6E0C500AAE08D0096C0A1ED8B0D3
:101380000A2A0C6E010E0D6E0C5009C001F00AC045
:1013900002F0036A0C6E8E0E046E0C500DC005F048
:1013A0006DEC07F003C00BF002C00AF001C009F0B9
:1013B000120002500F0B036E0250F00B046E838478
:1013C00004380F0B016E11EC0AF083861A0EE82E1A
:1013D000FED700D0839603C001F011EC0AF083869B
:1013E0001A0EE82EFED700D083961200000E086E6B
:1013F000000E076E0CD007500524D96E0850062049
:10140000DA6EDF50026ED9EC09F0074A082A07505D
:101410000524D96E08500620DA6EDF50D8B41200C9
:10142000EAD701A002D0838801D0839801A202D01C
:10143000838A01D0839A01A402D0838C01D0839C3B
:1014400001A602D0838E01D0839E1200839402C035
:1014500001F011EC0AF083860B0E036E620EE82E8B
:10146000FED7032EFCD700F08396120000EE60F04A
:10147000200EEE6AE806FDE1000EF86E000170EF46
:1014800009F092800E0EC16E920EC06E000EC46EF8
:10149000000EC36E1200CD8ECF0ECD16CD92000E73
:1014A000CF6E000ECE6ECD9012009EAAFED7ABA2DC
:1014B00003D0AB9800F0AB88AE501200C180C1825F
:0E14C000C184C18692929284000E936E120037
:020000040020DA
:08000000FFFFFFFFFFFFFFFF00
:020000040030CA
:0E000000000C191EFF8381FF0FC00FE00F40A0
:00000001FF
