:0400000026EF13F0E4
:10080000010000000A00000064000000E80300008E
:1008100010270000A086010040420F00809698003B
:1008200000E1F50500CA9A3B00803FCDCC3DD723BF
:100830003C12833AB7D138C62737388635C0D6330D
:10084000CC2B32708930E7DB2EE53C1E42A20D0036
:10085000803F00204100C842007A44401C4650C3FB
:100860004724744997184BBCBE4C6B6E4E03155011
:1008700079AD60F3497125660000000E00010001AA
:10088000686F4F0E0001676F61D3000100017B515B
:10089000250AD8B408D04BC0D9FF4CC0DAFF0001FC
:1008A0007BC0DFFF51D3000E000100016E6F000E10
:1008B00000016D6F04D0000100016E8513D04DC0A2
:1008C000F6FF4EC0F7FF4D4A4E2A08000001F5CF53
:1008D0007BF000017B51000AD8B445D3660AD8B436
:1008E000EAD734D3070E000100016E15D8B418D32F
:1008F000000E00010001706F060E00016F6F67C0EF
:10090000D9FF68C0DAFF0001DECF7CF00001DECF46
:100910007DF00001DDCF7EF0030E000100016727AE
:10092000000E00016823000100017E51800A800F43
:1009300007E1000E00017D5D03E1000E00017C5D1A
:10094000D8B012D07CC009F07DC00AF07EC00BF098
:1009500013EC13F00BC07EF00AC07DF009C07CF0F0
:10096000030E000100016D13000E000100017A6FFB
:10097000000E0001796F7F0E000100017E1500015D
:100980007D1100017C11D8B491D0820E526EFF0E01
:10099000536E00017CC054F000017DC055F0000191
:1009A0007EC056F000017FC057F0100E05D0D890E1
:1009B0005732563255325432E82EF9D75450522419
:1009C00000010001796F0001000E53207A6F0001D1
:1009D00000017907D8A07A0779C011F07AC012F027
:1009E000000E146E030E136E83EC12F011C079F03A
:1009F00012C07AF079C008F07AC009F0000E0B6ED0
:100A00000A0E0A6EB4EC10F008C079F009C07AF052
:100A1000000100017AAF05D0000100017907D8A0DC
:100A20007A070001000179510008376EBAEC07F02F
:100A300039C078F038C077F037C076F00001000E8A
:100A4000386E0001760E376E7CC039F07DC03AF00A
:100A50007EC03BF047EC12F076C001F077C002F0A8
:100A600078C003F0000E046E800E056E3F0E066E19
:100A70006CEC10F0D8B006D0000100017907D8A0C6
:100A80007A0714D076C001F077C002F078C003F086
:100A9000000E046E200E056E410E066E6CEC10F01A
:100AA000D8A004D000010001794B7A2B000100018D
:100AB0007051800A800F0D0ED8B46F5DD8B012D07F
:100AC0000001000E476E00017C0E466E6FC037F0CD
:100AD00068EC0BF039C04AF038C049F037C048F034
:100AE00065EC12F0000100017A51800A800F0A0EB5
:100AF000D8B4795DD8B022D07F0E000100017E15F8
:100B000000017D1100017C11D8B467D07CC017F0C2
:100B10007DC018F07EC019F0A0EC0FF01A5017102D
:100B200018101910D8A459D0000100017A51800A78
:100B3000800F020ED8B4795DD8A04FD076C001F0F6
:100B400077C002F078C003F0700E046E890E056E57
:100B5000400E066E6CEC10F0D8B003D00001F70E1A
:100B600002D00001F80E00017927FF0E00017A2360
:100B700079C037F0BAEC07F039C078F038C077F0B8
:100B800037C076F07CC001F07DC002F07EC003F07B
:100B900076C004F077C005F078C006F08EEC0DF05A
:100BA00004C066F003C065F002C064F001C063F0E9
:100BB00063C071F064C072F065C073F066C074F019
:100BC000000E000100017C6F000E000100017D6F2E
:100BD000000E000100017E6F2FD07CC017F07DC099
:100BE00018F07EC019F0A0EC0FF01AC074F019C014
:100BF00073F018C072F017C071F00001000E326E71
:100C000000017C0E316E71C009F072C00AF073C031
:100C10000BF074C00CF0B2EC11F00BC035F00AC050
:100C200034F009C033F029EC12F0000E000100018D
:100C30007A6F000E0001796F526E010E0001000103
:100C40007B6F5250000100017B510A0AD8B421D0B9
:100C5000000100017B51040D000EF324F66E080E16
:100C6000F420F76E0900F55000010001715D0900E4
:100C7000F550000172590900F5500001735909003F
:100C8000F55000017459D8A004D0000100017B2B5D
:100C9000D9D7030E000100016D15526E000E000140
:100CA00000016E15536E53505210D8B443D04BC050
:100CB000D9FF4CC0DAFF2D0E3AD071C001F072C0DE
:100CC00002F073C003F074C004F0000100017B5116
:100CD000040D000EF324F66E080EF420F76E0900E2
:100CE000F5CF05F00900F5CF06F00900F5CF07F0C4
:100CF0000A00F5CF08F0FCEC10F001C069F002C06A
:100D00006AF069C001F06AC002F0000E046E0A0EBB
:100D1000036EE4EC11F001C069F002C06AF000015A
:100D200000016951300F4BC0D9FF4CC0DAFFDF6EB4
:100D30004B4A4C2A000100017B0700017B29D8B4F3
:100D40000ED0BBD74BC0D9FF4CC0DAFF300EDF6EE0
:100D50004B4A4C2A000100017907D8A07A0700010C
:100D600000017A51800A800F010ED8B4795DD8B0A5
:100D7000E9D7000100017051800A800F090ED8B434
:100D80006F5DD8A007D0526E080E000100017B6F86
:100D9000525002D06FC07BF0000100017B51000176
:100DA00000016F5F000E00017BBFFF0E000100011C
:100DB000705B000100017B51D8B408D04BC0D9FF53
:100DC0004CC0DAFF2E0EDF6E4B4A4C2A7BC037F048
:100DD000BAEC07F039C062F038C061F037C060F09B
:100DE0007CC029F07DC02AF07EC02BF060C026F0C8
:100DF00061C027F062C028F01FEC0EF028C019F087
:100E000027C018F026C017F0A0EC0FF01AC074F03D
:100E100019C073F018C072F017C071F065D071C0BE
:100E200001F072C002F073C003F074C004F000015E
:100E300000017B51040D000EF324F66E080EF42021
:100E4000F76E0900F5CF05F00900F5CF06F00900AF
:100E5000F5CF07F00A00F5CF08F0FCEC10F001C068
:100E60006BF002C06CF06BC001F06CC002F0000EC1
:100E7000046E0A0E036EE4EC11F001C06BF002C0C8
:100E80006CF0000100016B51300F4BC0D9FF4CC01A
:100E9000DAFFDF6E4B4A4C2A71C001F072C002F0DB
:100EA00073C003F074C004F0000100017B51040D15
:100EB000000EF324F66E080EF420F76E0900F5CF4D
:100EC00005F00900F5CF06F00900F5CF07F00A009C
:100ED000F5CF08F07DEC11F004C074F003C073F09E
:100EE00002C072F001C071F0000100017B07000137
:100EF0007B29D8B40ED093D74BC0D9FF4CC0DAFFB2
:100F0000300EDF6E4B4A4C2A000100016F07D8A05B
:100F100070070001000170516F11D8B417D0ECD7E1
:100F2000030E000100016D15526E000E000100015C
:100F30006E15536E53505210D8B408D04BC0D9FF21
:100F40004CC0DAFF2D0EDF6E4B4A4C2A4DC0F6FF27
:100F50004EC0F7FF4D4A4E2A08000001F5CF7BF046
:100F600000017B6792D44BC0D9FF4CC0DAFF000E62
:100F7000DF6E120037AE08D1376C3750800A120F7F
:100F8000D8A09DD0000E146E030E136E000E0B6ED3
:100F90000A0E0A6E000E046E640E036E3750016E68
:100FA000026A01BE02063FEC11F001C008F002C067
:100FB00009F0B4EC10F0090E0824116E000E09209F
:100FC000126E83EC12F0280E1124F66E080E122019
:100FD000F76E0900F5CF3AF00900F5CF3BF00900B4
:100FE000F5CF3CF03CC02BF03BC02AF03AC029F0D2
:100FF000000E146E030E136E000E0B6E640E0A6E5E
:101000003750086E096A08BE0906B4EC10F0120EDB
:101010000824116E000E0920126E83EC12F0280EC7
:101020001124F66E080E1220F76E0900F5CF3DF080
:101030000900F5CF3EF00900F5CF3FF03FC028F0A2
:101040003EC027F03DC026F01FEC0EF028C042F055
:1010500027C041F026C040F040C026F041C027F034
:1010600042C028F0000E146E030E136E000E046EC4
:101070000A0E036E3750016E026A01BE02063FEC93
:1010800011F001C011F002C012F083EC12F0280E32
:101090001124F66E080E1220F76E0900F5CF3AF013
:1010A0000900F5CF3BF00900F5CF3CF03CC02BF038
:1010B0003BC02AF03AC029F01FEC0EF064D1375043
:1010C000800A750FD8A059D0000E146E030E136E4F
:1010D000000E0B6E0A0E0A6E3750086E096A08BEC3
:1010E0000906B4EC10F0090E0824116E000E092058
:1010F000126E83EC12F0280E1124F66E080E1220E8
:10110000F76E0900F5CF3AF00900F5CF3BF0090082
:10111000F5CF3CF03CC028F03BC027F03AC026F0A9
:10112000000E146E030E136E000E046E0A0E036E94
:101130003750016E026A01BE02063FEC11F001C099
:1011400011F002C012F083EC12F0280E1124F66E9A
:10115000080E1220F76E0900F5CF3DF00900F5CF1B
:101160003EF00900F5CF3FF03FC02BF03EC02AF023
:101170003DC029F01FEC0EF006D13750030D280EAC
:10118000F324F66E080E0CD13750800A120FD8A047
:101190009DD0000E146E030E136E000E0B6E0A0E21
:1011A0000A6E000E046E640E036E3750016E026A02
:1011B00001BE02063FEC11F001C008F002C009F0C8
:1011C000B4EC10F0090E0824116E000E0920126E06
:1011D00083EC12F04F0E1124F66E080E1220F76EFB
:1011E0000900F5CF3AF00900F5CF3BF00900F5CF43
:1011F0003CF03CC02BF03BC02AF03AC029F0000E76
:10120000146E030E136E000E0B6E640E0A6E3750D2
:10121000086E096A08BE0906B4EC10F0120E082424
:10122000116E000E0920126E83EC12F04F0E112485
:10123000F66E080E1220F76E0900F5CF3DF009009A
:10124000F5CF3EF00900F5CF3FF03FC028F03EC09B
:1012500027F03DC026F01FEC0EF028C042F027C05A
:1012600041F026C040F040C026F041C027F042C007
:1012700028F0000E146E030E136E000E046E0A0E9C
:10128000036E3750016E026A01BE02063FEC11F098
:1012900001C011F002C012F083EC12F04F0E1124C5
:1012A000F66E080E1220F76E0900F5CF3AF009002D
:1012B000F5CF3BF00900F5CF3CF03CC02BF03BC034
:1012C0002AF03AC029F01FEC0EF05DD03750800AAA
:1012D000750FD8A05FD0000E146E030E136E000EB3
:1012E0000B6E0A0E0A6E3750086E096A08BE0906B0
:1012F000B4EC10F0090E0824116E000E0920126ED5
:1013000083EC12F04F0E1124F66E080E1220F76EC9
:101310000900F5CF3AF00900F5CF3BF00900F5CF11
:101320003CF03CC028F03BC027F03AC026F0000E4D
:10133000146E030E136E000E046E0A0E036E375009
:10134000016E026A01BE02063FEC11F001C011F00D
:1013500002C012F083EC12F04F0E1124F66E080E4C
:101360001220F76E0900F5CF3DF00900F5CF3EF0F1
:101370000900F5CF3FF03FC02BF03EC02AF03DC042
:1013800029F01FEC0EF028C039F027C038F026C035
:1013900037F017D03750030D4F0EF324F66E080EBA
:1013A000F420F76E0900F5CF3AF00900F5CF3BF0D5
:1013B0000900F5CF3CF03CC039F03BC038F03AC0F2
:1013C00037F0120031EC13F0000E946E94CF95FFBD
:1013D000000E936E9280BBEC12F0586E800E016E80
:1013E0005850EAEC12F0000EC2B2010E586E010E17
:1013F000596E582A02D0D8905936582EFCD7000E74
:10140000C2B0010E5A6E010E5B6E5A2A02D0D890FD
:101410005B365A2EFCD75B505910C212C2B2FED7AF
:10142000C450596E586AC3505824096E000E592092
:101430000A6E07EC12F00BC08BF00AC08AF009C0EC
:1014400089F0AE0E0F6E230E106E410E116E89C024
:101450000CF08AC00DF08BC00EF0A7EC0EF00EC0A1
:101460000BF00DC00AF00CC009F013EC13F00BC028
:101470001FF00AC01EF009C01DF0000E206EC80E3D
:10148000216E420E226EA8EC0CF01FC08BF01EC025
:101490008AF01DC089F00001000E4C6E00017F0E25
:1014A0004B6E080E4E6E760E4D6E89C04FF08AC0A0
:1014B00050F08BC051F03DEC04F00001000E036EC3
:1014C00000017F0E026E00EC13F0000E016E000EA4
:1014D000026E000E036E89C004F08AC005F08BC056
:1014E00006F06CEC10F0D8B012D089C001F08AC0C0
:1014F00002F08BC003F0000E046E200E056E410E4C
:10150000066E6CEC10F0D8B002D0800EDFD089C02F
:1015100001F08AC002F08BC003F0000E046E200EB2
:10152000056E410E066E6CEC10F0D8A012D089C08A
:1015300001F08AC002F08BC003F0000E046EA00E12
:10154000056E410E066E6CEC10F0D8B002D0C00EE5
:10155000BDD089C001F08AC002F08BC003F0000E3C
:10156000046EA00E056E410E066E6CEC10F0D8A055
:1015700012D089C001F08AC002F08BC003F0000EC7
:10158000046EF00E056E410E066E6CEC10F0D8B0D5
:1015900002D0E00E9BD089C001F08AC002F08BC05F
:1015A00003F0000E046EF00E056E410E066E6CEC3C
:1015B00010F0D8A012D089C001F08AC002F08BC010
:1015C00003F0000E046E200E056E420E066E6CECEB
:1015D00010F0D8B002D0F00E79D089C001F08AC0E6
:1015E00002F08BC003F0000E046E200E056E420E5A
:1015F000066E6CEC10F0D8A012D089C001F08AC041
:1016000002F08BC003F0000E046E480E056E420E11
:10161000066E6CEC10F0D8B002D0F80E57D089C02E
:1016200001F08AC002F08BC003F0000E046E480E79
:10163000056E420E066E6CEC10F0D8A012D089C078
:1016400001F08AC002F08BC003F0000E046E700E31
:10165000056E420E066E6CEC10F0D8B002D0FC0E97
:1016600035D089C001F08AC002F08BC003F0000EB3
:10167000046E700E056E420E066E6CEC10F0D8A073
:1016800012D089C001F08AC002F08BC003F0000EB6
:10169000046E8C0E056E420E066E6CEC10F0D8B027
:1016A00002D0FE0E13D089C001F08AC002F08BC0B8
:1016B00003F0000E046E8C0E056E420E066E6CEC8E
:1016C00010F0D8A002D08A6888D6000E8A6E85D61F
:1016D0006D0E3764ABD0000E146E030E136E000E49
:1016E0000B6E0A0E0A6E000E046E640E036E37C097
:1016F00001F0026A3FEC11F001C008F002C009F0ED
:10170000B4EC10F0090E0824116E000E0920126EC0
:1017100083EC12F0280E1124F66E080E1220F76EDC
:101720000900F5CF3AF00900F5CF3BF00900F5CFFD
:101730003CF03CC02BF03BC02AF03AC029F0000E30
:10174000146E030E136E000E0B6E640E0A6E37C01D
:1017500008F0096AB4EC10F0120E0824116E000EA5
:101760000920126E83EC12F0280E1124F66E080E7A
:101770001220F76E0900F5CF3DF00900F5CF3EF0DD
:101780000900F5CF3FF03FC028F03EC027F03DC034
:1017900026F01FEC0EF028C045F027C044F026C00C
:1017A00043F0000E146E030E136E000E046E0A0E4C
:1017B000036E37C001F0026A3FEC11F001C011F076
:1017C00002C012F083EC12F0280E1124F66E080EFF
:1017D0001220F76E0900F5CF3AF00900F5CF3BF083
:1017E0000900F5CF3CF03CC02BF03BC02AF03AC0DA
:1017F00029F043C026F044C027F045C028F01FEC74
:101800000EF028C042F027C041F026C040F040C092
:1018100026F041C027F042C028F0000E296E000ECD
:101820002A6E3F0E2B6E1FEC0EF08BD00A0E376423
:1018300069D0000E146E030E136E000E046E0A0EB5
:10184000036E37C001F0026A3FEC11F001C011F0E5
:1018500002C012F083EC12F0280E1124F66E080E6E
:101860001220F76E0900F5CF3AF00900F5CF3BF0F2
:101870000900F5CF3CF03CC02BF03BC02AF03AC049
:1018800029F0000E146E030E136E000E0B6E0A0E7E
:101890000A6E37C008F0096AB4EC10F0090E08248B
:1018A000116E000E0920126E83EC12F0280E112426
:1018B000F66E080E1220F76E0900F5CF3DF0090014
:1018C000F5CF3EF00900F5CF3FF03FC028F03EC015
:1018D00027F03DC026F01FEC0EF028C045F027C0D1
:1018E00044F026C043F043C026F044C027F045C072
:1018F00028F0000E296E000E2A6E3F0E2B6E1FEC94
:101900000EF01FD03750030D280EF324F66E080E8C
:10191000F420F76E0900F5CF3AF00900F5CF3BF05F
:101920000900F5CF3CF03CC028F03BC027F03AC09E
:1019300026F0000E296E000E2A6E3F0E2B6E1FEC55
:101940000EF028C039F027C038F026C037F012005A
:101950000F0E236E1DC024F01EC025F01FC026F000
:101960002328276E04D0D890263225322432272E01
:10197000FAD724502A6E0F0E236E20C024F021C007
:1019800025F022C026F02328276E04D0D8902632D6
:1019900025322432272EFAD72450296E2A50D8B463
:1019A0000BD029502A600FD02A5000082924236E1A
:1019B000190E235CD8A007D020C01DF021C01EF056
:1019C00022C01FF0AAD02950D8B40BD02A502960C9
:1019D0000FD0295000082A24236E190E235CD8A0AA
:1019E00007D01DC01DF01EC01EF01FC01FF095D0F7
:1019F000236E060E286E23501FBE288E22BE288C12
:101A00001E8EFF0E1D16FF0E1E16000E1F16218EB7
:101A1000FF0E2016FF0E2116000E221629502A60F6
:101A200018D0D890203621362236290629502A1877
:101A3000D8B40BD028062850070BD8B406D0F1D75D
:101A4000D8901F321E321D322A2A29502A62F8D716
:101A50001AD02A50296017D0D8901D361E361F364E
:101A60002A0629502A18D8B40BD028062850070B6C
:101A7000D8B406D0F1D7D890223221322032292A88
:101A800029502A62F8D728AE0CD0FF0E1D1AFF0E7F
:101A90001E1AFF0E1F1A010E1D26000E1E22000E1A
:101AA0001F2228AC0CD0FF0E201AFF0E211AFF0EA9
:101AB000221A010E2026000E2122000E2222236E61
:101AC000000E286E23501D5020261E5021221F502C
:101AD000222222AE10D0FF0E201AFF0E211AFF0E76
:101AE000221A010E2026000E2122000E2222236E31
:101AF000010E286E235020C001F021C002F022C048
:101B000003F02AC004F028C005F010EC10F003C068
:101B10001FF002C01EF001C01DF012000F0E076E74
:101B200001C008F002C009F003C00AF007280B6EDC
:101B300004D0D8900A32093208320B2EFAD7085056
:101B4000116E116601D061D00F0E076E04C008F04F
:101B500005C009F006C00AF007280B6E04D0D89023
:101B60000A32093208320B2EFAD70850106E10666E
:101B700001D04BD0028EFF0E0116FF0E0216000E92
:101B80000316058EFF0E0416FF0E0516000E061630
:101B9000000E0C6E000E0D6E000E0E6E000E0F6E1F
:101BA0007F0E115E1050980F115E076E180E106EAA
:101BB0000750D8900C360D360E360F360450015CA7
:101BC0000550025806500358D8A007D00450015EB3
:101BD0000550025A0650035A0C80D890013602363E
:101BE0000336102EE6D711AE0DD01150800A970F94
:101BF000D8A00BD0D8900F320E320D320C32113EDD
:101C0000F9D714D0170E11640FD0000E016E000E1C
:101C1000026E000E036E000E046E10D0D8900C36CB
:101C20000D360E360F3611061166F8D70CC001F0CE
:101C30000DC002F00EC003F00FC004F012000F0E32
:101C40002C6E26C02DF027C02EF028C02FF02C2897
:101C5000306E04D0D8902F322E322D32302EFAD75B
:101C60002D50316E316601D015D00F0E2C6E29C06B
:101C70002DF02AC02EF02BC02FF02C28306E04D06F
:101C8000D8902F322E322D32302EFAD72D50366E7C
:101C9000366607D0000E266E000E276E000E286EE8
:101CA00055D036507B0F312628C036F02B50361ACF
:101CB000800E3616278E2A8EFF0E2916FF0E2A1644
:101CC000000E2B16000E326E000E336E000E346EB8
:101CD0002C6E070E356E2C5026A006D029503226C9
:101CE0002A5033222B503422D890283227322632E1
:101CF000D89029362A362B36352EEED72C6E090E83
:101D0000356E2C5026A006D0295032262A50332278
:101D10002B503422D890283227322632D8903432B1
:101D200033323232352EEED732C001F033C002F0FA
:101D300034C003F031C004F036C005F010EC10F0F0
:101D400003C028F002C027F001C026F012000F0ED9
:101D5000126E0CC013F00DC014F00EC015F0122856
:101D6000166E04D0D890153214321332162EFAD7CC
:101D700013501B6E1B6601D015D00F0E126E0FC0D4
:101D800013F010C014F011C015F01228166E04D014
:101D9000D890153214321332162EFAD713501C6E07
:101DA0001C6607D0000E0C6E000E0D6E000E0E6E3F
:101DB0004CD0000E186E000E196E000E1A6E1C50DC
:101DC000890F1B5E0EC01CF011501C1A800E1C16D1
:101DD0000D8EFF0E0C16FF0E0D16000E0E16108E39
:101DE000FF0E0F16FF0E1016000E1116126E180EB3
:101DF000176E1250D890183619361A360F500C5CE0
:101E000010500D5811500E58D8A007D00F500C5E2E
:101E100010500D5A11500E5A1880D8900C360D36AD
:101E20000E36172EE7D718C001F019C002F01AC0FD
:101E300003F01BC004F01CC005F010EC10F003C050
:101E40000EF002C00DF001C00CF012000334043497
:101E50000D6E0D6601D05AD0063407340C6E0C6638
:101E600001D054D0038EFF0E0116FF0E0216FF0E96
:101E70000316000E0416068EFF0E0416FF0E05163E
:101E8000FF0E0616000E0716000E086E000E096EF5
:101E9000000E0A6E000E0B6E7F0E0D5E0C50A00F32
:101EA0000D5E076E200E0C6E0750D890083609366E
:101EB0000A360B360450015C055002580650035890
:101EC00007500458D8A009D00450015E0550025AAA
:101ED0000650035A0750045A0880D890013602363B
:101EE000033604360C2EE1D70DAE0DD00D50800A0E
:101EF0009F0FD8A00BD0D8900B320A32093208328B
:101F00000D3EF9D714D01F0E0D640FD0000E016ED8
:101F1000000E026E000E036E000E046E10D0D890FC
:101F2000083609360A360B360D060D66F8D708C096
:101F300001F009C002F00AC003F00BC004F0120067
:101F40000F0E1B6E17C01CF018C01DF019C01EF03C
:101F50001B281F6E04D0D8901E321D321C321F2E3B
:101F6000FAD71C50256E256601D035D0170E1B6E92
:101F700017C01CF018C01DF019C01EF01B281F6EE2
:101F800004D0D8901E321D321C321F2EFAD71C509E
:101F9000206E188EFF0E1716FF0E1816000E19165B
:101FA0001750216E1850226E1950236E246A8E0E1F
:101FB000255E25AE0DD02550800A8F0FD8A00BD0FE
:101FC000D8902432233222322132253EF9D714D040
:101FD000170E25640FD0000E176E000E186E000E3F
:101FE000196E000E1A6E1BD0D89021362236233679
:101FF000243625062566F8D72050D8B408D0241EEC
:10200000231E221E216C000E22222322242221C004
:1020100017F022C018F023C019F024C01AF01200E3
:102020000450D8B405D0015002100310D8A40CD02D
:10203000000E016E000E026E000E036E4CD0042ADC
:10204000D890033202320132000E0114066E000EE7
:102050000214076EFE0E0314086E065007100810D7
:10206000D8B40CD0ECD7042A010E0126000E0222AF
:10207000000E0322D890033202320132000E011406
:10208000066E000E0214076EFF0E0314086E065053
:1020900007100810D8B406D0E6D70406D890013649
:1020A0000236033602AEF9D704A0029ED89004325D
:1020B0000450086E076A066A0650011207500212A1
:1020C000085003120550D8A4038E01C001F002C0CD
:1020D00002F003C003F0120003AE16D001C007F0F7
:1020E00002C008F003C009F0071E081E091E072AD7
:1020F000000E08220922000E0724016E000E08209F
:10210000026E800E0920036E06AE16D004C007F0E2
:1021100005C008F006C009F0071E081E091E072AA0
:10212000000E08220922000E0724046E000E08206B
:10213000056E800E0920066E000E011A000E021AAE
:10214000800E031A000E041A000E051A800E061ADD
:102150000450015C0550025806500358D8B002D014
:10216000D89001D0D88012000C6E000E0E6E0C506C
:102170000BAE08D00A6C0B1ED8B00B2A0C6E010EE9
:102180000E6E0C5009AE06D0086C091ED8B0092A94
:10219000010E0E1A000E106E000E0F6E0B500A107C
:1021A000D8B41ED00C6E010E0D6E0C5004D0D89019
:1021B0000A360B360D2A0BAEFAD7D8900F361036EA
:1021C0000A50085C0B500958D8A005D00A50085E88
:1021D0000B50095A0F80D8900B320A320D2EEDD7D2
:1021E0000E50D8B404D00F6C101ED8B0102A0FC0F7
:1021F00008F010C009F01200000E0A6E000E0B6EFF
:10220000000E0C6E000E0D6E085005100610071023
:10221000D8B42CD0096E010E0E6E095006D0D8909D
:1022200005360636073608360E2A08AEF8D7D89097
:102230000A360B360C360D360550015C0650025836
:102240000750035808500458D8A009D00550015E23
:102250000650025A0750035A0850045A0A80D89070
:1022600008320732063205320E2EE1D70AC001F0DD
:102270000BC002F00CC003F00DC004F01200056E9C
:10228000000E076E055002AE08D0016C021ED8B0D9
:10229000022A056E010E076E055004AE04D0036CD1
:1022A000041ED8B0042A04500310D8B41AD0056E06
:1022B000010E066E055004D0D89003360436062A67
:1022C00004AEFAD70350015C04500258D8A004D0E1
:1022D0000350015E0450025AD89004320332062E95
:1022E000F1D70750D8B404D0016C021ED8B0022A2E
:1022F00001C001F002C002F01200085005100610E3
:102300000710D8B426D0096E010E0A6E095006D007
:10231000D89005360636073608360A2A08AEF8D7AA
:102320000550015C065002580750035808500458E5
:10233000D8A008D00550015E0650025A0750035A33
:102340000850045AD89008320732063205320A2E55
:10235000E7D701C001F002C002F003C003F004C0DF
:1023600004F012000D6E8E0E116E0D5006D0D89036
:102370000C320B320A320932112A000E09140D6E8A
:10238000000E0A140E6E000E0B140F6EFF0E0C14CE
:10239000106E10500D100E100F10D8A4E8D709C001
:1023A00001F00AC002F00BC003F011C004F00D6E82
:1023B000000E056E0D5010EC10F003C00BF002C0C3
:1023C0000AF001C009F0120004500310D8B41AD06A
:1023D000056E010E066E055004D0D8900336043603
:1023E000062A04AEFAD70350015C04500258D8A064
:1023F00004D00350015E0450025AD89004320332D4
:10240000062EF1D701C001F002C002F012000C6EDE
:10241000000E0D6E0C500AAE08D0096C0A1ED8B022
:102420000A2A0C6E010E0D6E0C5009C001F00AC094
:1024300002F0036A0C6E8E0E046E0C500DC005F097
:1024400010EC10F003C00BF002C00AF001C009F05C
:10245000120031C0D9FF32C0DAFFDECF2BF0DECF61
:102460002CF0DDCF2DF033C02EF034C02FF035C06E
:1024700030F0A0EC12F031C0D9FF32C0DAFF2BC02F
:10248000DEFF2CC0DEFF2DC0DDFFDD52120037C0A5
:10249000D9FF38C0DAFFDECF26F0DECF27F0DDCF60
:1024A00028F039C029F03AC02AF03BC02BF01FECCD
:1024B0000EF037C0D9FF38C0DAFF26C0DEFF27C0D4
:1024C000DEFF28C0DDFFDD52120046C0D9FF47C045
:1024D000DAFFDECF1DF0DECF1EF0DDCF1FF048C0EB
:1024E00020F049C021F04AC022F0A8EC0CF046C010
:1024F000D9FF47C0DAFF1DC0DEFF1EC0DEFF1FC0D0
:10250000DDFFDD52120011501302F3CF15F0F4CFAE
:1025100016F011501402F3CFF4FFF36AF3501526AE
:10252000F450162212501302F3CFF4FFF36AF35063
:102530001526F450162215C011F016C012F0120024
:10254000000E2E1A000E2F1A800E301A2BC01DF00E
:102550002CC01EF02DC01FF02EC020F02FC021F087
:1025600030C022F0A8EC0CF01FC02DF01EC02CF0E3
:102570001DC02BF01200026E380E016E0250EAEC04
:1025800012F0026E0C0E016E0250EAEC12F0026EB6
:10259000060E016E0250EAEC12F0026E800E016E21
:1025A0000250EAEC12F0120001C083FF8280829296
:1025B0008284000E5D6E000E5C6E5D50800A7D0FA1
:1025C000E90ED8B45C5CD8B003D05C4A5D2AF5D77C
:1025D0008294120001C083FF829082928284000E56
:1025E0005D6E000E5C6E5D50800A7D0FE90ED8B402
:1025F0005C5CD8B003D05C4A5D2AF5D782941200A7
:102600000AD002C0D9FF03C0DAFFDF50016ED4EC5C
:1026100012F0024A032A02C0D9FF03C0DAFFDF50DA
:10262000D8B41200EED77F0E0B140A100910D8B4DC
:1026300006D0000E091A000E0A1A800E0B1A09C0E5
:1026400009F00AC00AF00BC00BF0120000018B6BFE
:102650008A6B896B5D6A5C6A000EF86E0001E2EFBE
:1026600009F0010EC26E0E0EC16EA60EC06E000EF7
:08267000C46E000EC36E1200DF
:020000040020DA
:08000000FFFFFFFFFFFFFFFF00
:020000040030CA
:0E00000000051F1FFF8385FF0FC00FE00F409C
:00000001FF
