:0400000061EF00F0BC
:10000800FACF02F0FBCF03F0E9CF04F039ED25F089
:10001800D8CF10F0E8CF11F0E0CF12F0FACF13F0FC
:10002800FBCF14F0E9CF15F0EACF16F0E1CF17F0C7
:10003800E2CF18F0D9CF19F0DACF1AF0F3CF1BF0CE
:10004800F4CF1CF0F6CF1DF0F7CF1EF0F8CF1FF05D
:10005800F5CF20F09EAC01D001D005D0C3CFC2F0BF
:10006800C4CFC3F09E9CF2A401D001D003D0F29477
:10007800C28200D020C0F5FF1FC0F8FF1EC0F7FFE6
:100088001DC0F6FF1CC0F4FF1BC0F3FF1AC0DAFF47
:1000980019C0D9FF18C0E2FF17C0E1FF16C0EAFF78
:1000A80015C0E9FF14C0FBFF13C0FAFF12C0E0FF40
:1000B80011C0E8FF10C0D8FF100009EF1BF0000EB8
:1000C80005010501696F000E0501686F926892804D
:1000D8009296929A9492809A8292809607EC29F04E
:1000E80044EC29F06BEC29F030EC29F07DEC29F098
:1000F800D2EC23F036EC20F0BA96BA94BA92BA90C1
:10010800000EC46E000EC36E000E00010001BF6F2A
:10011800000E0001BE6F000E00010001C56F000E49
:100128000001C46F000E00010001BD6F000E000148
:10013800BC6F4CD054EC0DF005010501684B692BE0
:10014800050105016951800A800F1A0ED8B4685D4F
:10015800D8A03CD00001B46F010E000100017C6FF3
:100168000001B4518BEC28F00001B46F800E00013F
:1001780000017C6F0001B4518BEC28F00101010EE5
:10018800000100017E6F0101000E00017D6F00017A
:10019800B46F100E000100017F6F0001B4513BECF9
:1001A80027F0000E00010001766F800E00010001AB
:1001B800776F3F0E00010001786F28EC26F0000EE3
:1001C80005010501696F000E0501686F3E503F6229
:1001D800B1D7C2C0C4F0C3C0C5F0808A0101010E06
:1001E800226E0101B50E216EF0EC18F021C0C8F0A6
:1001F80022C0C9F00101010E226E0101B50E216E67
:100208004BEC1CF021C0C6F022C0C7F00101010E62
:10021800226E0101B50E216EFCEC22F021C0D0F057
:1002280022C0D1F00101010E226E0101B50E216E2E
:100238008CEC24F021C0CAF022C0CBF00101010EE1
:10024800226E0101B50E216E8BEC22F021C0CEF09A
:1002580022C0CFF00101010E226E0101B50E216E00
:10026800A6EC1EF021C0CCF022C0CDF00101010E99
:10027800226E0101B50E216ECEEC16F02150000160
:100288000001D66F0101010E226E0101B50E216E2B
:100298003AEC18F0215000010001D56F0101010E60
:1002A800226E0101B50E216E84EC17F02150000179
:1002B8000001D46F0101010E00010001656F010109
:1002C800B50E0001646FF5EC0FF0000100016451F8
:1002D80000010001D36F0101010E226E0101B50E6C
:1002E800216E03EC12F000010001D351650AD8A475
:1002F800D3C0D2F00101010E226E0101B50E216EAC
:10030800F0EC18F021042210D8A435D00001B46F05
:10031800800E000100017C6F0001B4518BEC28F0C5
:100328000101010E000100017E6F0101830E000131
:100338007D6F0001B46F0B0E000100017F6F00019B
:10034800B4513BEC27F0000E00010001766F000E5F
:1003580000010001776F400E00010001786F28EC62
:1003680026F00001B46F010E000100017C6F00014E
:10037800B4518BEC28F00101010E226E0101B50E7B
:10038800216E4BEC1CF021042210D8A433D00101BB
:10039800010E226E0101B50E216EF0EC18F022500C
:1003A8002110D8A427D00001B46F010E000100016C
:1003B8007C6F0001B4518BEC28F00001B46F800E03
:1003C800000100017C6F0001B4518BEC28F00101A1
:1003D800010E000100017E6F0101AC0E00017D6F6E
:1003E8000001B46F090E000100017F6F0001B451D4
:1003F8003BEC27F000010001D005D111D8A4C1EFD2
:1004080006F000010001CA05CB11D8A4DDEF06F003
:1004180000010001CE05CF11D8A45ED00001B46F51
:10042800010E000100017C6F0001B4518BEC28F033
:1004380058EC1AF00001B46F800E000100017C6FC7
:100448000001B4518BEC28F00101010E00010001FC
:100458007E6F0101300E00017D6F0001B46F100E38
:10046800000100017F6F0001B4513BEC27F0000E42
:1004780000010001766F000E00010001776F400E49
:1004880000010001786F28EC26F00001B46F010E1E
:10049800000100017C6F0001B4518BEC28F00001D1
:1004A800B46FC00E000100017C6F0001B4518BECE9
:1004B80028F00101010E000100017E6F0101400ECC
:1004C80000017D6F0001B46F0E0E000100017F6F07
:1004D8000001B4513BEC27F000010001CC05CD111F
:1004E800D8A4BFEF06F000010001D605D8A475D343
:1004F80000010001D351650AD8B46FD3D3C0D2F03C
:1005080000010001D251640DF3CFC0F0F4CFC1F067
:10051800C0C068F0C1C069F0A6EC19F00001B46F62
:10052800010E000100017C6F0001B4518BEC28F032
:100538000001B46F800E000100017C6F0001B4510E
:100548008BEC28F00101010E000100017E6F010112
:100558008E0E00017D6F0001B46F0B0E00010001CB
:100568007F6F0001B4513BEC27F025C07CF0ADEC67
:1005780028F026C07CF0ADEC28F038C060F039C017
:1005880061F0000E00010001636F0A0E0001626F46
:1005980040EC28F00001000160C0B8F00001000143
:1005A80061C0B9F00001000E0001B9BFFF0E0001E3
:1005B800BA6F0001BB6F00010001D25100010001B8
:1005C800606F0001616B0001626B0001636BB8C072
:1005D80064F0B9C065F0BAC066F0BBC067F0DAEC89
:1005E80025F063C0BBF062C0BAF061C0B9F060C06A
:1005F800B8F0B8C06CF0B9C06DF0BAC06EF0BBC04E
:100608006FF00A0E00010001706F000E0001716F9B
:10061800000E0001726F000E0001736FB3EC1FF043
:100628006FC0BBF06EC0BAF06DC0B9F06CC0B8F066
:10063800B8C079F0B9C07AF0BAC07BF0BBC07CF022
:10064800FBEC06F079C0BEF07AC0BFF0BEC068F01F
:10065800BFC069F0A6EC19F0BA86BA84BA82BA802B
:10066800BEC021F0BFC022F069EC28F00001B46FD1
:10067800C00E000100017C6F0001B4518BEC28F022
:100688000101010E000100017E6F0101990E0001B8
:100698007D6F0001B46F0A0E000100017F6F000139
:1006A800B4513BEC27F025C07CF0ADEC28F026C017
:1006B8007CF0ADEC28F027C07CF0ADEC28F028C029
:1006C8007CF0ADEC28F0000E05010501776F000EF7
:1006D8000501766F000E050105017A6F000E050110
:1006E8007B6F000E05017C6F000E05017D6F010E0A
:1006F800050105016D6FF50E05016C6F010E050111
:1007080005016B6FF50E05016A6F000E0501050105
:10071800776F000E0501766F940E050105015E6F77
:100728007C0E05015F6FFE0E0501606FFF0E05016F
:10073800616F000E05010501676F640E0501666FA4
:1007480033D2C2C062F5C3C063F562C521F063C588
:1007580022F075EC26F021C02EF022C02FF02EC01A
:1007680079F02FC07AF06CEC0AF07CC055F57BC0AC
:1007780054F57AC053F579C052F552C56EF053C599
:100788006FF054C570F055C571F0EAEC1CF000012B
:100798006EC064F500016FC065F5050164C5B4F06D
:1007A800050165C5B5F00001B41FB51FB44BB52BE5
:1007B80000010001C0510001B42505010501786F51
:1007C80000010001C1510001B5210501796F78C50B
:1007D8006AF579C56BF5050100016CC560F0050186
:1007E80000016DC561F000010001626B0001636BDF
:1007F8005EC564F05FC565F060C566F061C567F009
:10080800DAEC25F063C059F562C058F561C057F5B8
:1008180060C056F556C560F057C561F058C562F01E
:1008280059C563F0A00E00010001646F860E000137
:10083800656F010E0001666F000E0001676F48ECDE
:1008480015F063C05DF562C05CF561C05BF560C022
:100858005AF50501050166C56EF50501050167C56F
:100868006FF50501000E05016FBFFF0E0501706FE2
:100878000501716F0501000178C560F005010001EF
:1008880079C561F000010001626B0001636B6EC500
:1008980064F06FC565F070C566F071C567F0DAEC95
:1008A80025F063C071F562C070F561C06FF560C076
:1008B8006EF56EC560F06FC561F070C562F071C508
:1008C80063F00A0E00010001646F000E0001656FFD
:1008D800000E0001666F000E0001676F48EC15F00E
:1008E80063C075F562C074F561C073F560C072F5D8
:1008F80072C560F073C561F074C562F075C563F0C8
:100908000A0E00010001646F000E0001656F000E01
:100918000001666F000E0001676F48EC15F063C0B8
:1009280075F562C074F561C073F560C072F50501B4
:1009380005017251050105017A250001B46F050111
:1009480005017351050105017B210001B56F050102
:1009580005017451050105017C210001B66F0501EF
:1009680005017551050105017D210001B76F0501DC
:1009780005015A510001B425050105017A6F0501E9
:1009880005015B510001B52105017B6F05010501DA
:100998005C510001B62105017C6F050105015D511F
:1009A8000001B72105017D6F78C56CF579C56DF536
:1009B800050105017D51800A800F0BE1000E05013C
:1009C8007C5D07E1270E05017B5D03E1110E050142
:1009D8007A5DD8B004D0050105017DAF0DD0F40EC5
:1009E800050105017A6F010E05017B6F000E0501F7
:1009F8007C6F000E05017D6F010E0501050176254E
:100A080005010501766F000E050105017721050135
:100A1800776F050105017751800A800F1F0ED8B442
:100A2800765DD8A007D0010E050105016D6FF30EA4
:100A380005016C6F7AC560F07BC561F07CC562F01A
:100A48007DC563F0640E00010001646F000E0001B3
:100A5800656F000E0001666F000E0001676F48ECBD
:100A680015F000010001605100010001D26F38C08B
:100A780060F039C061F0000E00010001636F0A0EDA
:100A88000001626F40EC28F00001000160C0B8F07E
:100A98000001000161C0B9F00001000E0001B9BFFA
:100AA800FF0E0001BA6F0001BB6F00010001D251B7
:100AB80000010001606F0001616B0001626B0001C1
:100AC800636BB8C064F0B9C065F0BAC066F0BBC06B
:100AD80067F0DAEC25F063C0BBF062C0BAF061C021
:100AE800B9F060C0B8F0B8C06CF0B9C06DF0BAC069
:100AF8006EF0BBC06FF00A0E00010001706F000EAF
:100B08000001716F000E0001726F000E0001736F1B
:100B1800B3EC1FF06FC0BBF06EC0BAF06DC0B9F097
:100B28006CC0B8F0B8C079F0B9C07AF0BAC07BF040
:100B3800BBC07CF0FBEC06F079C0BEF07AC0BFF019
:100B4800BEC068F0BFC069F0A6EC19F00001B46F30
:100B5800010E000100017C6F0001B4518BEC28F0FC
:100B68000001B46F800E000100017C6F0001B451D8
:100B78008BEC28F025C07CF0ADEC28F026C07CF08A
:100B8800ADEC28F027C07CF0ADEC28F028C07CF054
:100B9800ADEC28F0BA86BA84BA82BA80BEC021F019
:100BA800BFC022F069EC28F0F50E050105016A5D69
:100BB800010E05016B59D8B0C4D5000E0001000123
:100BC800766F800E00010001776F3F0E0001000173
:100BD800786F28EC26F058EC1AF000010001D505D2
:100BE800D8B40BD000010001D605D8A466D0000106
:100BF8000001D351640AD8A460D082820001B46F86
:100C0800010E000100017C6F0001B4518BEC28F04B
:100C18000001B46F800E000100017C6F0001B45127
:100C28008BEC28F00101010E000100017E6F01012B
:100C38006A0E00017D6F0001B46F0D0E0001000106
:100C48007F6F0001B4513BEC27F00001B46F310E07
:100C5800000100017C6F0001B451ADEC28F00001E7
:100C6800B46F300E000100017C6F0001B451ADEC8F
:100C780028F00001B46F300E000100017C6F000104
:100C8800B451ADEC28F00001B46F250E000100014D
:100C98007C6F0001B451ADEC28F0000E000100019A
:100CA800766F800E00010001776F3F0E0001000192
:100CB800786F28EC26F058EC1AF000010001D405F2
:100CC800D8B409D000010001D605D8A454D0000139
:100CD8000001D36750D0BA96BA94BA92BA90829269
:100CE8000001B46F010E000100017C6F0001B451D6
:100CF8008BEC28F00001B46F800E000100017C6FBE
:100D08000001B4518BEC28F00101010E0001000133
:100D18007E6F01016A0E00017D6F0001B46F0D0E38
:100D2800000100017F6F0001B4513BEC27F0000186
:100D3800B46F300E000100017C6F0001B451ADECBE
:100D480028F00001B46F250E000100017C6F00013E
:100D5800B451ADEC28F0000E00010001766F800E52
:100D680000010001776F3F0E00010001786F28EC49
:100D780026F058EC1AF0EDEC28F00001B46F000EE4
:100D8800356E0001B451000E00010001BF6F000E66
:100D98000001BE6F000E00010001BD6F000E0001D2
:100DA800BC6F0001B46F000E00010001D36F000199
:100DB800B4510001B46F000E356E0001B451000E3D
:100DC80000010001BF6F000E0001BE6F000E0001A0
:100DD8000001BD6F000E0001BC6F0001B46F000E72
:100DE80000010001D36F0001B451EAEF00F00001E7
:100DF8007D6F000E00010001B36F00017D5153D3D8
:100E080000010001B351040D0201000EF324D96E54
:100E18000201020EF420DA6EDECF7DF0DECF7EF026
:100E2800DECF7FF0DECF80F000018051800A000124
:100E3800816F00010001795100017D5D0001000111
:100E48007A5100017E59000100017B5100017F5950
:100E5800000100017C51800A00018159D8B01ED2DE
:100E680000010001B35100017D6F7E6B0001D89035
:100E78007D377E370001D8907D377E37040E00011C
:100E88007D27000E7E230201000E00017D25D96E0C
:100E98000201020E00017E21DA6EDECF7FF0DECF86
:100EA80080F0DECF81F0DECF82F0000100017C51BE
:100EB800800A0001836F00017F5100010001795D04
:100EC80000018051000100017A590001815100019F
:100ED80000017B5900018251800A00018359D8B072
:100EE800DDD100010001B35100017D6F7E6B00016F
:100EF800D8907D377E370001D8907D377E37040E35
:100F080000017D27000E7E230401000E00017D25CF
:100F1800D96E0401040E00017E21DA6EDECF7FF067
:100F2800DECF80F0DECF81F0DECF82F0000100015D
:100F3800B351040D0401000EF324D96E0401040E0C
:100F4800F420DA6EDECF83F0DECF84F0DECF85F0DA
:100F5800DECF86F00001831F841F851F861F832B29
:100F6800000E84238523862300017F5100018325F9
:100F7800000100018B6F00018051000184210001F4
:100F88008C6F000181510001852100018D6F0001E6
:100F980082510001862100018E6F00010001B351CA
:100FA800040D0201000EF324D96E0201020EF42092
:100FB800DA6EDECF7DF0DECF7EF0DECF7FF0DECFE3
:100FC80080F000017D1F7E1F7F1F801F7D2B000E7C
:100FD8007E237F23802300010001795100017D25B4
:100FE800000100018F6F000100017A5100017E218C
:100FF8000001906F000100017B5100017F21000179
:10100800916F000100017C51000180210001926F65
:1010180000010001B35100017D6F7E6B0001D89083
:101028007D377E370001D8907D377E37040E00016A
:101038007D27000E7E230201000E00017D25D96E5A
:101048000201020E00017E21DA6EDECF7FF0DECFD4
:1010580080F0DECF81F0DECF82F000010001B351D5
:10106800040D0201000EF324D96E0201020EF420D1
:10107800DA6EDECF83F0DECF84F0DECF85F0DECF10
:1010880086F00001831F841F851F861F832B000E97
:1010980084238523862300017F51000183250001D5
:1010A8000001936F00018051000184210001946FB9
:1010B80000018151000185210001956F00018251D5
:1010C800000186210001966F8FC060F090C061F02A
:1010D80091C062F092C063F0E80E00010001646FF5
:1010E800030E0001656F000E0001666F000E00011F
:1010F800676FDAEC25F063C09AF062C099F061C0BE
:1011080098F060C097F097C06CF098C06DF099C0E7
:101118006EF09AC06FF093C070F094C071F095C0F3
:1011280072F096C073F0B3EC1FF06FC09EF06EC003
:101138009DF06DC09CF06CC09BF09BC064F09CC09F
:1011480065F09DC066F09EC067F08BC060F08CC0F3
:1011580061F08DC062F08EC063F0DAEC25F063C0F8
:101168006FF062C06EF061C06DF060C06CF0640E2C
:1011780000010001706F000E0001716F000E000188
:10118800726F000E0001736FB3EC1FF06FC0A2F016
:101198006EC0A1F06DC0A0F06CC09FF0000100010E
:1011A800B351040D0401000EF324D96E0401040E9A
:1011B800F420DA6E0001DECFA3F00001DECFA4F048
:1011C8000001DECFA5F00001DECFA6F0A3C060F0DD
:1011D800A4C061F0A5C062F0A6C063F00A0E0001C9
:1011E8000001646F000E0001656F000E0001666F5C
:1011F800000E0001676FDAEC25F063C0AAF062C048
:10120800A9F061C0A8F060C0A7F0000100019F51DB
:1012180000010001A72500010001AB6F00010001DA
:10122800A05100010001A8210001AC6F00010001DC
:10123800A15100010001A9210001AD6F00010001C9
:10124800A25100010001AA210001AE6FABC06CF0F1
:10125800ACC06DF0ADC06EF0AEC06FF0640E0001B2
:101268000001706F000E0001716F000E0001726FB7
:10127800000E0001736FB3EC1FF06FC08AF06EC0F0
:1012880089F06DC088F06CC087F087C079F088C09D
:101298007AF089C07BF08AC07CF019D10001000186
:1012A800B351040D0201000EF324D96E0201020E9F
:1012B800F420DA6EDECF7DF0DECF7EF0DECF7FF079
:1012C800DECF80F0000100017C510001801911E19E
:1012D800000100017B5100017F190BE100010001B1
:1012E8007A5100017E1905E10001000179510001E0
:1012F8007D19D8A428D000010001B351040D0401C0
:10130800000EF324D96E0401040EF420DA6E0001F5
:10131800DECF60F00001DECF61F00001DECF62F0C9
:101328000001DECF63F0640E00010001646F000E5F
:101338000001656F000E0001666F000E0001676F07
:1013480048EC15F06BD03CC07DF03DC07EF000014C
:10135800D8907D377E370001D8907D377E370201DF
:10136800000E00017D25D96E0201020E00017E21CA
:10137800DA6EDECF7FF0DECF80F0DECF81F0DECF19
:1013880082F000018251800A0001836F0001000190
:10139800795100017F5D000100017A5100018059F7
:1013A800000100017B5100018159000100017C51BD
:1013B800800A00018359D8B03AD03CC07DF03DC0C6
:1013C8007EF00001D8907D377E370001D8907D37B8
:1013D8007E370401000E00017D25D96E0401040E3C
:1013E80000017E21DA6E0001DECF60F00001DECF61
:1013F80061F00001DECF62F00001DECF63F0640E21
:1014080000010001646F000E0001656F000E00010D
:10141800666F000E0001676F48EC15F063C0B2F00C
:1014280062C0B1F061C0B0F060C0AFF02DD0000173
:1014380000017C51800A00017D6F02010201005108
:1014480000010001795D0201020101510001000162
:101458007A59020102010251000100017B5902017F
:1014680002010351800A00017D59D8B016D0000E40
:1014780000010001AF6F000E0001B06F000E000107
:10148800B16F000E0001B26FAFC079F0B0C07AF052
:10149800B1C07BF0B2C07CF01AD000010001B329C2
:1014A80000010001B36F00010001B35100017D6F1D
:1014B8007E6B00017E51800A00017F6F3C50000165
:1014C8007D5D3D50800A00017F59D8A099D4120053
:1014D80000017D6F000E00010001A06F00017D5129
:1014E800CAD200010001795100017D6F000100019D
:1014F8007A5100017E6F00017F6B0001806B000153
:101508000001A051040D0301000EF324D96E03015C
:10151800030EF420DA6EDECF81F0DECF82F0DECF6C
:1015280083F0DECF84F000018451800A0001856FCA
:1015380000017D510001815D00017E510001825949
:1015480000017F510001835900018051800A000188
:101558008559D8B09ED100010001A05100017D6FCE
:101568007E6B0001D8907D377E370001D8907D379B
:101578007E37040E00017D27000E7E230301000E36
:1015880000017D25D96E0301030E00017E21DA6E6C
:10159800DECF7FF0DECF80F0DECF81F0DECF82F0CD
:1015A8000001000179510001836F000100017A51A7
:1015B8000001846F0001856B0001866B0001865174
:1015C800800A0001876F00017F510001835D0001DF
:1015D80080510001845900018151000185590001A1
:1015E8008251800A00018759D8B053D10001000107
:1015F800A05100017D6F7E6B0001D8907D377E374A
:101608000001D8907D377E37040E00017D27000E3B
:101618007E230301000E00017D25D96E0301030E10
:1016280000017E21DA6EDECF7FF0DDCF80F0000191
:101638000001A051040D0301000EF324D96E03012B
:10164800030EF420DA6EDECF81F0DDCF82F00001E8
:10165800811F821F814B822B00017F510001812550
:1016680000010001966F00018051000182210001F4
:10167800976F00010001A051040D0301000EF3242F
:10168800D96E0301030EF420DA6EDECF7DF0DECFD3
:101698007EF0DECF7FF0DECF80F000017D1F7E1F61
:1016A8007F1F801F7D2B000E7E237F2380232E50DB
:1016B80000017D2500010001606F2F5000017E218F
:1016C8000001616F000E00017F210001626F000EB2
:1016D800000180210001636FE80E00010001646FC2
:1016E800030E0001656F000E0001666F000E000119
:1016F800676FDAEC25F063C08DF062C08CF061C0D2
:101708008BF060C08AF000010001A05100017D6FDC
:101718007E6B0001D8907D377E370001D8907D37E9
:101728007E37040E00017D27000E7E230201000E85
:1017380000017D25D96E0201020E00017E21DA6EBC
:10174800DECF7FF0DDCF80F000010001A051040D55
:101758000201000EF324D96E0201020EF420DA6EA3
:10176800DECF81F0DDCF82F00001811F821F814B27
:10177800822B00017F510001812500010001986F33
:1017880000018051000182210001996F8AC06CF02C
:101798008BC06DF08CC06EF08DC06FF00001000141
:1017A80096C070F00001000197C071F000010001BF
:1017B800726B0001736BB3EC1FF06FC091F06EC0D9
:1017C80090F06DC08FF06CC08EF08EC064F08FC04A
:1017D80065F090C066F091C067F00001000198C004
:1017E80060F00001000199C061F000010001626B26
:1017F8000001636BDAEC25F063C06FF062C06EF035
:1018080061C06DF060C06CF0E80E00010001706FFF
:10181800030E0001716F000E0001726F000E0001CF
:10182800736FB3EC1FF06FC095F06EC094F06DC08D
:1018380093F06CC092F000010001A051040D020168
:10184800000EF324D96E0201020EF420DA6E0001B4
:10185800DECF9AF00001DDCF9BF0000100019A5124
:10186800000100019225000100019C6F00010001A8
:101878009B5100010001932100019D6F000E0001A2
:101888000001942100019E6F000E000100019521C6
:10189800E1D03CC07DF03DC07EF00001D8907D379E
:1018A8007E370001D8907D377E37FC0E00017D25FC
:1018B80000017F6FFF0E00017E210001806F030190
:1018C800000E00017F25D96E0301030E000180215F
:1018D800DA6EDECF81F0DECF82F0DECF83F0DECFAE
:1018E80084F00001000179510001856F00010001B9
:1018F8007A510001866F0001876B0001886B000137
:101908008851800A0001896F000181510001855DBD
:101918000001825100018659000183510001875955
:1019280000018451800A00018959D8A00ED0000115
:1019380038C09CF0000139C09DF00001000E000184
:101948009DBFFF0E00019E6F85D000010001A051D0
:10195800040D0301000EF324D96E0301030EF420D5
:10196800DA6EDECF7DF0DECF7EF0DECF7FF0DECF29
:1019780080F00001000179510001816F0001000130
:101988007A510001826F0001836B0001846B0001B2
:101998008051000184190EE100017F510001831973
:1019A80009E100017E510001821904E100017D5125
:1019B80000018119D8A419D000010001A051040D1B
:1019C8000201000EF324D96E0201020EF420DA6E31
:1019D8000001DECF9CF00001DECF9DF00001DECFDC
:1019E8009EF00001DECF9FF037D000010001795151
:1019F80000017D6F000100017A5100017E6F000136
:101A08007F6B0001806B00018051800A0001816FAB
:101A180003010301005100017D5D03010301015130
:101A280000017E5903010301025100017F5903019E
:101A380003010351800A00018159D8B016D0000E65
:101A4800000100019C6F000E00019D6F000E000157
:101A58009E6F000E00019F6F9CC079F09DC07AF0C8
:101A68009EC07BF09FC07CF01AD000010001A02925
:101A780000010001A06F00010001A05100017D6F6D
:101A88007E6B00017E51800A00017F6F3C5000018F
:101A98007D5D3D50800A00017F59D8A022D51200F3
:101AA8007FD2EDEC28F0ACA2FED70001000E236E29
:101AB8000001E70E226E1CEC29F09A0E00010001CD
:101AC800766F990E00010001776F3E0E000100014C
:101AD800786F28EC26F00101010E226E0101B50E87
:101AE800216EBBEC26F022502110D8A407D00001AB
:101AF800856F000E356E000185514BD20001856F50
:101B0800000E356E000185510001856F420E44D2EA
:101B1800EDEC28F0ACA2FED70001000E236E000108
:101B2800D70E226E1CEC29F0000E00010001766F22
:101B3800400E00010001776F400E00010001786F30
:101B480028EC26F00101010E226E0101B50E216E6E
:101B5800BBEC26F022502110D8A417D00101010EA9
:101B6800226E0101B50E216E1EEC1EF022502110CE
:101B7800D8A40BD00001856F410E3F6E000185513E
:101B88000001856F000E356E08D20001856F000ECA
:101B9800356E000185510001856F430EFDD1EDECD6
:101BA80028F0ACA2FED70001000E236E0001E00E63
:101BB800226E1CEC29F09A0E00010001766F990E36
:101BC80000010001776F3E0E00010001786F28ECDC
:101BD80026F00101010E226E0101B50E216EBBEC4B
:101BE80026F022502110D8B4C5D70001856F000E09
:101BF800356E000185510001856F440ECDD1EDECA5
:101C080028F0ACA2FED70101010E236E01014E0E91
:101C1800226E1CEC29F09A0E00010001766F990ED5
:101C280000010001776F3E0E00010001786F28EC7B
:101C380026F00101010E226E0101B50E216EBBECEA
:101C480026F022502110D8B495D70001856F000ED8
:101C5800356E000185510001856F450E9DD1EDEC73
:101C680028F0ACA2FED70101010E236E01015C0E23
:101C7800226E1CEC29F09A0E00010001766F990E75
:101C880000010001776F3E0E00010001786F28EC1B
:101C980026F00101010E226E0101B50E216EBBEC8A
:101CA80026F022502110D8A40CD00101010E226E7A
:101CB8000101B50E216E18EC16F022502110D8B48F
:101CC80059D70001856F000E356E0001855100015E
:101CD800856F460E61D1EDEC28F0ACA2FED701016C
:101CE800010E236E0101100E226E1CEC29F09A0ED3
:101CF80000010001766F990E00010001776F3E0E1A
:101D080000010001786F28EC26F00101010E226E17
:101D18000101B50E216EBBEC26F022502110D8B47B
:101D280029D70001856F000E356E0001855100012D
:101D3800856F470E31D1EDEC28F0ACA2FED7030138
:101D4800030E236E0301B00E226E1CEC29F09A0ECE
:101D580000010001766F990E00010001776F3E0EB9
:101D680000010001786F28EC26F00101010E226EB7
:101D78000101B50E216EBBEC26F022502110D8B41B
:101D8800F9D60001856F000E356E000185510001FE
:101D9800856F480E01D1EDEC28F0ACA2FED7020108
:101DA800020E236E0201B00E226E1CEC29F09A0E70
:101DB80000010001766F990E00010001776F3E0E59
:101DC80000010001786F28EC26F00101010E226E57
:101DD8000101B50E216EBBEC26F022502110D8A4CB
:101DE8000FD0000E00010001766F800E0001000187
:101DF800776F3F0E00010001786F28EC26F0BAD605
:101E08000001856F000E356E000185510001856F58
:101E1800490EC2D0EDEC28F0ACA2FED70301030EA8
:101E2800236E0301D70E226E1CEC29F09A0E0001D6
:101E38000001766F990E00010001776F3E0E0001D8
:101E48000001786F28EC26F00101010E226E0101D5
:101E5800B50E216EBBEC26F022502110D8B48AD6DC
:101E68000001856F000E356E000185510001856FF8
:101E78004A0E92D0EDEC28F0ACA2FED70201020E79
:101E8800236E0201D70E226E1CEC29F09A0E000177
:101E98000001766F990E00010001776F3E0E000178
:101EA8000001786F28EC26F00101010E226E010175
:101EB800B50E216EBBEC26F022502110D8B45AD6AC
:101EC8009A0E00010001766F990E00010001776FEC
:101ED8003E0E00010001786F28EC26F00001856FA6
:101EE800000E356E000185513EC03FF00001856F40
:101EF800010E000100017C6F000185518BEC28F078
:101F08000101010E000100017E6F0101200E000198
:101F18007D6F0001856F100E000100017F6F0001C9
:101F280085513BEC27F0000E00010001766F000E92
:101F380000010001776F400E00010001786F28EC66
:101F480026F00001856F010E000100017C6F000181
:101F580085518BEC28F00001856FC00E000100014F
:101F68007C6F000185518BEC28F00101010E000106
:101F780000017E6F0101400E00017D6F0001856F39
:101F88000E0E000100017F6F000185513BEC27F028
:101F980027D00001856F410E3F6E0001855120D08A
:101FA8003F50410AD8B47DD5030AD8B4B1D5010A47
:101FB800D8B4F5D5070AD8B422D6010AD8B44FD672
:101FC800030AD8B488D6010AD8B4B5D60F0AD8B44B
:101FD800E2D6010AD8B41ED7030AD8B44BD7D9D74A
:101FE8001200000E00010001736F000E0001726FF5
:101FF800F5D1000100017251000100016425D96E7C
:10200800000100017351000100016521DA6E440EE0
:10201800DF62E0D1010E0001000172250001666F48
:10202800000E0001000173210001676F0001665175
:10203800000100016425D96E00016751000100010B
:102048006521DA6E750EDF62C5D1020E000100014E
:1020580072250001666F000E000100017321000166
:10206800676F00016651000100016425D96E000107
:102078006751000100016521DA6E740EDF62AAD192
:10208800030E0001000172250001666F000E0001B9
:10209800000173210001676F000166510001000112
:1020A8006425D96E00016751000100016521DA6ECF
:1020B800790EDF628FD1040E000100017225000144
:1020C800666F000E0001000173210001676F0001B7
:1020D8006651000100016425D96E000167510001B5
:1020E80000016521DA6E3D0EDF6274D1060E000133
:1020F800000172250001666F000E000100017321C6
:102108000001676F00016651000100016425D96E66
:1021180000016751000100016521DA6E260EDF62B9
:1021280025D0050E0001000172250001666F000E22
:102138000001000173210001676F00016651000171
:1021480000016425D96E0001675100010001652175
:10215800DA6EDF50216E8BEC25F021C06EF022C0C4
:102168006FF06EC070F06FC071F078D0070E00018C
:10217800000172250001666F000E00010001732145
:102188000001676F00016651000100016425D96EE6
:1021980000016751000100016521DA6E260EDF6239
:1021A80062D0050E0001000172250001666F000E65
:1021B8000001000173210001676F000166510001F1
:1021C80000016425D96E00016751000100016521F5
:1021D800DA6EDF50216E8BEC25F021C06CF022C046
:1021E8006DF0060E0001000172250001666F000EF9
:1021F8000001000173210001676F000166510001B1
:1022080000016425D96E00016751000100016521B4
:10221800DA6EDF50216E8BEC25F021C06EF022C003
:102228006FF06CC060F06DC061F0000E000100013D
:10223800636F0A0E0001626F40EC28F00001000194
:102248006E5100010001602500010001706F00015E
:1022580000016F51000100016121B9D070C064F024
:1022680071C065F0CBD0080E000100017225000195
:10227800666F000E0001000173210001676F000105
:102288006651000100016425D96E00016751000103
:1022980000016521DA6E260EDF629CD0050E000172
:1022A800000172250001666F000E00010001732114
:1022B8000001676F00016651000100016425D96EB5
:1022C80000016751000100016521DA6EDF50216EBF
:1022D8008BEC25F021C06AF022C06BF0060E0001DD
:1022E800000172250001666F000E000100017321D4
:1022F8000001676F00016651000100016425D96E75
:1023080000016751000100016521DA6EDF50216E7E
:102318008BEC25F021C06CF022C06DF0070E000197
:10232800000172250001666F000E00010001732193
:102338000001676F00016651000100016425D96E34
:1023480000016751000100016521DA6EDF50216E3E
:102358008BEC25F021C06EF022C06FF06AC060F0EF
:102368006BC061F0000E00010001636F640E000194
:10237800626F40EC28F060C066F061C067F06CC026
:1023880060F06DC061F0000E00010001636F0A0E7D
:102398000001626F40EC28F000010001605100016B
:1023A80066250001686F0001000161510001672185
:1023B8000001696F000100016E51000168250001EC
:1023C8000001706F000100016F51000169210001D7
:1023D800716F44D700010001724B732B3C0E000152
:1023E8000001725D000E00017359D8A002D6000EDC
:1023F80000010001656F650E0001646F1200000E98
:1024080000010001636F000E0001626F2FD100010F
:10241800000162512124D96E00010001635122207C
:10242800DA6E440EDF621ED1010E00010001622542
:102438000001606F000E0001000163210001616F5F
:10244800000160512124D96E000161512220DA6E09
:10245800750EDF6207D1020E00010001622500013E
:10246800606F000E0001000163210001616F00012F
:1024780060512124D96E000161512220DA6E740E58
:10248800DF62F0D0030E0001000162250001606FD9
:10249800000E0001000163210001616F000160511D
:1024A8002124D96E000161512220DA6E790EDF6293
:1024B800D9D0040E0001000162250001606F000EF2
:1024C8000001000163210001616F000160512124B6
:1024D800D96E000161512220DA6E3D0EDF62C2D052
:1024E800060E0001000162250001606F000E000168
:1024F800000163210001616F000160512124D96E40
:10250800000161512220DA6E260EDF621CD0050E12
:102518000001000162250001606F000E000100014A
:1025280063210001616F000160512124D96E00010F
:1025380061512220DA6EDF502A6E0001606F300E82
:10254800296E00016051070E00010001622500019B
:10255800606F000E0001000163210001616F00013E
:1025680060512124D96E000161512220DA6E260EB5
:10257800DF622CD0050E0001000162250001606FAA
:10258800000E0001000163210001616F000160512C
:102598002124D96E000161512220DA6EDF50296EA4
:1025A800060E0001000162250001606F000E0001A7
:1025B800000163210001616F000160512124D96E7F
:1025C800000161512220DA6EDF502A6E080E0001E8
:1025D800000162250001606F000E00010001632107
:1025E8000001616F000160512124D96E0001615121
:1025F8002220DA6E260EDF6212D00001606F300EE4
:102608002B6E000160510001606F300E2A6E0001D0
:1026180060510001606F310E296E00016051050E96
:102628000001000162250001606F000E0001000139
:1026380063210001616F000160512124D96E0001FE
:1026480061512220DA6E300EDF620CD00001606F1B
:10265800300E296E000160510001606F300E2A6E45
:102668000001605100010001624B632B3C0E000128
:102678000001625D000E00016359D8B01200C7D690
:102688000001000E00010001766F00016F0E0001CD
:10269800756FE2D0000100017E51250AD8B40CD034
:1026A8006BC0D9FF6CC0DAFF00017EC0DFFF0001FC
:1026B80000016B4B6C2BD0D00001736F000E000132
:1026C8000001776F00017351000100016D51000195
:1026D800736F000100016E510001746F00016D4BB2
:1026E8006E2B73C0F6FF74C0F7FF000EF86E08007B
:1026F8000001F5CF7EF000017E51000AD8B4C6D0A3
:10270800640AD8A40D0AD8A4A7D075C0D9FF76C08A
:10271800DAFF0001DECF79F00001DDCF7AF0020E9A
:10272800000100017527000E000176230001000159
:102738007AAF0BD0030E00010001771300010001EE
:10274800796D00017A1FD8B07A2B0001736F010EE2
:10275800000100017E6F00017351000100017E51EC
:10276800050AD8B423D0000100017E51020DD40E11
:10277800F324F66E7E0EF420F76EF86A000EF82247
:102788000900F5CF73F00900F5CF74F0000173511B
:1027980000010001795D00017451000100017A59BE
:1027A800D8A004D0000100017E2BD7D7000100017A
:1027B8007751030BD8B40AD06BC0D9FF6CC0DAFFCD
:1027C8002D0EDF6E000100016B4B6C2B7EC078F084
:1027D8003CD0000100017851020DD40EF324F66EAE
:1027E8007E0EF420F76EF86A000EF8220900000148
:1027F800F5CF62F00A000001F5CF63F079C060F010
:102808007AC061F0E6EC24F0000160C067F00001D6
:1028180061C068F0000E000100016A6F0A0E000135
:10282800696FFEEC26F0000100016751300F0001CE
:1028380000017E6F6BC0D9FF6CC0DAFF00017EC05B
:10284800DFFF000100016B4B6C2B000100017807D2
:1028580000017829D8A4BDD7000100016D510001FD
:10286800736F000100016E510001746F00016D4B20
:102878006E2B73C0F6FF74C0F7FF000EF86E0800E9
:102888000001F5CF7EF000017E6704D76BC0D9FF49
:102898006CC0DAFF000EDF6E12000F0E00016B6FC6
:1028A800000165C06CF0000166C06DF0000167C0F2
:1028B8006EF000016B2900016F6F05D00001D89000
:1028C8006E336D336C3300016F2FF8D700016C51F4
:1028D80000010001706F0001706701D021D00F0E58
:1028E80000016B6F000168C06CF0000169C06DF0F9
:1028F80000016AC06EF000016B2900016F6F05D0FE
:102908000001D8906E336D336C3300016F2FF8D708
:1029180000016C5100010001756F000175670DD051
:10292800000E00010001656F000E00010001666FD6
:10293800000E00010001676FA6D00001000175516B
:102948007B0F00010001702767C075F000016A5114
:1029580000010001751B800E0001000175170001C0
:102968000001668F00010001698FFF0E0001000160
:102978006817FF0E000100016917000E0001000131
:102988006A17000E00010001716F000E00010001BE
:10299800726F000E00010001736F00016B6F070E6C
:1029A80000010001746F00016B510001000165A175
:1029B80012D00001000168510001000171270001D7
:1029C80000016951000100017223000100016A51F0
:1029D8000001000173230001D89000016733000152
:1029E8006633000165330001D890000168370001A3
:1029F800693700016A3700010001742FD6D700013A
:102A08006B6F090E00010001746F00016B5100012A
:102A1800000165A112D00001000168510001000108
:102A280071270001000169510001000172230001B2
:102A380000016A510001000173230001D8900001D0
:102A4800673300016633000165330001D890000147
:102A58007333000172330001713300010001742FD8
:102A6800D6D771C060F072C061F073C062F070C0F8
:102A780063F075C064F0AAEC1BF062C067F061C037
:102A880066F060C065F01200216E000E00010001C2
:102A9800696F21500001000167AF16D000010001E5
:102AA800671F0001661F0001651F0001646D000EAD
:102AB800000165230001662300016723216E010ED2
:102AC80000010001696F21500001000163AF14D0BB
:102AD80000010001631F0001621F0001611F000166
:102AE800606D000E00016123000162230001632371
:102AF800010E00010001691B000E000100016A6F50
:102B0800000E00016B6F000E00016C6F000E0001DB
:102B18006D6F000100016751641165116611D8B429
:102B280065D0216E010E00010001686F21500DD0A3
:102B38000001D8900001643700016537000166374D
:102B48000001673700010001682B0001000167AF31
:102B5800EFD70001D89000016A3700016B370001F8
:102B68006C3700016D37000100016451000100015C
:102B7800605D00010001655100010001615900011B
:102B8800000166510001000162590001000167510E
:102B9800000100016359D8A01BD000010001645155
:102BA80000010001605F00010001655100010001A2
:102BB800615B00010001665100010001625B0001D8
:102BC8000001675100010001635B000100016A8197
:102BD8000001D890000167330001663300016533B6
:102BE8000001643300010001682FB3D70001000120
:102BF8006951D8B410D0000100016D1F00016C1F8D
:102C080000016B1F00016A6D000E00016B230001BB
:102C18006C2300016D236AC060F06BC061F06CC06A
:102C280062F06DC063F01200000E00010001636FD6
:102C3800000E0001626F9FD0000100016251212443
:102C4800D96E0001000163512220DA6E620EDF6244
:102C58008ED0010E0001000162250001606F000E98
:102C68000001000163210001616F0001605121240E
:102C7800D96E000161512220DA6E750EDF6277D0BD
:102C8800020E0001000162250001606F000E0001C4
:102C9800000163210001616F000160512124D96E98
:102CA800000161512220DA6E690EDF6260D0030EE6
:102CB8000001000162250001606F000E00010001A3
:102CC80063210001616F000160512124D96E000168
:102CD80061512220DA6E6C0EDF6249D0040E0001C9
:102CE800000162250001606F000E000100016321F0
:102CF8000001616F000160512124D96E000161510A
:102D08002220DA6E640EDF6232D0050E0001000167
:102D180062250001606F000E0001000163210001BF
:102D2800616F000160512124D96E00016151222098
:102D3800DA6E650EDF621BD0060E00010001622507
:102D48000001606F000E0001000163210001616F46
:102D5800000160512124D96E000161512220DA6EF0
:102D6800640EDF6204D0000E226E010E11D0000145
:102D78000001624B632B000100016351800A800F40
:102D88003C0ED8B4625DD8A057D7000E226E000E54
:102D9800216E1200000E00010001636F000E000199
:102DA800626F9FD00001000162512124D96E000199
:102DB800000163512220DA6E420EDF628ED0010ECE
:102DC8000001000162250001606F000E0001000192
:102DD80063210001616F000160512124D96E000157
:102DE80061512220DA6E4F0EDF6277D0020E0001A9
:102DF800000162250001606F000E000100016321DF
:102E08000001616F000160512124D96E00016151F8
:102E18002220DA6E540EDF6260D0030E000100013A
:102E280062250001606F000E0001000163210001AE
:102E3800616F000160512124D96E00016151222087
:102E4800DA6E410EDF6249D0040E000100016225EE
:102E58000001606F000E0001000163210001616F35
:102E6800000160512124D96E000161512220DA6EDF
:102E78004F0EDF6232D0050E00010001622500010D
:102E8800606F000E0001000163210001616F000105
:102E980060512124D96E000161512220DA6E3D0E65
:102EA800DF621BD0060E0001000162250001606F81
:102EB800000E0001000163210001616F00016051F3
:102EC8002124D96E000161512220DA6E430EDF629F
:102ED80004D0000E226E010E11D000010001624BD9
:102EE800632B000100016351800A800F3C0ED8B4A7
:102EF800625DD8A057D7000E226E000E216E120018
:102F0800000E00010001636F000E0001626F9FD088
:102F18000001000162512124D96E000100016351B2
:102F28002220DA6E420EDF628ED0010E000100010F
:102F380062250001606F000E00010001632100019D
:102F4800616F000160512124D96E00016151222076
:102F5800DA6E4F0EDF6277D0020E000100016225A3
:102F68000001606F000E0001000163210001616F24
:102F7800000160512124D96E000161512220DA6ECE
:102F8800540EDF6260D0030E0001000162250001CB
:102F9800606F000E0001000163210001616F0001F4
:102FA80060512124D96E000161512220DA6E410E50
:102FB800DF6249D0040E0001000162250001606F44
:102FC800000E0001000163210001616F00016051E2
:102FD8002124D96E000161512220DA6E4F0EDF6282
:102FE80032D0050E0001000162250001606F000E5D
:102FF8000001000163210001616F0001605121247B
:10300800D96E000161512220DA6E3D0EDF621BD0BD
:10301800060E0001000162250001606F000E00012C
:10302800000163210001616F000160512124D96E04
:10303800000161512220DA6E440EDF6204D0000ED6
:10304800226E010E11D000010001624B632B0001BA
:1030580000016351800A800F3C0ED8B4625DD8A08D
:1030680057D7000E226E000E216E1200000E0001CE
:103078000001636F000E0001626F9FD00001000124
:1030880062512124D96E0001000163512220DA6EB9
:10309800420EDF628ED0010E0001000162250001A0
:1030A800606F000E0001000163210001616F0001E3
:1030B80060512124D96E000161512220DA6E4F0E31
:1030C800DF6277D0020E0001000162250001606F07
:1030D800000E0001000163210001616F00016051D1
:1030E8002124D96E000161512220DA6E540EDF626C
:1030F80060D0030E0001000162250001606F000E20
:103108000001000163210001616F00016051212469
:10311800D96E000161512220DA6E410EDF6249D07A
:10312800040E0001000162250001606F000E00011D
:10313800000163210001616F000160512124D96EF3
:10314800000161512220DA6E4F0EDF6232D0050E87
:103158000001000162250001606F000E00010001FE
:1031680063210001616F000160512124D96E0001C3
:1031780061512220DA6E3D0EDF621BD0060E00017F
:10318800000162250001606F000E0001000163214B
:103198000001616F000160512124D96E0001615165
:1031A8002220DA6E4C0EDF6204D0000E226E010E71
:1031B80011D000010001624B632B00010001635133
:1031C800800A800F3C0ED8B4625DD8A057D7000E95
:1031D800226E000E216E1200000E00010001636FC6
:1031E800000E0001626F9FD000010001625121248E
:1031F800D96E0001000163512220DA6E430EDF62AE
:103208008ED0010E0001000162250001606F000EE2
:103218000001000163210001616F00016051212458
:10322800D96E000161512220DA6E4F0EDF6277D02D
:10323800020E0001000162250001606F000E00010E
:10324800000163210001616F000160512124D96EE2
:10325800000161512220DA6E4E0EDF6260D0030E4B
:103268000001000162250001606F000E00010001ED
:1032780063210001616F000160512124D96E0001B2
:1032880061512220DA6E4E0EDF6249D0040E000131
:10329800000162250001606F000E0001000163213A
:1032A8000001616F000160512124D96E0001615154
:1032B8002220DA6E450EDF6232D0050E00010001D1
:1032C80062250001606F000E00010001632100010A
:1032D800616F000160512124D96E000161512220E3
:1032E800DA6E430EDF621BD0060E00010001622574
:1032F8000001606F000E0001000163210001616F91
:10330800000160512124D96E000161512220DA6E3A
:10331800540EDF6204D0000E226E010E11D000019F
:103328000001624B632B000100016351800A800F8A
:103338003C0ED8B4625DD8A057D7000E226E000E9E
:10334800216E120068C060F069C061F0270E0001AC
:103358000001636F100E0001626F2EEC1FF0000178
:1033680060C06AF0000161C06BF068C060F069C0BD
:1033780061F0270E00010001636F100E0001626FFB
:103388006DEC23F0000160C074F0000161C075F0BD
:1033980074C060F075C061F0030E00010001636F36
:1033A800E80E0001626F2EEC1FF0000160C06CF0A7
:1033B800000161C06DF074C060F075C061F0030E6B
:1033C80000010001636FE80E0001626F6DEC23F0ED
:1033D800000160C076F0000161C077F076C060F04F
:1033E80077C061F0000E00010001636F640E0001F8
:1033F800626F2EEC1FF0000160C06EF0000161C02A
:103408006FF076C060F077C061F0000E0001000137
:10341800636F640E0001626F6DEC23F0000160C001
:1034280078F0000161C079F078C060F079C061F08F
:10343800000E00010001636F0A0E0001626F2EEC9E
:103448001FF0000160C070F0000161C071F078C029
:1034580060F079C061F0000E00010001636F0A0E90
:103468000001626F6DEC23F0000160C072F0000192
:1034780061C073F0000100016A51300F246E000131
:1034880000016C51300F256E000100016E51300FA4
:10349800266E000100017051300F276E00010001F7
:1034A8007251300F286E12000201020E236E0201C3
:1034B800C40E226E1CEC29F0000E00010001766F8C
:1034C800800E00010001776F3E0E00010001786F49
:1034D80028EC26F0060E236EB40E226E1CEC29F0A2
:1034E800000E00010001766F800E00010001776F69
:1034F8003E0E00010001786F28EC26F00401040E4E
:10350800236E0401B00E226E1CEC29F0BEC060F0E0
:10351800BFC061F0000E00010001636F0A0E0001D8
:10352800626FE6EC24F0000160C080F0000161C029
:1035380081F0BEC060F0BFC061F0000E0001000164
:10354800636F0A0E0001626FE6EC24F0000160C0B0
:1035580082F0000161C083F0050E000100016C6F6C
:103568007E0E00016B6F7E0E000100016E6FDE0E95
:1035780000016D6F80C06FF081C070F082C071F083
:1035880083C072F044EC13F0050E236E7E0E226E9B
:103598001CEC29F0050E000100016C6F7E0E000185
:1035A8006B6F7F0E000100016E6FE80E00016D6FFA
:1035B800BEC06FF0BFC070F044EC13F0050E236E70
:1035C8007E0E226E1CEC29F00501050E236E050106
:1035D800000E226E1CEC29F000017F6F0D0E216E8B
:1035E80000017F5175EC29F000017F6F0A0E216EF2
:1035F80000017F5175EC29F000017F6F000E356ED8
:1036080000017F51EDEC28F0120005EE7EF011EE7E
:1036180036F0EE6AE550E150FCE1E250FAE101EEE5
:10362800B5F03C0EEE6AE806FDE100EEB8F01F0EBC
:10363800EE6AE806FDE100EE24F0120EEE6AE806F6
:10364800FDE10A0EF66E3B0EF76E000EF86E06EE02
:10365800B4F011EE31F00900F5CFEEFFE550E1507E
:10366800FAE1E250F8E12E0EF66E500EF76E000EFB
:10367800F86E05EE00F010EE52F00900F5CFEEFFFF
:10368800E550E150FAE1300EF66E440EF76E000E8A
:10369800F86E04EE00F010EEE5F00900F5CFEEFF4D
:1036A800E550E150FAE1580EF66E420EF76E000E44
:1036B800F86E03EE00F010EEF0F00900F5CFEEFF23
:1036C800E550E150FAE1480EF66E430EF76E000E33
:1036D800F86E02EE00F010EEE8F00900F5CFEEFF0C
:1036E800E550E150FAE1620EF66E480EF76E000EF4
:1036F800F86E01EE00F010EEB5F00900F5CFEEFF20
:10370800E550E150FAE1C00EF66E520EF76E000E6B
:10371800F86E00EED7F010EE15F00900F5CFEEFFC9
:10372800E550E150FAE1060EF66E530EF76E000E04
:10373800F86E00EE36F010EE0AF00900F5CFEEFF55
:10374800E550E150FAE1000163EF00F000010001EB
:103758006351D8B409D00001000160510001611122
:1037680000016211D8A418D0000E00010001606F9A
:10377800000E00010001616F000E00010001626F80
:1037880085D000010001632B0001D890000162334D
:103798000001613300016033000E00010001601573
:1037A800216E000E000100016115226EFE0E00015F
:1037B80000016215236E215022102310D8B418D0AE
:1037C800E0D700010001632B010E00010001602712
:1037D800000E000100016123000E000100016223B8
:1037E8000001D890000162330001613300016033A9
:1037F800000E000100016015216E000E000100019D
:103808006115226EFF0E000100016215236E215022
:1038180022102310D8B40CD0D4D7000100016307BC
:103828000001D8900001603700016137000162375C
:103838000001000161AFF1D70001000163B103D0BD
:1038480000010001619F0001D8906333000100016D
:103858006351236E226A216A21500001000160131E
:10386800225000010001611323500001000162137E
:10387800000100016451D8B403D000010001628F37
:1038880060C060F061C061F062C062F01200000EBA
:1038980000010001636F000E0001626F88D0000113
:1038A800000162512124D96E0001000163512220D8
:1038B800DA6E430EDF6277D0010E00010001622547
:1038C8000001606F000E0001000163210001616FBB
:1038D800000160512124D96E000161512220DA6E65
:1038E8004C0EDF6260D0020E00010001622500016B
:1038F800606F000E0001000163210001616F00018B
:1039080060512124D96E000161512220DA6E4F0ED8
:10391800DF6249D0030E0001000162250001606FDB
:10392800000E0001000163210001616F0001605178
:103938002124D96E000161512220DA6E530EDF6214
:1039480032D0040E0001000162250001606F000EF4
:103958000001000163210001616F00016051212411
:10396800D96E000161512220DA6E450EDF621BD04C
:10397800050E0001000162250001606F000E0001C4
:10398800000163210001616F000160512124D96E9B
:10399800000161512220DA6E440EDF6204D0000E6D
:1039A800226E010E11D000010001624B632B000151
:1039B80000016351800A800F3C0ED8B4625DD8A024
:1039C8006ED7000E226E000E216E120038C072F003
:1039D80039C073F0000E000173BFFF0E746F756F6E
:1039E8000001000171510001751911E10001000188
:1039F8007051000174190BE1000100016F510001C1
:103A0800731905E1000100016E5100017219D8A473
:103A180008D0270E00010001876F100E0001866F85
:103A28006BD06EC076F06FC077F070C078F071C060
:103A380079F076C060F077C061F078C062F079C044
:103A480063F00A0E00010001646F000E0001656F4B
:103A5800000E0001666F000E0001676FDAEC25F0BA
:103A680063C07DF062C07CF061C07BF060C07AF01A
:103A78007AC060F07BC061F07CC062F07DC063F00A
:103A88000A0E00010001646F000E0001656F000E50
:103A98000001666F000E0001676FDAEC25F063C065
:103AA80081F062C080F061C07FF060C07EF07EC0AF
:103AB80060F07FC061F080C062F081C063F00001F7
:103AC80038C064F0000139C065F00001000E000143
:103AD80065BFFF0E0001666F0001676F48EC15F0C7
:103AE80063C085F062C084F061C083F060C082F07A
:103AF80082C086F083C087F086C06EF087C06FF002
:103B080012003C68746D6C3E3C686561643E3C6DB7
:103B180065746120687474702D65717569763D22CD
:103B2800726566726573682220636F6E74656E7461
:103B38003D223330223E3C7469746C653E544343E5
:103B48002041647269616E653C2F7469746C653ECE
:103B58003C2F686561643E3C68313E50524F475285
:103B6800414D4120455350383236363C2F68313E5E
:103B78003C626F647920616C69676E3D2263656E93
:103B8800746572223E3C424F4459204247434F4C91
:103B98004F523D2223423043344445223E3C703E3E
:103BA8003C666F726D206D6574686F643D22474591
:103BB80054223E3C2F703E3C5441424C453E3C54BE
:103BC800523E3C696E70757420747970653D22733D
:103BD80075626D697422206E616D653D22424F5495
:103BE800414F222076616C75653D224C6967617290
:103BF800223E3C696E70757420747970653D22733D
:103C080075626D697422206E616D653D22424F5464
:103C1800414F222076616C75653D224465736C695D
:103C280067617222203E3C54523E3C2F5441424C24
:103C3800453E0000000E00010001636F000E000108
:103C4800626F71D00001000162512124D96E000118
:103C5800000163512220DA6E720EDF6260D0010E1D
:103C68000001000162250001606F000E00010001E3
:103C780063210001616F000160512124D96E0001A8
:103C880061512220DA6E650EDF6249D0020E000112
:103C9800000162250001606F000E00010001632130
:103CA8000001616F000160512124D96E000161514A
:103CB8002220DA6E610EDF6232D0030E00010001AD
:103CC80062250001606F000E000100016321000100
:103CD800616F000160512124D96E000161512220D9
:103CE800DA6E640EDF621BD0040E0001000162254B
:103CF8000001606F000E0001000163210001616F87
:103D0800000160512124D96E000161512220DA6E30
:103D1800790EDF6204D0000E226E010E11D0000170
:103D28000001624B632B000100016351800A800F80
:103D38003C0ED8B4625DD8A085D7000E226E000E66
:103D4800216E1200000E00010001636F000E0001D9
:103D5800626F71D00001000162512124D96E000107
:103D6800000163512220DA6E420EDF6260D0010E3C
:103D78000001000162250001606F000E00010001D2
:103D880063210001616F000160512124D96E000197
:103D980061512220DA6E4F0EDF6249D0020E000117
:103DA800000162250001606F000E0001000163211F
:103DB8000001616F000160512124D96E0001615139
:103DC8002220DA6E540EDF6232D0030E00010001A9
:103DD80062250001606F000E0001000163210001EF
:103DE800616F000160512124D96E000161512220C8
:103DF800DA6E410EDF621BD0040E0001000162255D
:103E08000001606F000E0001000163210001616F75
:103E1800000160512124D96E000161512220DA6E1F
:103E28004F0EDF6204D0000E226E010E11D0000189
:103E38000001624B632B000100016351800A800F6F
:103E48003C0ED8B4625DD8A085D7000E226E000E55
:103E5800216E1200216E000E00010001656F2150D5
:103E68000001000163AF0DD000010001626D000187
:103E7800631FD8B0632B216E010E00010001656F2E
:103E880021500001000161AF0BD000010001606DFD
:103E98000001611FD8B0612B010E00010001651BF4
:103EA800000E00010001676F000E0001666F00013F
:103EB800000163516211D8B441D0216E010E000196
:103EC8000001646F215009D0000100010001D89061
:103ED8006237633700010001642B0001000163AF02
:103EE800F3D7000100010001D89066376737000159
:103EF8000001625100010001605D00010001635191
:103F0800000100016159D8A00FD0000100016251E1
:103F180000010001605F0001000163510001000120
:103F2800615B000100016681000100010001D89079
:103F38006333623300010001642FD3D7000100010D
:103F48006551D8B407D000010001666D0001671FF4
:103F5800D8B0672B66C060F067C061F01200000E31
:103F680000010001746F000E0001756F000E000162
:103F7800766F000E0001776F000100017351701118
:103F880071117211D8B465D0216E010E00010001C3
:103F9800786F21500DD00001D890000170370001D2
:103FA8007137000172370001733700010001782B67
:103FB8000001000173AFEFD70001D89000017437FA
:103FC80000017537000176370001773700010001DD
:103FD8007051000100016C5D000100017151000188
:103FE80000016D59000100017251000100016E5974
:103FF800000100017351000100016F59D8A01BD0C6
:10400800000100017051000100016C5F0001000116
:104018007151000100016D5B000100017251000146
:1040280000016E5B000100017351000100016F5B2C
:104038000001000174810001D89000017333000170
:104048007233000171330001703300010001782FD1
:10405800B3D774C06CF075C06DF076C06EF077C0E1
:104068006FF01200000E956E000E966E000E8C6EAC
:10407800000E8D6E8D908D948D920001856F010ECE
:10408800000100017C6F000185518BEC28F00001D4
:10409800856F3C0E000100017C6F000185518BEC9F
:1040A80028F00001856F060E000100017C6F0001F9
:1040B80085518BEC28F00001856F0C0E0001000182
:1040C8007C6F000185518BEC28F00001856F840E10
:1040D800000100017C6F000185518BEC28F0010183
:1040E800010E000100017E6F0101A30E00017D6F2A
:1040F8000001856F090E000100017F6F00018551E5
:104108003BEC27F00001856FC20E000100017C6FB7
:10411800000185518BEC28F00101010E000100011E
:104128007E6F0101770E00017D6F0001856F0C0E17
:10413800000100017F6F000185513BEC27F0000E64
:1041480000010001766F000E00010001776F400E3C
:1041580000010001786F28EC26F012000001000130
:104168006CAF21D000016AC070F000016BC071F023
:1041780000016CC072F00001701F711F721F702B5C
:10418800000E71237223000E00017025000100014A
:104198006A6F000E0001712100016B6F800E000133
:1041A800722100016C6F000100016FAF21D0000186
:1041B8006DC070F000016EC071F000016FC072F048
:1041C8000001701F711F721F702B000E7123722364
:1041D800000E00017025000100016D6F000E000146
:1041E800712100016E6F800E0001722100016F6F56
:1041F800000E000100016A1B000E000100016B1B8C
:10420800800E000100016C1B000E000100016D1BF7
:10421800000E000100016E1B800E000100016F1BE3
:10422800000100016D51000100016A5D00010001FB
:104238006E51000100016B59000100016F5100012E
:1042480000016C59D8B002D0D89001D0D8801200A3
:10425800040000000600000007000000D30400006E
:10426800D40D0000500F00003E100000D7100000D1
:104278008C110000CF110000FA1100001F1200007D
:10428800581200006D1200007F1200008F1200000B
:10429800A9120000B4120000BE120000C7120000EC
:1042A800D6120000DC120000E2120000E712000043
:1042B800F0120000F4120000F8120000FC120000D6
:1042C8000313000005130000081300000A13000080
:1042D800C812000011130000131300001613000089
:1042E800191300001C1300001D1300001E1300000A
:1042F8001F130000201300002013000020130000EB
:1043080041542B43575341503D2245535041647209
:1043180069616E65222C22323334353637383922BA
:104328002C372C320D0A0041542B43495041503D43
:10433800223139322E3136382E352E31220D0A00EF
:104348001F00000037000000900000002501000059
:104358000F03000064040000FE050000D3070000FE
:10436800380C0000D90E00008011000082140000F3
:10437800441B0000FA1E0000EC2200001027000079
:10438800F82F0000EE340000F83900003E3F00002E
:10439800424A0000EC4F0000F45600005C5D00004B
:1043A800C26A0000AC710000DC7800003E800000AA
:1043B800668F000064960000349E000068A6000026
:1043C80034B7000010BD000018C4000028D2000057
:1043D800E8E4000048EE000070F8000020FD00004E
:1043E80048070100F80B0100500E0100500E0100B3
:1043F80041542B4349505345525645523D312C3870
:10440800300D0A0041542B43495053454E443D302A
:104418002C3732300D0A0041542B43495053544F26
:104428003D313030300D0A0000000000C8000000A7
:104438009001000058020000E8030000B0040000EA
:104448007805000040060000D0070000980800002A
:1044580060090000280A0000B80B0000800C00006A
:10446800480D0000100E0000A00F000068100000AA
:1044780030110000F81100008813000050140000EB
:1044880018150000E015000070170000381800002B
:1044980000190000C8190000581B0000201C00006B
:1044A800E81C0000B01D0000401F000008200000AC
:1044B800D02000009821000028230000F0230000ED
:1044C800B82400001C250000E42500004826000050
:1044D800AC260000102700003C68333E436F6E7422
:1044E800726F6C6520646520696E74656E736964AB
:1044F800616465206C756D696E6F73613A20302553
:10450800206120313030253C2F68333E0000000EFA
:1045180000010001636F000E0001626F5AD00001B4
:10452800000162512124D96E00010001635122204B
:10453800DA6E480EDF6249D0010E000100016225E3
:104548000001606F000E0001000163210001616F2E
:10455800000160512124D96E000161512220DA6ED8
:10456800540EDF6232D0020E000100016225000104
:10457800606F000E0001000163210001616F0001FE
:1045880060512124D96E000161512220DA6E540E47
:10459800DF621BD0030E0001000162250001606F7D
:1045A800000E0001000163210001616F00016051EC
:1045B8002124D96E000161512220DA6E500EDF628B
:1045C80004D0000E226E010E11D000010001624BD2
:1045D800632B000100016351800A800F3C0ED8B4A0
:1045E800625DD8A09CD7000E226E000E216E1200CC
:1045F800000E00010001636F000E0001626F5AD0C7
:104608000001000162512124D96E000100016351AB
:104618002220DA6E2B0EDF6249D0010E0001000164
:1046280062250001606F000E000100016321000196
:10463800616F000160512124D96E0001615122206F
:10464800DA6E490EDF6232D0020E000100016225E7
:104658000001606F000E0001000163210001616F1D
:10466800000160512124D96E000161512220DA6EC7
:10467800500EDF621BD0030E00010001622500010D
:10468800606F000E0001000163210001616F0001ED
:1046980060512124D96E000161512220DA6E440E46
:1046A800DF6204D0000E226E010E11D0000100015D
:1046B800624B632B000100016351800A800F3C0E9E
:1046C800D8B4625DD8A09CD7000E226E000E216E71
:1046D8001200216E000E236E21500001000161AF0F
:1046E8000BD000010001606D0001611FD8B0612B83
:1046F800216E010E236E21500001000163AF07D027
:1047080000010001626D0001631FD8B0632B000136
:10471800000163516211D8B432D0216E010E226EAD
:10472800215007D0000100010001D890623763379B
:10473800222A0001000163AFF5D700010001625190
:1047480000010001605D00010001635100010001EA
:104758006159D8A00CD0000100016251000100018C
:10476800605F00010001635100010001615B00010D
:1047780000010001D89063336233222EDED7235024
:10478800D8B407D000010001606D0001611FD8B0E6
:10479800612B60C060F061C061F01200000E226EF3
:1047A800000E216E4DD021C060F022C061F00001E2
:1047B800D890603761370001D890603761370301BE
:1047C800000E00016025D96E0301030E000161216E
:1047D800DA6EDECF62F0DECF63F0DECF64F0DECFDC
:1047E80065F0030ED8900001623763376437653788
:1047F800E82EF8D721C066F022C067F00001D890F3
:10480800663767370001D890663767370301000EAF
:1048180000016625D96E0301030E00016721DA6ED7
:1048280062C0DEFF63C0DEFF64C0DEFF65C0DDFF7F
:10483800D906D906010E2124216E000E2220226EEF
:104848002250800A0001606F3C50215C3D50800A74
:1048580000016059D8B01200A6D74552524F3A20ED
:104868005265696E69636965200041542B4357445A
:104878004843503D302C300D0A0045535020436FBB
:104888006E666967757261646F00506167696E6111
:1048980020456E76696164612000416775617264C4
:1048A800616E646F2E2E2E0041542B43574D4F449A
:1048B800453D320D0A0041542B4349504D55583D52
:1048C800310D0A004C616D7061646120656D3A209C
:1048D800005443432041647269616E6500436F6E02
:1048E80065637461646F2000446573656A61646F11
:1048F8003A20004475747920656D3A200043454696
:1049080045542D4D47005061757361646F20000058
:10491800000E00010001636F000E0001626F43D0BA
:104928000001000162512124D96E00010001635188
:104938002220DA6E470EDF6232D0010E000100013C
:1049480062250001606F000E000100016321000173
:10495800616F000160512124D96E0001615122204C
:10496800DA6E450EDF621BD0020E000100016225DF
:104978000001606F000E0001000163210001616FFA
:10498800000160512124D96E000161512220DA6EA4
:10499800540EDF6204D0000E226E010E11D0000109
:1049A8000001624B632B000100016351800A800FF4
:1049B8003C0ED8B4625DD8A0B3D7000E226E000EAC
:1049C800216E1200000E00010001666F000E00014A
:1049D800656F0001000163516211D8B441D0216EA6
:1049E800010E00010001646F215009D0000100018F
:1049F8000001D8906237633700010001642B000181
:104A0800000163AFF3D7000100010001D8906537BA
:104A1800663700010001625100010001605D00017C
:104A280000016351000100016159D8A00FD00001B5
:104A38000001625100010001605F00010001635143
:104A480000010001615B00010001658100010001B6
:104A58000001D8906333623300010001642FD3D77B
:104A680065C060F066C061F012000600EACF05F08C
:104A7800E1CF06F0E2CF07F0D9CF08F0DACF09F09E
:104A8800F3CF0AF0F4CF0BF0F6CF0CF0F7CF0DF020
:104A9800F8CF0EF0F5CF0FF09EAA01D001D01AD0B2
:104AA8003550010D0101B50EF324D96E0101010E37
:104AB800F420DA6EAECFDFFF352A35503C0AD8A491
:104AC80001D001D005D0016E3B0E356E015000D0EB
:104AD8009E9A00D00FC0F5FF0EC0F8FF0DC0F7FF7B
:104AE8000CC0F6FF0BC0F4FF0AC0F3FF09C0DAFFE1
:104AF80008C0D9FF07C0E2FF06C0E1FF05C0EAFF12
:104B080004C0E9FF03C0FBFF02C0FAFF11002DD06B
:104B1800000E226E000E27D0000E226E010E23D04A
:104B2800000E226E020E1FD0000E226E030E1BD046
:104B3800000E226E040E17D0000E226E050E13D042
:104B4800000E226E060E0FD0000E226E070E0BD03E
:104B5800000E226E080E07D0000E226E090E03D03A
:104B6800000E226E0A0E216E20D02150300AD8B4D1
:104B7800CFD7010AD8B4D0D7030AD8B4D1D7010AFD
:104B8800D8B4D2D7070AD8B4D3D7010AD8B4D4D75F
:104B9800030AD8B4D5D7010AD8B4D6D70F0AD8B4DF
:104BA800D7D7010AD8B4D8D7DBD71200000E000136
:104BB8000001686F000E0001696F000E00016A6F46
:104BC800000E00016B6F0001000160A118D0000108
:104BD80000016451000100016827000100016551CE
:104BE8000001000169230001000166510001000174
:104BF8006A23000100016751000100016B230001D5
:104C0800D89000016437000165370001663700015C
:104C180067370001D8900001633300016233000157
:104C280061330001603300010001635160116111BB
:104C38006211D8A4C8D768C060F069C061F06AC0C2
:104C480062F06BC063F01200000E000100017B6F80
:104C5800000E00017A6F76C065F077C066F078C004
:104C680067F0000E00010001686FC80E0001000126
:104C7800696F420E000100016A6F51EC14F067C0C1
:104C880078F066C077F065C076F0000E000100018C
:104C98007B6F000E00017A6F0DD0410E0001796F15
:104CA800EE0EE82EFED7792FFCD700F000010001A8
:104CB8007A4B7B2B7AC065F07BC066F078EC27F0E6
:104CC80067C06CF066C06BF065C06AF076C06DF0C6
:104CD80077C06EF078C06FF0B2EC20F0D8B0120058
:104CE800DCD721C06EF022C06FF0D890000100011F
:104CF8006E3500016C6F000100016F3500016D6FAA
:104D080000016CC072F000016DC073F00001000E6C
:104D1800000173BFFF0E0001746F0001756F72C050
:104D280060F073C061F074C062F075C063F0170E74
:104D380000010001646F000E0001656F000E0001A4
:104D4800666F000E0001676FDAEC25F063C075F03E
:104D580062C074F061C073F060C072F072C070F02D
:104D680073C071F070C021F071C022F01200000E03
:104D780000010001636F000E0001626F2CD000017A
:104D8800000162512124D96E0001000163512220E3
:104D9800DA6E4F0EDF621BD0010E000100016225A2
:104DA8000001606F000E0001000163210001616FC6
:104DB800000160512124D96E000161512220DA6E70
:104DC8004B0EDF6204D0000E226E010E11D00001DE
:104DD8000001624B632B000100016351800A800FC0
:104DE8003C0ED8B4625DD8A0CAD7000E226E000E61
:104DF800216E1200000100016A516911D8B432D045
:104E0800226E010E236E225007D00001000100011E
:104E1800D89069376A37232A000100016AAFF5D7AD
:104E280000010001695100010001675D00010001F6
:104E38006A51000100016859D8A00CD00001000196
:104E4800695100010001675F000100016A5100011A
:104E58000001685B000100010001D8906A336933E2
:104E6800232EDED767C067F068C068F01200000E16
:104E780000010001846F000E0001836F18D000014B
:104E880000018351000100017D25D96E0001000158
:104E98008451000100017E21DA6EDF50000100011B
:104EA8007C6FADEC28F000010001834B842BFF0ED2
:104EB800000100017F250001806F00010001816B66
:104EC800FF0E8123000100018451800A0001826FD6
:104ED800805100010001835D00018151800A0001B9
:104EE8008259D8B01200CBD70001686F000E0001BC
:104EF8000001696F000168510001000166AF0FD021
:104F080000010001656D0001661FD8B0662B000125
:104F1800686F010E00010001696F0001685100010E
:104F2800000165C060F00001000166C061F0000189
:104F38000001626B0001686F8E0E00010001636F53
:104F48000001685169C064F0AAEC1BF062C067F008
:104F580061C066F060C065F01200000EC26E000EFF
:104F6800C06ED89022303C0BC26E22C060F00001A7
:104F7800603BF00E6017300E0001601723500F0BD6
:104F880000016011C16E21C060F00001D890603747
:104F98000001D8906037380E0001601721C061F019
:104FA8000001613B0F0E6117070E000161172150C8
:104FB800800B0001611100016011C06E22AE03D0A8
:104FC8009E9C9D8CF28CC2801200000EAC6E000E6E
:104FD800AB6E21B0AC8821A202D0AC8CAB8C21B4D2
:104FE800AC8E21A602D0AB8801D0AB8A21B8AC84A4
:104FF8009E9821BAAB8621AC02D09D8A01D09D9A99
:105008009E9A21AE02D09D8801D09D9822C0AFFF04
:105018002350B06EAC8AAB8E949C948EACB8ACBE68
:1050280001D0948C12002520646520737561206C72
:10503800756D696E6F736964616465206D26616161
:105048006375746578696D612E3C2F703E3C6834D9
:105058003E42793A2041647269616E6520526F64FC
:10506800616E67653C2F68343E3C2F626F64793E01
:105078003C2F68746D6C3E00000100016051000116
:1050880000016203F3CF21F0F4CF22F00001000108
:105098006051000100016303F3CFF4FFF36AF3509A
:1050A8002126F45022220001000161510001000173
:1050B8006203F3CFF4FFF36AF3502126F45022225F
:1050C80021C060F022C061F0120021C060F022C04F
:1050D80061F0060ED890000160376137E82EFAD7E4
:1050E80060C062F061C063F063C0BBFF62C060F083
:1050F8000001D89060330001D8906033300E000171
:105108006017BA50CF0B00016011BA6E12007CC054
:1051180083FF8D908D82D70E00010001766F230EDC
:1051280000010001776F3C0E00010001786F28EC48
:1051380026F08D92D70E00010001766F230E000134
:105148000001776F3C0E00010001786F28EC26F013
:1051580012007CC083FF8D808D82D70E0001000174
:10516800766F230E00010001776F3C0E00010001ED
:10517800786F28EC26F08D92D70E00010001766F2B
:10518800230E00010001776F3C0E00010001786FCB
:1051980028EC26F012000C0EBA6E050EF66E000E04
:1051A800F76E300EF86E0800F5CF22F022A002D07C
:1051B800236804D0226E000E236E22502350D8B4E8
:1051C80002D0949201D09396CA9421C0CBFFCA848E
:1051D8001200000E226E000E216E0CD00101B50ED9
:1051E8002124D96E0101010E2220DA6E000EDF6E35
:1051F800214A222A2250800A800F3B0ED8B4215C13
:10520800D8B01200EBD70001626FA10E216E000129
:1052180062510001636F840E226E00016351000128
:10522800646FFE0E236E00016451B1EC27F012008A
:10523800ACA2FED722C0D9FF23C0DAFFDF50216E0F
:1052480075EC29F022C0D9FF23C0DAFF224A232AAD
:10525800DF50D8B41200ECD79288F294D58ED58C52
:10526800D59AD586D584D582D590000ED66E226E75
:10527800060E216E225053EC29F0000ECC6E12005F
:10528800949C948E0001606F7C0E216E0001605129
:10529800000E236E0A0E226EE9EC27F01200215050
:1052A800FB0BCA6E000ECC6E9E9221AE02D09D8280
:1052B80001D09D92CA84120041542B5253540D0AB6
:1052C80000415445300D0A0041540D0A0000D08EAB
:1052D8009D8C9D8AF28AF28EF28C9F9CF1949F8A13
:1052E8001200ACAC03D0AC9034B2AC8021C0ADFF9E
:1052F800120094943AC021F0CFEC28F01200E80391
:085308008A02F5002C007A4135
:107ED40001000A006400E80310273C696E707574A1
:107EE40020747970653D2272616E676522206E612F
:107EF4006D653D224475747922206D696E3D223092
:107F040022206D61783D22313030222076616C75FB
:107F1400653D22256422206F6E696E7075743D2262
:107F2400746869732E666F726D2E41447574792E70
:107F340076616C75653D746869732E76616C7565E0
:107F440022202F3E3C696E70757420747970653DF3
:107F5400226E756D62657222206E616D653D2241EF
:107F64004475747922206D696E3D223022206D6142
:107F7400783D22313030222076616C75653D2225B2
:107F84006422206F6E696E7075743D227468697323
:107F94002E666F726D2E447574792E76616C7565DC
:107FA4003D746869732E76616C756522202F3E3CA2
:107FB400696E70757420747970653D227375626D95
:107FC400697422206E616D653D22424F54414F22F7
:107FD4002076616C75653D22436F6E74726F6C65BB
:107FE40022203E003C703E4C2661636972636D70D2
:0C7FF40061646120656D202564000000C0
:020000040020DA
:08000000FFFFFFFFFFFFFFFF00
:020000040030CA
:0E00000000051F1FFF8385FF0FC00FE00F409C
:00000001FF
