:040000003CEF15F0CC
:10080000010000000A00000064000000E80300008E
:1008100010270000A086010040420F00809698003B
:1008200000E1F50500CA9A3B00803FCDCC3DD723BF
:100830003C12833AB7D138C62737388635C0D6330D
:10084000CC2B32708930E7DB2EE53C1E42A20D0036
:10085000803F00204100C842007A44401C4650C3FB
:100860004724744997184BBCBE4C6B6E4E03155011
:1008700079AD60F349716D617269613A2025630059
:100880004C44523A20252E32660000000001000E32
:10089000000100017E6F0001690E00017D6FD0EF45
:1008A00008F0000100018F51250AD8B409D065C0B5
:1008B000D9FF66C0DAFF00018FC0DFFFCCEF08F080
:1008C000000E00010001806F000E00017F6F00012B
:1008D00067C0F6FF000168C0F7FF0800F5502E0A58
:1008E000D8A43FD000010001808D00010001674BBA
:1008F000682B000E000100018B6F000E00018A6F53
:1009000022D08AC011F08BC012F0000E146E0A0EB5
:10091000136E87EC14F0000167C0F6FF000168C099
:10092000F7FF0800F5501126000E1222D00E1124F8
:10093000000100018A6FFF0E122000018B6F000181
:100940000001674B682B000167C0F6FF000168C01B
:10095000F7FF0800F5CF01F01AEC15F0D8A067D02A
:10096000D0D7000E000100018B6F000E00018A6FCE
:100970000001000180895BD000010001808571D0F9
:10098000000100018B518A11D8B425D0000100016B
:100990008851000100018A5D0001000189510001B8
:1009A00000018B59D8B017D08AC088F08BC089F06D
:1009B00012D086C0D9FF87C0DAFF65C0E1FF66C0EC
:1009C000E2FFDFCFE7FF00010001864B872B00012C
:1009D0000001654B662B000100018807D8A089073C
:1009E00000018829D8B48929D8B4DAD3E2D77DC0E8
:1009F000D9FF7EC0DAFFDF50000100018F6F020EC9
:100A0000000100017D27000E00017E230001000E81
:100A100000010001876F00018F0E0001866F000E3C
:100A200000010001896F010E0001886FA9D7000144
:100A300067C0F6FF000168C0F7FF00010001674BC7
:100A4000682B08000001F5CF8FF000018F51000ADC
:100A5000D8B4B8D3630AD8B4CAD7050AD8B48CD7E7
:100A6000D5D7070E000100018015D8B435D3000199
:100A7000000180A907D0000E000100018B6F060E57
:100A800000018A6F7DC0D9FF7EC0DAFF0001DECF92
:100A90008CF00001DECF8DF00001DDCF8EF0030E73
:100AA000000100017D27000E00017E2300010001EE
:100AB0008E51800A800F07E1000E00018D5D03E179
:100AC000000E00018C5DD8B012D08CC001F08DC03A
:100AD00002F08EC003F007EC15F003C08EF002C0E8
:100AE0008DF001C08CF0030E000100017F13000E99
:100AF00000010001856F000E0001846F7F0E000170
:100B000000018E1500018D1100018C11D8B496D012
:100B1000820E00016C6FFF0E6D6F00018CC06EF0D5
:100B200000018DC06FF000018EC070F000018FC019
:100B300071F0100E06D00001D890713370336F330E
:100B40006E33E82EF8D700016E5100016C250001CC
:100B50000001846F00010001000E6D21856F00010E
:100B600000018407D8A0850784C011F085C012F069
:100B7000000E146E030E136E87EC14F011C084F097
:100B800012C085F084C008F085C009F0000E0B6E1D
:100B90000A0E0A6E81EC11F008C084F009C085F0DD
:100BA0000001000185AF05D0000100018407D8A035
:100BB00085070001000184510008376EE9EC08F058
:100BC00039C083F038C082F037C081F00001000ED8
:100BD000386E0001810E376E8CC039F08DC03AF04E
:100BE0008EC03BF02EEC14F081C001F082C002F008
:100BF00083C003F0000E046E800E056E3F0E066E7D
:100C000039EC11F0D8B006D0000100018407D8A05B
:100C1000850714D081C001F082C002F083C003F0C8
:100C2000000E046E200E056E410E066E39EC11F0BA
:100C3000D8A004D000010001844B852B00010001E5
:100C40008B51800A800F0D0ED8B48A5DD8B012D0B7
:100C50000001000E576E00018C0E566E8AC037F0F0
:100C600011EC0BF039C05AF038C059F037C058F0C9
:100C70004CEC14F0000100018551800A800F0A0E2F
:100C8000D8B4845DD8B022D07F0E000100018E154B
:100C900000018D1100018C11D8B467D08CC017F001
:100CA0008DC018F08EC019F049EC0FF01A501710D3
:100CB00018101910D8A459D0000100018551800ADC
:100CC000800F020ED8B4845DD8A04FD081C001F04F
:100CD00082C002F083C003F0700E046E890E056EB0
:100CE000400E066E39EC11F0D8B003D00001F70EBB
:100CF00002D00001F80E00018427FF0E00018523B9
:100D000084C037F0E9EC08F039C083F038C082F0D5
:100D100037C081F08CC001F08DC002F08EC003F0AE
:100D200081C004F082C005F083C006F037EC0DF0FE
:100D300004C078F003C077F002C076F001C075F00F
:100D400075C086F076C087F077C088F078C089F0EB
:100D5000000E000100018C6F000E000100018D6F7C
:100D6000000E000100018E6F32D08CC017F08DC0D4
:100D700018F08EC019F049EC0FF01AC089F019C0B4
:100D800088F018C087F017C086F00001000E00013F
:100D90000001616F00018C0E0001606F86C009F0D8
:100DA00087C00AF088C00BF089C00CF043EC13F048
:100DB0000BC064F00AC063F009C062F010EC14F0DC
:100DC000000E00010001856F000E0001846F00011C
:100DD0006C6F010E000100018F6F00016C5100016A
:100DE00000018F510A0AD8B421D0000100018F51AF
:100DF000040D000EF324F66E080EF420F76E0900C1
:100E0000F55000010001865D0900F5500001875989
:100E10000900F550000188590900F5500001895971
:100E2000D8A004D0000100018F2BD9D7030E0001F8
:100E300000017F1500016C6F000E0001000180159C
:100E400000016D6F00016D516C11D8B445D065C0C3
:100E5000D9FF66C0DAFF2D0E3AD086C001F087C0F8
:100E600002F088C003F089C004F0000100018F5136
:100E7000040D000EF324F66E080EF420F76E090040
:100E8000F5CF05F00900F5CF06F00900F5CF07F022
:100E90000A00F5CF08F0C9EC11F001C079F002C0EA
:100EA0007AF079C001F07AC002F0000E046E0A0EEA
:100EB000036ECBEC13F001C079F002C07AF00001B0
:100EC00000017951300F65C0D9FF66C0DAFFDF6ECF
:100ED00000010001654B662B000100018F07000136
:100EE0008F29D8B410D0B9D765C0D9FF66C0DAFF52
:100EF000300EDF6E00010001654B662B0001000122
:100F00008407D8A08507000100018551800A800F61
:100F1000010ED8B4845DD8B0E7D7000100018B5131
:100F2000800A800F090ED8B48A5DD8A009D00001CC
:100F30006C6F080E000100018F6F00016C5102D030
:100F40008AC08FF0000100018F51000100018A5F0B
:100F5000000E00018FBFFF0E000100018B5B00013E
:100F600000018F51D8B40AD065C0D9FF66C0DAFF3E
:100F70002E0EDF6E00010001654B662B8FC037F02F
:100F8000E9EC08F039C074F038C073F037C072F083
:100F90008CC029F08DC02AF08EC02BF072C026F0D4
:100FA00073C027F074C028F0C8EC0DF028C019F009
:100FB00027C018F026C017F049EC0FF01AC089F0CE
:100FC00019C088F018C087F017C086F067D086C0B7
:100FD00001F087C002F088C003F089C004F000016E
:100FE00000018F51040D000EF324F66E080EF4205C
:100FF000F76E0900F5CF05F00900F5CF06F00900FE
:10100000F5CF07F00A00F5CF08F0C9EC11F001C0E8
:101010007BF002C07CF07BC001F07CC002F0000ECF
:10102000046E0A0E036ECBEC13F001C07BF002C01D
:101030007CF0000100017B51300F65C0D9FF66C014
:10104000DAFFDF6E00010001654B662B86C001F000
:1010500087C002F088C003F089C004F000010001DD
:101060008F51040D000EF324F66E080EF420F76E77
:101070000900F5CF05F00900F5CF06F00900F5CF1E
:1010800007F00A00F5CF08F00EEC13F004C089F069
:1010900003C088F002C087F001C086F000010001A3
:1010A0008F0700018F29D8B410D091D765C0D9FF20
:1010B00066C0DAFF300EDF6E00010001654B662B63
:1010C000000100018A07D8A08B07000100018B51A5
:1010D0008A11D8B465D0EAD7000100018B518A117A
:1010E000D8A40CD000010001895186118711881104
:1010F000D8A404D0000100018A4B8B2B800E000184
:1011000000018FBF7F0E6C6F000100018A5100014A
:1011100000018F5D000100018B51800A00016C59B4
:10112000D8B003D08AC08FF020D0000100018B51CD
:10113000800A00016C6F000100018F510001000165
:101140008A5D800E000100018FBF7F0E00016C5987
:10115000D8B00BD0000100018F51000100018A6F4F
:1011600000018B6B00018ABF8B07030E0001000199
:101170007F1500016C6F000E000100018015000159
:101180006D6F00016D516C11D8B40AD065C0D9FFE4
:1011900066C0DAFF2D0EDF6E00010001654B662B85
:1011A000000167C0F6FF000168C0F7FF0001000101
:1011B000674B682B08000001F5CF8FF000018F67A7
:1011C00051EF04F065C0D9FF66C0DAFF000EDF6E94
:1011D000120037AE08D1376C3750800A120FD8A0F2
:1011E0009DD0000E146E030E136E000E0B6E0A0ED1
:1011F0000A6E000E046E640E036E3750016E026AB2
:1012000001BE0206D0EC12F001C008F002C009F0E5
:1012100081EC11F0090E0824116E000E0920126EE7
:1012200087EC14F0280E1124F66E080E1220F76ECB
:101230000900F5CF3AF00900F5CF3BF00900F5CFF2
:101240003CF03CC02BF03BC02AF03AC029F0000E25
:10125000146E030E136E000E0B6E640E0A6E375082
:10126000086E096A08BE090681EC11F0120E082406
:10127000116E000E0920126E87EC14F0280E112456
:10128000F66E080E1220F76E0900F5CF3DF009004A
:10129000F5CF3EF00900F5CF3FF03FC028F03EC04B
:1012A00027F03DC026F0C8EC0DF028C042F027C062
:1012B00041F026C040F040C026F041C027F042C0B7
:1012C00028F0000E146E030E136E000E046E0A0E4C
:1012D000036E3750016E026A01BE0206D0EC12F0B6
:1012E00001C011F002C012F087EC14F0280E112496
:1012F000F66E080E1220F76E0900F5CF3AF00900DD
:10130000F5CF3BF00900F5CF3CF03CC02BF03BC0E3
:101310002AF03AC029F0C8EC0DF064D13750800AA9
:10132000750FD8A059D0000E146E030E136E000E68
:101330000B6E0A0E0A6E3750086E096A08BE09065F
:1013400081EC11F0090E0824116E000E0920126EB6
:1013500087EC14F0280E1124F66E080E1220F76E9A
:101360000900F5CF3AF00900F5CF3BF00900F5CFC1
:101370003CF03CC028F03BC027F03AC026F0000EFD
:10138000146E030E136E000E046E0A0E036E3750B9
:10139000016E026A01BE0206D0EC12F001C011F02B
:1013A00002C012F087EC14F0280E1124F66E080E1D
:1013B0001220F76E0900F5CF3DF00900F5CF3EF0A1
:1013C0000900F5CF3FF03FC02BF03EC02AF03DC0F2
:1013D00029F0C8EC0DF006D13750030D280EF32488
:1013E000F66E080E0CD13750800A120FD8A09DD08F
:1013F000000E146E030E136E000E0B6E0A0E0A6EB4
:10140000000E046E640E036E3750016E026A01BE58
:101410000206D0EC12F001C008F002C009F081EC25
:1014200011F0090E0824116E000E0920126E87ECCF
:1014300014F04F0E1124F66E080E1220F76E0900FC
:10144000F5CF3AF00900F5CF3BF00900F5CF3CF0BD
:101450003CC02BF03BC02AF03AC029F0000E146EBD
:10146000030E136E000E0B6E640E0A6E3750086E7C
:10147000096A08BE090681EC11F0120E0824116EEB
:10148000000E0920126E87EC14F04F0E1124F66E38
:10149000080E1220F76E0900F5CF3DF00900F5CFD8
:1014A0003EF00900F5CF3FF03FC028F03EC027F0E6
:1014B0003DC026F0C8EC0DF028C042F027C041F036
:1014C00026C040F040C026F041C027F042C028F0BE
:1014D000000E146E030E136E000E046E0A0E036EE1
:1014E0003750016E026A01BE0206D0EC12F001C054
:1014F00011F002C012F087EC14F04F0E1124F66EBA
:10150000080E1220F76E0900F5CF3AF00900F5CF6A
:101510003BF00900F5CF3CF03CC02BF03BC02AF07B
:101520003AC029F0C8EC0DF05DD03750800A750F35
:10153000D8A05FD0000E146E030E136E000E0B6E5B
:101540000A0E0A6E3750086E096A08BE090681EC59
:1015500011F0090E0824116E000E0920126E87EC9E
:1015600014F04F0E1124F66E080E1220F76E0900CB
:10157000F5CF3AF00900F5CF3BF00900F5CF3CF08C
:101580003CC028F03BC027F03AC026F0000E146E95
:10159000030E136E000E046E0A0E036E3750016EBA
:1015A000026A01BE0206D0EC12F001C011F002C0C6
:1015B00012F087EC14F04F0E1124F66E080E122074
:1015C000F76E0900F5CF3DF00900F5CF3EF00900B8
:1015D000F5CF3FF03FC02BF03EC02AF03DC029F0D0
:1015E000C8EC0DF028C039F027C038F026C037F01D
:1015F00017D03750030D4F0EF324F66E080EF4206B
:10160000F76E0900F5CF3AF00900F5CF3BF009007D
:10161000F5CF3CF03CC039F03BC038F03AC037F071
:1016200012006D0E3764ABD0000E146E030E136EF5
:10163000000E0B6E0A0E0A6E000E046E640E036E30
:1016400037C001F0026AD0EC12F001C008F002C00D
:1016500009F081EC11F0090E0824116E000E09202A
:10166000126E87EC14F0280E1124F66E080E12206C
:10167000F76E0900F5CF3AF00900F5CF3BF009000D
:10168000F5CF3CF03CC02BF03BC02AF03AC029F02B
:10169000000E146E030E136E000E0B6E640E0A6EB7
:1016A00037C008F0096A81EC11F0120E0824116E9F
:1016B000000E0920126E87EC14F0280E1124F66E2D
:1016C000080E1220F76E0900F5CF3DF00900F5CFA6
:1016D0003EF00900F5CF3FF03FC028F03EC027F0B4
:1016E0003DC026F0C8EC0DF028C045F027C044F0FE
:1016F00026C043F0000E146E030E136E000E046E2F
:101700000A0E036E37C001F0026AD0EC12F001C07D
:1017100011F002C012F087EC14F0280E1124F66EBE
:10172000080E1220F76E0900F5CF3AF00900F5CF48
:101730003BF00900F5CF3CF03CC02BF03BC02AF059
:101740003AC029F043C026F044C027F045C028F035
:10175000C8EC0DF028C042F027C041F026C040F090
:1017600040C026F041C027F042C028F0000E296E8C
:10177000000E2A6E3F0E2B6EC8EC0DF08BD00A0EB9
:10178000376469D0000E146E030E136E000E046EE3
:101790000A0E036E37C001F0026AD0EC12F001C0ED
:1017A00011F002C012F087EC14F0280E1124F66E2E
:1017B000080E1220F76E0900F5CF3AF00900F5CFB8
:1017C0003BF00900F5CF3CF03CC02BF03BC02AF0C9
:1017D0003AC029F0000E146E030E136E000E0B6E4D
:1017E0000A0E0A6E37C008F0096A81EC11F0090E82
:1017F0000824116E000E0920126E87EC14F0280EDA
:101800001124F66E080E1220F76E0900F5CF3DF098
:101810000900F5CF3EF00900F5CF3FF03FC028F0BA
:101820003EC027F03DC026F0C8EC0DF028C045F0C2
:1018300027C044F026C043F043C026F044C027F040
:1018400045C028F0000E296E000E2A6E3F0E2B6E4A
:10185000C8EC0DF01FD03750030D280EF324F66EA0
:10186000080EF420F76E0900F5CF3AF00900F5CF25
:101870003BF00900F5CF3CF03CC028F03BC027F01E
:101880003AC026F0000E296E000E2A6E3F0E2B6E17
:10189000C8EC0DF028C039F027C038F026C037F06A
:1018A00012000F0E4E6E48C04FF049C050F04AC0B3
:1018B00051F04E28526E04D0D890513250324F32EF
:1018C000522EFAD74F50556E0F0E4E6E4BC04FF042
:1018D0004CC050F04DC051F04E28526E04D0D890FC
:1018E000513250324F32522EFAD74F50546E55501B
:1018F000D8B40BD0545055600FD055500008542424
:101900004E6E190E4E5CD8A007D04BC048F04CC0AC
:1019100049F04DC04AF0AAD05450D8B40BD055501D
:1019200054600FD05450000855244E6E190E4E5C72
:10193000D8A007D048C048F049C049F04AC04AF092
:1019400095D04E6E060E536E4E504ABE538E4DBE0F
:10195000538C498EFF0E4816FF0E4916000E4A168C
:101960004C8EFF0E4B16FF0E4C16000E4D165450AB
:10197000556018D0D8904B364C364D3654065450DE
:101980005518D8B40BD053065350070BD8B406D013
:10199000F1D7D8904A3249324832552A54505562CC
:1019A000F8D71AD05550546017D0D89048364936D9
:1019B0004A36550654505518D8B40BD053065350D8
:1019C000070BD8B406D0F1D7D8904D324C324B32F9
:1019D000542A54505562F8D753AE0CD0FF0E481A13
:1019E000FF0E491AFF0E4A1A010E4826000E492220
:1019F000000E4A2253AC0CD0FF0E4B1AFF0E4C1AAD
:101A0000FF0E4D1A010E4B26000E4C22000E4D22E9
:101A10004E6E000E536E4E5048504B2649504C228D
:101A20004A504D224DAE10D0FF0E4B1AFF0E4C1AED
:101A3000FF0E4D1A010E4B26000E4C22000E4D22B9
:101A40004E6E010E536E4E504BC001F04CC002F072
:101A50004DC003F055C004F053C005F081EC10F008
:101A600003C04AF002C049F001C048F012000F0E56
:101A7000076E01C008F002C009F003C00AF0072891
:101A80000B6E04D0D8900A32093208320B2EFAD7E6
:101A90000850116E116601D061D00F0E076E04C0A0
:101AA00008F005C009F006C00AF007280B6E04D044
:101AB000D8900A32093208320B2EFAD70850106E2D
:101AC000106601D04BD0028EFF0E0116FF0E0216DB
:101AD000000E0316058EFF0E0416FF0E0516000EEF
:101AE0000616000E0C6E000E0D6E000E0E6E000E31
:101AF0000F6E7F0E115E1050980F115E076E180E5C
:101B0000106E0750D8900C360D360E360F36045036
:101B1000015C0550025806500358D8A007D0045065
:101B2000015E0550025A0650035A0C80D8900136C7
:101B300002360336102EE6D711AE0DD01150800AB2
:101B4000970FD8A00BD0D8900F320E320D320C3236
:101B5000113EF9D714D0170E11640FD0000E016E8C
:101B6000000E026E000E036E000E046E10D0D890B0
:101B70000C360D360E360F3611061166F8D70CC02E
:101B800001F00DC002F00EC003F00FC004F012000F
:101B90000F0E2C6E26C02DF027C02EF028C02FF07F
:101BA0002C28306E04D0D8902F322E322D32302E89
:101BB000FAD72D50316E316601D015D00F0E2C6E34
:101BC00029C02DF02AC02EF02BC02FF02C28306E0B
:101BD00004D0D8902F322E322D32302EFAD72D50FD
:101BE000366E366607D0000E266E000E276E000E8B
:101BF000286E55D036507B0F312628C036F02B503A
:101C0000361A800E3616278E2A8EFF0E2916FF0EE4
:101C10002A16000E2B16000E326E000E336E000ECA
:101C2000346E2C6E070E356E2C5026A006D029502F
:101C300032262A5033222B503422D8902832273291
:101C40002632D89029362A362B36352EEED72C6EF2
:101C5000090E356E2C5026A006D0295032262A5067
:101C600033222B503422D890283227322632D89073
:101C7000343233323232352EEED732C001F033C037
:101C800002F034C003F031C004F036C005F081EC3E
:101C900010F003C028F002C027F001C026F01200A7
:101CA0000F0E3D6E37C03EF038C03FF039C040F0F7
:101CB0003D28416E04D0D89040323F323E32412E12
:101CC000FAD73E50466E466601D015D00F0E3D6ED7
:101CD0003AC03EF03BC03FF03CC040F03D28416E72
:101CE00004D0D89040323F323E32412EFAD73E5097
:101CF000476E476607D0000E376E000E386E000E36
:101D0000396E4CD0000E436E000E446E000E456ED0
:101D10004750890F465E39C047F03C50471A800E45
:101D20004716388EFF0E3716FF0E3816000E39167E
:101D30003B8EFF0E3A16FF0E3B16000E3C163D6E14
:101D4000180E426E3D50D8904336443645363A50D0
:101D5000375C3B5038583C503958D8A007D03A50DF
:101D6000375E3B50385A3C50395A4380D89037360A
:101D700038363936422EE7D743C001F044C002F06E
:101D800045C003F046C004F047C005F081EC10F0F8
:101D900003C039F002C038F001C037F0120003343C
:101DA00004340D6E0D6601D05AD0063407340C6E23
:101DB0000C6601D054D0038EFF0E0116FF0E0216E2
:101DC000FF0E0316000E0416068EFF0E0416FF0EFD
:101DD0000516FF0E0616000E0716000E086E000E02
:101DE000096E000E0A6E000E0B6E7F0E0D5E0C501B
:101DF000A00F0D5E076E200E0C6E0750D8900836AF
:101E000009360A360B360450015C0550025806505C
:101E1000035807500458D8A009D00450015E05505B
:101E2000025A0650035A0750045A0880D8900136C7
:101E30000236033604360C2EE1D70DAE0DD00D5010
:101E4000800A9F0FD8A00BD0D8900B320A320932EB
:101E500008320D3EF9D714D01F0E0D640FD0000EBE
:101E6000016E000E026E000E036E000E046E10D0A6
:101E7000D890083609360A360B360D060D66F8D7A7
:101E800008C001F009C002F00AC003F00BC004F062
:101E900012000F0E1B6E17C01CF018C01DF019C0E9
:101EA0001EF01B281F6E04D0D8901E321D321C322B
:101EB0001F2EFAD71C50256E256601D035D0170E7F
:101EC0001B6E17C01CF018C01DF019C01EF01B2897
:101ED0001F6E04D0D8901E321D321C321F2EFAD72E
:101EE0001C50206E188EFF0E1716FF0E1816000ECF
:101EF00019161750216E1850226E1950236E246A3D
:101F00008E0E255E25AE0DD02550800A8F0FD8A0ED
:101F10000BD0D8902432233222322132253EF9D7F9
:101F200014D0170E25640FD0000E176E000E186E19
:101F3000000E196E000E1A6E1BD0D8902136223674
:101F40002336243625062566F8D72050D8B408D085
:101F5000241E231E221E216C000E22222322242254
:101F600021C017F022C018F023C019F024C01AF0C5
:101F7000120064EC15F051EC15F0DDEC10F047ECBC
:101F800015F00CEC12F05D6E610E00010001956F12
:101F90005D5091EC12F009C090F00AC091F024EC71
:101FA00010F04AC094F049C093F048C092F05D6EC2
:101FB000010E046E5D505E6E010E056E5E5075EC96
:101FC00013F00001000E00010001666F0001960E83
:101FD0000001656F080E00010001686F800E0001AE
:101FE000676F92C069F093C06AF094C06BF046ECE2
:101FF00004F00001000E066E0001960E056EA4ECC2
:1020000014F05BEC15F000010001956F0001000E6B
:1020100000010001666F0001960E0001656F080E59
:1020200000010001686F760E0001676F000100017A
:1020300095C069F0000100016A6B46EC04F095C0A0
:1020400009F0DAEC14F0A5D7000E4F6E000E506EBA
:10205000000E516E000EC2B2010E4B6E010E4C6EA0
:102060004B2A02D0D8904C364B2EFCD7000EC2B073
:10207000010E4D6E010E4E6E4D2A02D0D8904E3696
:102080004D2EFCD74E504C10C212C2B2FED7C450D7
:102090004C6E4B6AC3504B24096E000E4C200A6EE6
:1020A000EEEC13F00BC051F00AC050F009C04FF035
:1020B000000E296EA00E2A6E400E2B6E4FC026F029
:1020C00050C027F051C028F0C8EC0DF028C039F0FE
:1020D00027C038F026C037F0C00E3A6E7F0E3B6E38
:1020E000440E3C6E50EC0EF039C051F038C050F048
:1020F00037C04FF04FC048F050C049F051C04AF0CF
:1021000012000450D8B405D0015002100310D8A416
:102110000CD0000E016E000E026E000E036E4CD04D
:10212000042AD890033202320132000E0114066EE6
:10213000000E0214076EFE0E0314086E0650071000
:102140000810D8B40CD0ECD7042A010E0126000EDA
:102150000222000E0322D890033202320132000E16
:102160000114066E000E0214076EFF0E0314086EB3
:10217000065007100810D8B406D0E6D70406D89049
:1021800001360236033602AEF9D704A0029ED8907B
:1021900004320450086E076A066A0650011207509E
:1021A0000212085003120550D8A4038E01C001F09A
:1021B00002C002F003C003F01200000E956E046E20
:1021C000000E016E0450F2EC14F0340E046EF10EA9
:1021D000E82EFED7042EFCD700D0046E030E026E4C
:1021E00004502CEC15F00D0E046EFB0EE82EFED7FD
:1021F000042EFCD700D0046E030E026E04502CECAB
:1022000015F01D0E046E910EE82EFED7042EFCD79D
:10221000046E030E026E04502CEC15F0046E020ED8
:10222000026E04502CEC15F0046E020E026E045087
:102230002CEC15F0046E080E026E04502CEC15F018
:10224000046E000E026E04502CEC15F0046E0C0EA1
:10225000026E04502CEC15F0046E000E026E045059
:102260002CEC15F0046E060E026E04502CEC15F0EA
:10227000120003AE16D001C007F002C008F003C080
:1022800009F0071E081E091E072A000E082209224F
:10229000000E0724016E000E0820026E800E092039
:1022A000036E06AE16D004C007F005C008F006C0E5
:1022B00009F0071E081E091E072A000E082209221F
:1022C000000E0724046E000E0820056E800E092003
:1022D000066E000E011A000E021A800E031A000E7E
:1022E000041A000E051A800E061A0450015C0550EF
:1022F000025806500358D8B002D0D89001D0D880E8
:1023000012000C6E000E0E6E0C500BAE08D00A6C54
:102310000B1ED8B00B2A0C6E010E0E6E0C5009AEBF
:1023200006D0086C091ED8B0092A010E0E1A000E3C
:10233000106E000E0F6E0B500A10D8B41ED00C6E2B
:10234000010E0D6E0C5004D0D8900A360B360D2AB3
:102350000BAEFAD7D8900F3610360A50085C0B50E7
:102360000958D8A005D00A50085E0B50095A0F80B2
:10237000D8900B320A320D2EEDD70E50D8B404D0BF
:102380000F6C101ED8B0102A0FC008F010C009F052
:102390001200000E0A6E000E0B6E000E0C6E000E88
:1023A0000D6E0850051006100710D8B42CD0096E19
:1023B000010E0E6E095006D0D89005360636073647
:1023C00008360E2A08AEF8D7D8900A360B360C36E7
:1023D0000D360550015C065002580750035808504E
:1023E0000458D8A009D00550015E0650025A075083
:1023F000035A0850045A0A80D8900832073206322D
:1024000005320E2EE1D70AC001F00BC002F00CC05D
:1024100003F00DC004F01200000E566EC20E576E8F
:10242000010E586E000E596E949C948E56C009F0A1
:1024300057C00AF058C00BF059C00CF04FEC12F026
:102440000BC03CF00AC03BF009C03AF0500E376EAA
:10245000430E386E450E396E50EC0EF039C04AF01E
:1024600038C049F037C048F0000E4B6E800E4C6EFD
:10247000BF0E4D6E51EC0CF04AC05CF049C05BF0F1
:1024800048C05AF05AC017F05BC018F05CC019F091
:1024900049EC0FF01750AF6E900EAB6E12000D6E40
:1024A000000E126E0D500D6E8E0E116E0D500CAE94
:1024B00013D00C1E0B1E0A1E096C000E0A220B22E2
:1024C0000C220D6E010E126E0D5006D0D8900C32FB
:1024D0000B320A320932112A000E09140D6E000E59
:1024E0000A140E6E000E0B140F6EFF0E0C14106EFD
:1024F00010500D100E100F10D8A4E8D709C001F02D
:102500000AC002F00BC003F011C004F012C005F0C5
:1025100081EC10F003C00BF002C00AF001C009F01A
:1025200012008982060EE82EFED700D0899280A480
:10253000FED7CD8080B4FED7CD90CECF0BF0CFCFDD
:102540000CF0D8900C30106E0B300F6EA10E0F5C9B
:102550005A0E1058D8B00FD00FC001F010C002F0C2
:10256000000E046E3A0E036EA0EC13F001C00DF0E5
:1025700002C00EF008D0740E0F5C000E1058000E52
:102580000E6E000E0D6E000E106E000E0F6E000E21
:10259000CF6E000ECE6E0DC009F00EC00AF0120014
:1025A000056E000E076E055002AE08D0016C021ECB
:1025B000D8B0022A056E010E076E055004AE04D095
:1025C000036C041ED8B0042A04500310D8B41AD0E7
:1025D000056E010E066E055004D0D8900336043601
:1025E000062A04AEFAD70350015C04500258D8A062
:1025F00004D00350015E0450025AD89004320332D2
:10260000062EF1D70750D8B404D0016C021ED8B002
:10261000022A01C001F002C002F0120008500510A9
:1026200006100710D8B426D0096E010E0A6E0950A4
:1026300006D0D89005360636073608360A2A08AE80
:10264000F8D70550015C065002580750035808504F
:102650000458D8A008D00550015E0650025A075011
:10266000035A0850045AD89008320732063205320D
:102670000A2EE7D701C001F002C002F003C003F048
:1026800004C004F012000D6E8E0E116E0D5006D0B7
:10269000D8900C320B320A320932112A000E09147A
:1026A0000D6E000E0A140E6E000E0B140F6EFF0E50
:1026B0000C14106E10500D100E100F10D8A4E8D787
:1026C00009C001F00AC002F00BC003F011C004F011
:1026D0000D6E000E056E0D5081EC10F003C00BF076
:1026E00002C00AF001C009F012000404D8A412D0FC
:1026F00005507F0F086E08380F0B066E08500F0B41
:10270000076E06C002F02CEC15F007C002F02CECAE
:1027100015F015D00450020AD8A411D00550BF0FEF
:10272000086E08380F0B066E08500F0B076E06C0B8
:1027300002F02CEC15F007C002F02CEC15F01200A2
:10274000000E076E000E066E04500310D8B41ED0A3
:10275000056E010E086E055004D0D890033604367D
:10276000082A04AEFAD7D890063607360350015C23
:1027700004500258D8A005D00350015E0450025AFC
:102780000680D89004320332082EEDD706C001F03F
:1027900007C002F0120004500310D8B41AD0056E1E
:1027A000010E066E055004D0D89003360436062A72
:1027B00004AEFAD70350015C04500258D8A004D0EC
:1027C0000350015E0450025AD89004320332062EA0
:1027D000F1D701C001F002C002F012000C6E000E31
:1027E0000D6E0C500AAE08D0096C0A1ED8B00A2A29
:1027F0000C6E010E0D6E0C5009C001F00AC002F003
:10280000036A0C6E8E0E046E0C500DC005F081EC48
:1028100010F003C00BF002C00AF001C009F0120072
:1028200060C0D9FF61C0DAFFDECF56F0DECF57F0CF
:10283000DDCF58F062C059F063C05AF064C05BF05D
:10284000BFEC14F060C0D9FF61C0DAFF56C0DEFFF4
:1028500057C0DEFF58C0DDFFDD52120037C0D9FF80
:1028600038C0DAFFDECF26F0DECF27F0DDCF28F04C
:1028700039C029F03AC02AF03BC02BF0C8EC0DF06B
:1028800037C0D9FF38C0DAFF26C0DEFF27C0DEFF21
:1028900028C0DDFFDD52120056C0D9FF57C0DAFF55
:1028A000DECF48F0DECF49F0DDCF4AF058C04BF024
:1028B00059C04CF05AC04DF051EC0CF056C0D9FF45
:1028C00057C0DAFF48C0DEFF49C0DEFF4AC0DDFF67
:1028D000DD52120002500F0B036E0250F00B046E1B
:1028E000838404380F0B016EF2EC14F083861A0E09
:1028F000E82EFED700D0839603C001F0F2EC14F06E
:1029000083861A0EE82EFED700D08396120011504F
:102910001302F3CF15F0F4CF16F011501402F3CFD9
:10292000F4FFF36AF3501526F450162212501302E6
:10293000F3CFF4FFF36AF3501526F450162215C0B6
:1029400011F016C012F01200000E086E000E076E95
:102950000CD007500524D96E08500620DA6EDF50DF
:10296000026E6AEC14F0074A082A07500524D96E53
:1029700008500620DA6EDF50D8B41200EAD7000EF5
:10298000591A000E5A1A800E5B1A56C048F057C0EA
:1029900049F058C04AF059C04BF05AC04CF05BC0E7
:1029A0004DF051EC0CF04AC058F049C057F048C007
:1029B00056F012000950D8B414D0010E8A6E0A6E77
:1029C000020E046E0A500B6E010E056E0B5075EC74
:1029D00013F00001000E066E0001960E056EA4ECC9
:1029E00014F0120001A002D0838801D0839801A2C4
:1029F00002D0838A01D0839A01A402D0838C01D0B3
:102A0000839C01A602D0838E01D0839E12007F0E8C
:102A1000031402100110D8B406D0000E011A000EE3
:102A2000021A800E031A01C001F002C002F003C0B6
:102A300003F01200026E000E036E02503A0E0160A7
:102A400007D02F0E016404D0026E010E036E0250F7
:102A500003C002F002301200839402C001F0F2ECD5
:102A600014F083860B0E036E620EE82EFED7032E43
:102A7000FCD700F08396120000EE96F0200EEE6A6E
:102A8000E806FDE1000EF86E0001B9EF0FF092804C
:102A90000E0EC16E920EC06E000EC46E000EC36E9E
:102AA0001200CD8ECF0ECD16CD92000ECF6E000E41
:102AB000CE6ECD9012009EAAFED7ABA203D0AB98EB
:102AC00000F0AB88AE501200C180C182C184C186C3
:0A2AD00092929284000E936E1200A1
:020000040020DA
:08000000FFFFFFFFFFFFFFFF00
:020000040030CA
:0E000000000C191EFF8381FF0FC00FE00F40A0
:00000001FF
