:0400000010EF13F0FA
:10080000010000000A00000064000000E80300008E
:1008100010270000A086010040420F00809698003B
:1008200000E1F50500CA9A3B00803FCDCC3DD723BF
:100830003C12833AB7D138C62737388635C0D6330D
:10084000CC2B32708930E7DB2EE53C1E42A20D0036
:10085000803F00204100C842007A44401C4650C3FB
:100860004724744997184BBCBE4C6B6E4E03155011
:1008700079AD60F3497125660000000E00010001AA
:10088000686F4F0E0001676F61D3000100017B515B
:10089000250AD8B408D04BC0D9FF4CC0DAFF0001FC
:1008A0007BC0DFFF51D3000E000100016E6F000E10
:1008B00000016D6F04D0000100016E8513D04DC0A2
:1008C000F6FF4EC0F7FF4D4A4E2A08000001F5CF53
:1008D0007BF000017B51000AD8B445D3660AD8B436
:1008E000EAD734D3070E000100016E15D8B418D32F
:1008F000000E00010001706F060E00016F6F67C0EF
:10090000D9FF68C0DAFF0001DECF7CF00001DECF46
:100910007DF00001DDCF7EF0030E000100016727AE
:10092000000E00016823000100017E51800A800F43
:1009300007E1000E00017D5D03E1000E00017C5D1A
:10094000D8B012D07CC001F07DC002F07EC003F0B0
:10095000FDEC12F003C07EF002C07DF001C07CF01F
:10096000030E000100016D13000E000100017A6FFB
:10097000000E0001796F7F0E000100017E1500015D
:100980007D1100017C11D8B491D0820E526EFF0E01
:10099000536E00017CC054F000017DC055F0000191
:1009A0007EC056F000017FC057F0100E05D0D890E1
:1009B0005732563255325432E82EF9D75450522419
:1009C00000010001796F0001000E53207A6F0001D1
:1009D00000017907D8A07A0779C011F07AC012F027
:1009E000000E146E030E136E6DEC12F011C079F050
:1009F00012C07AF079C008F07AC009F0000E0B6ED0
:100A00000A0E0A6E9EEC10F008C079F009C07AF068
:100A1000000100017AAF05D0000100017907D8A0DC
:100A20007A070001000179510008376EBAEC07F02F
:100A300039C078F038C077F037C076F00001000E8A
:100A4000386E0001760E376E7CC039F07DC03AF00A
:100A50007EC03BF031EC12F076C001F077C002F0BE
:100A600078C003F0000E046E800E056E3F0E066E19
:100A700056EC10F0D8B006D0000100017907D8A0DC
:100A80007A0714D076C001F077C002F078C003F086
:100A9000000E046E200E056E410E066E56EC10F030
:100AA000D8A004D000010001794B7A2B000100018D
:100AB0007051800A800F0D0ED8B46F5DD8B012D07F
:100AC0000001000E476E00017C0E466E6FC037F0CD
:100AD00052EC0BF039C04AF038C049F037C048F04A
:100AE0004FEC12F0000100017A51800A800F0A0ECB
:100AF000D8B4795DD8B022D07F0E000100017E15F8
:100B000000017D1100017C11D8B467D07CC017F0C2
:100B10007DC018F07EC019F08AEC0FF01A50171043
:100B200018101910D8A459D0000100017A51800A78
:100B3000800F020ED8B4795DD8A04FD076C001F0F6
:100B400077C002F078C003F0700E046E890E056E57
:100B5000400E066E56EC10F0D8B003D00001F70E30
:100B600002D00001F80E00017927FF0E00017A2360
:100B700079C037F0BAEC07F039C078F038C077F0B8
:100B800037C076F07CC001F07DC002F07EC003F07B
:100B900076C004F077C005F078C006F078EC0DF070
:100BA00004C066F003C065F002C064F001C063F0E9
:100BB00063C071F064C072F065C073F066C074F019
:100BC000000E000100017C6F000E000100017D6F2E
:100BD000000E000100017E6F2FD07CC017F07DC099
:100BE00018F07EC019F08AEC0FF01AC074F019C02A
:100BF00073F018C072F017C071F00001000E1E6E85
:100C000000017C0E1D6E71C009F072C00AF073C045
:100C10000BF074C00CF09CEC11F00BC021F00AC07A
:100C200020F009C01FF013EC12F0000E00010001CB
:100C30007A6F000E0001796F526E010E0001000103
:100C40007B6F5250000100017B510A0AD8B421D0B9
:100C5000000100017B51040D000EF324F66E080E16
:100C6000F420F76E0900F55000010001715D0900E4
:100C7000F550000172590900F5500001735909003F
:100C8000F55000017459D8A004D0000100017B2B5D
:100C9000D9D7030E000100016D15526E000E000140
:100CA00000016E15536E53505210D8B443D04BC050
:100CB000D9FF4CC0DAFF2D0E3AD071C001F072C0DE
:100CC00002F073C003F074C004F0000100017B5116
:100CD000040D000EF324F66E080EF420F76E0900E2
:100CE000F5CF05F00900F5CF06F00900F5CF07F0C4
:100CF0000A00F5CF08F0E6EC10F001C069F002C080
:100D00006AF069C001F06AC002F0000E046E0A0EBB
:100D1000036ECEEC11F001C069F002C06AF0000170
:100D200000016951300F4BC0D9FF4CC0DAFFDF6EB4
:100D30004B4A4C2A000100017B0700017B29D8B4F3
:100D40000ED0BBD74BC0D9FF4CC0DAFF300EDF6EE0
:100D50004B4A4C2A000100017907D8A07A0700010C
:100D600000017A51800A800F010ED8B4795DD8B0A5
:100D7000E9D7000100017051800A800F090ED8B434
:100D80006F5DD8A007D0526E080E000100017B6F86
:100D9000525002D06FC07BF0000100017B51000176
:100DA00000016F5F000E00017BBFFF0E000100011C
:100DB000705B000100017B51D8B408D04BC0D9FF53
:100DC0004CC0DAFF2E0EDF6E4B4A4C2A7BC037F048
:100DD000BAEC07F039C062F038C061F037C060F09B
:100DE0007CC029F07DC02AF07EC02BF060C026F0C8
:100DF00061C027F062C028F009EC0EF028C019F09D
:100E000027C018F026C017F08AEC0FF01AC074F053
:100E100019C073F018C072F017C071F065D071C0BE
:100E200001F072C002F073C003F074C004F000015E
:100E300000017B51040D000EF324F66E080EF42021
:100E4000F76E0900F5CF05F00900F5CF06F00900AF
:100E5000F5CF07F00A00F5CF08F0E6EC10F001C07E
:100E60006BF002C06CF06BC001F06CC002F0000EC1
:100E7000046E0A0E036ECEEC11F001C06BF002C0DE
:100E80006CF0000100016B51300F4BC0D9FF4CC01A
:100E9000DAFFDF6E4B4A4C2A71C001F072C002F0DB
:100EA00073C003F074C004F0000100017B51040D15
:100EB000000EF324F66E080EF420F76E0900F5CF4D
:100EC00005F00900F5CF06F00900F5CF07F00A009C
:100ED000F5CF08F067EC11F004C074F003C073F0B4
:100EE00002C072F001C071F0000100017B07000137
:100EF0007B29D8B40ED093D74BC0D9FF4CC0DAFFB2
:100F0000300EDF6E4B4A4C2A000100016F07D8A05B
:100F100070070001000170516F11D8B417D0ECD7E1
:100F2000030E000100016D15526E000E000100015C
:100F30006E15536E53505210D8B408D04BC0D9FF21
:100F40004CC0DAFF2D0EDF6E4B4A4C2A4DC0F6FF27
:100F50004EC0F7FF4D4A4E2A08000001F5CF7BF046
:100F600000017B6792D44BC0D9FF4CC0DAFF000E62
:100F7000DF6E120037AE08D1376C3750800A120F7F
:100F8000D8A09DD0000E146E030E136E000E0B6ED3
:100F90000A0E0A6E000E046E640E036E3750016E68
:100FA000026A01BE020629EC11F001C008F002C07D
:100FB00009F09EEC10F0090E0824116E000E0920B5
:100FC000126E6DEC12F0280E1124F66E080E12202F
:100FD000F76E0900F5CF3AF00900F5CF3BF00900B4
:100FE000F5CF3CF03CC02BF03BC02AF03AC029F0D2
:100FF000000E146E030E136E000E0B6E640E0A6E5E
:101000003750086E096A08BE09069EEC10F0120EF1
:101010000824116E000E0920126E6DEC12F0280EDD
:101020001124F66E080E1220F76E0900F5CF3DF080
:101030000900F5CF3EF00900F5CF3FF03FC028F0A2
:101040003EC027F03DC026F009EC0EF028C042F06B
:1010500027C041F026C040F040C026F041C027F034
:1010600042C028F0000E146E030E136E000E046EC4
:101070000A0E036E3750016E026A01BE020629ECA9
:1010800011F001C011F002C012F06DEC12F0280E48
:101090001124F66E080E1220F76E0900F5CF3AF013
:1010A0000900F5CF3BF00900F5CF3CF03CC02BF038
:1010B0003BC02AF03AC029F009EC0EF064D1375059
:1010C000800A750FD8A059D0000E146E030E136E4F
:1010D000000E0B6E0A0E0A6E3750086E096A08BEC3
:1010E00009069EEC10F0090E0824116E000E09206E
:1010F000126E6DEC12F0280E1124F66E080E1220FE
:10110000F76E0900F5CF3AF00900F5CF3BF0090082
:10111000F5CF3CF03CC028F03BC027F03AC026F0A9
:10112000000E146E030E136E000E046E0A0E036E94
:101130003750016E026A01BE020629EC11F001C0AF
:1011400011F002C012F06DEC12F0280E1124F66EB0
:10115000080E1220F76E0900F5CF3DF00900F5CF1B
:101160003EF00900F5CF3FF03FC02BF03EC02AF023
:101170003DC029F009EC0EF006D13750030D280EC2
:10118000F324F66E080E0CD13750800A120FD8A047
:101190009DD0000E146E030E136E000E0B6E0A0E21
:1011A0000A6E000E046E640E036E3750016E026A02
:1011B00001BE020629EC11F001C008F002C009F0DE
:1011C0009EEC10F0090E0824116E000E0920126E1C
:1011D0006DEC12F04F0E1124F66E080E1220F76E11
:1011E0000900F5CF3AF00900F5CF3BF00900F5CF43
:1011F0003CF03CC02BF03BC02AF03AC029F0000E76
:10120000146E030E136E000E0B6E640E0A6E3750D2
:10121000086E096A08BE09069EEC10F0120E08243A
:10122000116E000E0920126E6DEC12F04F0E11249B
:10123000F66E080E1220F76E0900F5CF3DF009009A
:10124000F5CF3EF00900F5CF3FF03FC028F03EC09B
:1012500027F03DC026F009EC0EF028C042F027C070
:1012600041F026C040F040C026F041C027F042C007
:1012700028F0000E146E030E136E000E046E0A0E9C
:10128000036E3750016E026A01BE020629EC11F0AE
:1012900001C011F002C012F06DEC12F04F0E1124DB
:1012A000F66E080E1220F76E0900F5CF3AF009002D
:1012B000F5CF3BF00900F5CF3CF03CC02BF03BC034
:1012C0002AF03AC029F009EC0EF05DD03750800AC0
:1012D000750FD8A05FD0000E146E030E136E000EB3
:1012E0000B6E0A0E0A6E3750086E096A08BE0906B0
:1012F0009EEC10F0090E0824116E000E0920126EEB
:101300006DEC12F04F0E1124F66E080E1220F76EDF
:101310000900F5CF3AF00900F5CF3BF00900F5CF11
:101320003CF03CC028F03BC027F03AC026F0000E4D
:10133000146E030E136E000E046E0A0E036E375009
:10134000016E026A01BE020629EC11F001C011F023
:1013500002C012F06DEC12F04F0E1124F66E080E62
:101360001220F76E0900F5CF3DF00900F5CF3EF0F1
:101370000900F5CF3FF03FC02BF03EC02AF03DC042
:1013800029F009EC0EF028C039F027C038F026C04B
:1013900037F017D03750030D4F0EF324F66E080EBA
:1013A000F420F76E0900F5CF3AF00900F5CF3BF0D5
:1013B0000900F5CF3CF03CC039F03BC038F03AC0F2
:1013C00037F012001BEC13F0000E946E94CF95FFD3
:1013D000000E936E9280A5EC12F0586E800E016E96
:1013E0005850D4EC12F0000EC2B2010E586E010E2D
:1013F000596E582A02D0D8905936582EFCD7000E74
:10140000C2B0010E5A6E010E5B6E5A2A02D0D890FD
:101410005B365A2EFCD75B505910C212C2B2FED7AF
:10142000C450596E586AC3505824096E000E592092
:101430000A6EF1EC11F00BC08BF00AC08AF009C003
:1014400089F089C009F08AC00AF08BC00BF03C0E0D
:101450000C6EA00E0D6E3B0E0E6E91EC0EF00BC0DE
:101460008BF00AC08AF009C089F00001000E4C6EB2
:1014700000017F0E4B6E080E4E6E760E4D6E89C0CB
:101480004FF08AC050F08BC051F03DEC04F00001E9
:10149000000E036E00017F0E026EEAEC12F0000EE9
:1014A000016E000E026E000E036E89C004F08AC049
:1014B00005F08BC006F056EC10F0D8B012D089C001
:1014C00001F08AC002F08BC003F0000E046E200E03
:1014D000056E410E066E56EC10F0D8B002D0800EAC
:1014E000DFD089C001F08AC002F08BC003F0000E8B
:1014F000046E200E056E410E066E56EC10F0D8A05C
:1015000012D089C001F08AC002F08BC003F0000E37
:10151000046EA00E056E410E066E56EC10F0D8B0AB
:1015200002D0C00EBDD089C001F08AC002F08BC0CD
:1015300003F0000E046EA00E056E410E066E56EC12
:1015400010F0D8A012D089C001F08AC002F08BC080
:1015500003F0000E046EF00E056E410E066E56ECA2
:1015600010F0D8B002D0E00E9BD089C001F08AC044
:1015700002F08BC003F0000E046EF00E056E410EFB
:10158000066E56EC10F0D8A012D089C001F08AC0C7
:1015900002F08BC003F0000E046E200E056E420EAA
:1015A000066E56EC10F0D8B002D0F00E79D089C09B
:1015B00001F08AC002F08BC003F0000E046E200E12
:1015C000056E420E066E56EC10F0D8A012D089C0FF
:1015D00001F08AC002F08BC003F0000E046E480ECA
:1015E000056E420E066E56EC10F0D8B002D0F80E22
:1015F00057D089C001F08AC002F08BC003F0000E02
:10160000046E480E056E420E066E56EC10F0D8A021
:1016100012D089C001F08AC002F08BC003F0000E26
:10162000046E700E056E420E066E56EC10F0D8B0C9
:1016300002D0FC0E35D089C001F08AC002F08BC008
:1016400003F0000E046E700E056E420E066E56EC30
:1016500010F0D8A012D089C001F08AC002F08BC06F
:1016600003F0000E046E8C0E056E420E066E56ECF4
:1016700010F0D8B002D0FE0E13D089C001F08AC09D
:1016800002F08BC003F0000E046E8C0E056E420E4D
:10169000066E56EC10F0D8A002D08A689ED6000ED6
:1016A0008A6E9BD66D0E3764ABD0000E146E030E9F
:1016B000136E000E0B6E0A0E0A6E000E046E640EA0
:1016C000036E37C001F0026A29EC11F001C008F086
:1016D00002C009F09EEC10F0090E0824116E000EF5
:1016E0000920126E6DEC12F0280E1124F66E080E11
:1016F0001220F76E0900F5CF3AF00900F5CF3BF064
:101700000900F5CF3CF03CC02BF03BC02AF03AC0BA
:1017100029F0000E146E030E136E000E0B6E640E95
:101720000A6E37C008F0096A9EEC10F0120E082409
:10173000116E000E0920126E6DEC12F0280E1124AD
:10174000F66E080E1220F76E0900F5CF3DF0090085
:10175000F5CF3EF00900F5CF3FF03FC028F03EC086
:1017600027F03DC026F009EC0EF028C045F027C058
:1017700044F026C043F0000E146E030E136E000EEC
:10178000046E0A0E036E37C001F0026A29EC11F0F4
:1017900001C011F002C012F06DEC12F0280E1124FD
:1017A000F66E080E1220F76E0900F5CF3AF0090028
:1017B000F5CF3BF00900F5CF3CF03CC02BF03BC02F
:1017C0002AF03AC029F043C026F044C027F045C0B3
:1017D00028F009EC0EF028C042F027C041F026C0E6
:1017E00040F040C026F041C027F042C028F0000E73
:1017F000296E000E2A6E3F0E2B6E09EC0EF08BD078
:101800000A0E376469D0000E146E030E136E000EBC
:10181000046E0A0E036E37C001F0026A29EC11F063
:1018200001C011F002C012F06DEC12F0280E11246C
:10183000F66E080E1220F76E0900F5CF3AF0090097
:10184000F5CF3BF00900F5CF3CF03CC02BF03BC09E
:101850002AF03AC029F0000E146E030E136E000E2B
:101860000B6E0A0E0A6E37C008F0096A9EEC10F083
:10187000090E0824116E000E0920126E6DEC12F094
:10188000280E1124F66E080E1220F76E0900F5CF0F
:101890003DF00900F5CF3EF00900F5CF3FF03FC025
:1018A00028F03EC027F03DC026F009EC0EF028C01D
:1018B00045F027C044F026C043F043C026F044C0A2
:1018C00027F045C028F0000E296E000E2A6E3F0E4C
:1018D0002B6E09EC0EF01FD03750030D280EF324A9
:1018E000F66E080EF420F76E0900F5CF3AF0090005
:1018F000F5CF3BF00900F5CF3CF03CC028F03BC0F1
:1019000027F03AC026F0000E296E000E2A6E3F0E18
:101910002B6E09EC0EF028C039F027C038F026C035
:1019200037F012000F0E0F6E09C010F00AC011F050
:101930000BC012F00F28136E04D0D890123211325F
:101940001032132EFAD71050166E0F0E0F6E0CC0F9
:1019500010F00DC011F00EC012F00F28136E04D05D
:10196000D890123211321032132EFAD71050156E51
:101970001650D8B40BD0155016600FD01650000872
:1019800015240F6E190E0F5CD8A007D00CC009F0FB
:101990000DC00AF00EC00BF0AAD01550D8B40BD071
:1019A000165015600FD01550000816240F6E190E32
:1019B0000F5CD8A007D009C009F00AC00AF00BC01C
:1019C0000BF095D00F6E060E146E0F500BBE148EDA
:1019D0000EBE148C0A8EFF0E0916FF0E0A16000E9C
:1019E0000B160D8EFF0E0C16FF0E0D16000E0E16AA
:1019F0001550166018D0D8900C360D360E361506D8
:101A000015501618D8B40BD014061450070BD8B4C0
:101A100006D0F1D7D8900B320A320932162A155067
:101A20001662F8D71AD01650156017D0D89009361C
:101A30000A360B36160615501618D8B40BD01406F5
:101A40001450070BD8B406D0F1D7D8900E320D320F
:101A50000C32152A15501662F8D714AE0CD0FF0EB2
:101A6000091AFF0E0A1AFF0E0B1A010E0926000EA4
:101A70000A22000E0B2214AC0CD0FF0E0C1AFF0E23
:101A80000D1AFF0E0E1A010E0C26000E0D22000E6E
:101A90000E220F6E000E146E0F5009500C260A50C5
:101AA0000D220B500E220EAE10D0FF0E0C1AFF0EA0
:101AB0000D1AFF0E0E1A010E0C26000E0D22000E3E
:101AC0000E220F6E010E146E0F500CC001F00DC0EF
:101AD00002F00EC003F016C004F014C005F0FAECDA
:101AE0000FF003C00BF002C00AF001C009F01200B1
:101AF0000F0E076E01C008F002C009F003C00AF023
:101B000007280B6E04D0D8900A32093208320B2E07
:101B1000FAD70850116E116601D061D00F0E076E12
:101B200004C008F005C009F006C00AF007280B6ED3
:101B300004D0D8900A32093208320B2EFAD7085056
:101B4000106E106601D04BD0028EFF0E0116FF0EF4
:101B50000216000E0316058EFF0E0416FF0E051664
:101B6000000E0616000E0C6E000E0D6E000E0E6EB0
:101B7000000E0F6E7F0E115E1050980F115E076EF3
:101B8000180E106E0750D8900C360D360E360F36E4
:101B90000450015C0550025806500358D8A007D0E5
:101BA0000450015E0550025A0650035A0C80D8902A
:101BB000013602360336102EE6D711AE0DD0115085
:101BC000800A970FD8A00BD0D8900F320E320D326A
:101BD0000C32113EF9D714D0170E11640FD0000E3D
:101BE000016E000E026E000E036E000E046E10D029
:101BF000D8900C360D360E360F3611061166F8D712
:101C00000CC001F00DC002F00EC003F00FC004F0D4
:101C100012000F0E2C6E26C02DF027C02EF028C00B
:101C20002FF02C28306E04D0D8902F322E322D3247
:101C3000302EFAD72D50316E316601D015D00F0EEF
:101C40002C6E29C02DF02AC02EF02BC02FF02C288E
:101C5000306E04D0D8902F322E322D32302EFAD75B
:101C60002D50366E366607D0000E266E000E276E9B
:101C7000000E286E55D036507B0F312628C036F026
:101C80002B50361A800E3616278E2A8EFF0E2916F6
:101C9000FF0E2A16000E2B16000E326E000E336E4B
:101CA000000E346E2C6E070E356E2C5026A006D01A
:101CB000295032262A5033222B503422D8902832F1
:101CC00027322632D89029362A362B36352EEED7B3
:101CD0002C6E090E356E2C5026A006D029503226C7
:101CE0002A5033222B503422D890283227322632E1
:101CF000D890343233323232352EEED732C001F042
:101D000033C002F034C003F031C004F036C005F037
:101D1000FAEC0FF003C028F002C027F001C026F053
:101D200012000F0E0F6E09C010F00AC011F00BC0A8
:101D300012F00F28136E04D0D890123211321032E4
:101D4000132EFAD71050186E186601D015D00F0E4A
:101D50000F6E0CC010F00DC011F00EC012F00F2865
:101D6000136E04D0D890123211321032132EFAD7DB
:101D70001050196E196607D0000E096E000E0A6E1B
:101D8000000E0B6E4CD0000E156E000E166E000E7F
:101D9000176E1950890F185E0BC019F00E50191AE2
:101DA000800E19160A8EFF0E0916FF0E0A16000E77
:101DB0000B160D8EFF0E0C16FF0E0D16000E0E16D6
:101DC0000F6E180E146E0F50D89015361636173643
:101DD0000C50095C0D500A580E500B58D8A007D073
:101DE0000C50095E0D500A5A0E500B5A1580D890AF
:101DF00009360A360B36142EE7D715C001F016C087
:101E000002F017C003F018C004F019C005F0FAEC96
:101E10000FF003C00BF002C00AF001C009F012007D
:101E2000033404340D6E0D6601D05AD006340734E5
:101E30000C6E0C6601D054D0038EFF0E0116FF0EFF
:101E40000216FF0E0316000E0416068EFF0E041671
:101E5000FF0E0516FF0E0616000E0716000E086E82
:101E6000000E096E000E0A6E000E0B6E7F0E0D5EE8
:101E70000C50A00F0D5E076E200E0C6E0750D89010
:101E8000083609360A360B360450015C05500258F4
:101E90000650035807500458D8A009D00450015EDA
:101EA0000550025A0650035A0750045A0880D89029
:101EB00001360236033604360C2EE1D70DAE0DD0B6
:101EC0000D50800A9F0FD8A00BD0D8900B320A3249
:101ED000093208320D3EF9D714D01F0E0D640FD011
:101EE000000E016E000E026E000E036E000E046EF8
:101EF00010D0D890083609360A360B360D060D6616
:101F0000F8D708C001F009C002F00AC003F00BC006
:101F100004F012000F0E1B6E17C01CF018C01DF04D
:101F200019C01EF01B281F6E04D0D8901E321D321F
:101F30001C321F2EFAD71C50256E256601D035D0D5
:101F4000170E1B6E17C01CF018C01DF019C01EF034
:101F50001B281F6E04D0D8901E321D321C321F2E3B
:101F6000FAD71C50206E188EFF0E1716FF0E18168B
:101F7000000E19161750216E1850226E1950236E3C
:101F8000246A8E0E255E25AE0DD02550800A8F0F57
:101F9000D8A00BD0D8902432233222322132253ED1
:101FA000F9D714D0170E25640FD0000E176E000E4F
:101FB000186E000E196E000E1A6E1BD0D8902136C6
:101FC00022362336243625062566F8D72050D8B485
:101FD00008D0241E231E221E216C000E2222232242
:101FE000242221C017F022C018F023C019F024C009
:101FF0001AF012000450D8B405D00150021003109A
:10200000D8A40CD0000E016E000E026E000E036EFE
:102010004CD0042AD890033202320132000E01144F
:10202000066E000E0214076EFE0E0314086E0650B4
:1020300007100810D8B40CD0ECD7042A010E0126E2
:10204000000E0222000E0322D89003320232013227
:10205000000E0114066E000E0214076EFF0E03142C
:10206000086E065007100810D8B406D0E6D704064C
:10207000D89001360236033602AEF9D704A0029E8C
:10208000D89004320450086E076A066A065001129E
:1020900007500212085003120550D8A4038E01C045
:1020A00001F002C002F003C003F0120003AE16D02C
:1020B00001C007F002C008F003C009F0071E081EA7
:1020C000091E072A000E08220922000E0724016EAD
:1020D000000E0820026E800E0920036E06AE16D098
:1020E00004C007F005C008F006C009F0071E081E6E
:1020F000091E072A000E08220922000E0724046E7A
:10210000000E0820056E800E0920066E000E011AD2
:10211000000E021A800E031A000E041A000E051A91
:10212000800E061A0450015C0550025806500358F0
:10213000D8B002D0D89001D0D88012000C6E000E1A
:102140000E6E0C500BAE08D00A6C0B1ED8B00B2ACA
:102150000C6E010E0E6E0C5009AE06D0086C091EF6
:10216000D8B0092A010E0E1A000E106E000E0F6E66
:102170000B500A10D8B41ED00C6E010E0D6E0C5010
:1021800004D0D8900A360B360D2A0BAEFAD7D89069
:102190000F3610360A50085C0B500958D8A005D0ED
:1021A0000A50085E0B50095A0F80D8900B320A3241
:1021B0000D2EEDD70E50D8B404D00F6C101ED8B031
:1021C000102A0FC008F010C009F01200000E0A6EAD
:1021D000000E0B6E000E0C6E000E0D6E08500510FA
:1021E00006100710D8B42CD0096E010E0E6E0950DF
:1021F00006D0D89005360636073608360E2A08AEC1
:10220000F8D7D8900A360B360C360D360550015CDF
:10221000065002580750035808500458D8A009D057
:102220000550015E0650025A0750035A0850045ADE
:102230000A80D89008320732063205320E2EE1D7D6
:102240000AC001F00BC002F00CC003F00DC004F096
:102250001200056E000E076E055002AE08D0016C2C
:10226000021ED8B0022A056E010E076E055004AE9C
:1022700004D0036C041ED8B0042A04500310D8B450
:102280001AD0056E010E066E055004D0D8900336A4
:102290000436062A04AEFAD70350015C04500258F3
:1022A000D8A004D00350015E0450025AD8900432E2
:1022B0000332062EF1D70750D8B404D0016C021EA9
:1022C000D8B0022A01C001F002C002F0120008508A
:1022D000051006100710D8B426D0096E010E0A6E3C
:1022E000095006D0D89005360636073608360A2A31
:1022F00008AEF8D70550015C065002580750035845
:1023000008500458D8A008D00550015E0650025A63
:102310000750035A0850045AD89008320732063240
:1023200005320A2EE7D701C001F002C002F003C057
:1023300003F004C004F012000D6E8E0E116E0D50ED
:1023400006D0D8900C320B320A320932112A000E14
:1023500009140D6E000E0A140E6E000E0B140F6E93
:10236000FF0E0C14106E10500D100E100F10D8A48C
:10237000E8D709C001F00AC002F00BC003F011C099
:1023800004F00D6E000E056E0D50FAEC0FF003C058
:102390000BF002C00AF001C009F012000450031053
:1023A000D8B41AD0056E010E066E055004D0D89030
:1023B00003360436062A04AEFAD70350015C0450F3
:1023C0000258D8A004D00350015E0450025AD8909D
:1023D00004320332062EF1D701C001F002C002F030
:1023E00012000C6E000E0D6E0C500AAE08D0096C77
:1023F0000A1ED8B00A2A0C6E010E0D6E0C5009C0D0
:1024000001F00AC002F0036A0C6E8E0E046E0C50CE
:102410000DC005F0FAEC0FF003C00BF002C00AF09B
:1024200001C009F012001DC0D9FF1EC0DAFFDECFC7
:1024300017F0DECF18F0DDCF19F01FC01AF020C062
:102440001BF021C01CF08AEC12F01DC0D9FF1EC089
:10245000DAFF17C0DEFF18C0DEFF19C0DDFFDD5256
:10246000120037C0D9FF38C0DAFFDECF26F0DECF4A
:1024700027F0DDCF28F039C029F03AC02AF03BC060
:102480002BF009EC0EF037C0D9FF38C0DAFF26C0B8
:10249000DEFF27C0DEFF28C0DDFFDD52120046C090
:1024A000D9FF47C0DAFFDECF09F0DECF0AF0DDCF7B
:1024B0000BF048C00CF049C00DF04AC00EF092EC91
:1024C0000CF046C0D9FF47C0DAFF09C0DEFF0AC0E2
:1024D000DEFF0BC0DDFFDD52120011501302F3CFFF
:1024E00015F0F4CF16F011501402F3CFF4FFF36A95
:1024F000F3501526F450162212501302F3CFF4FFB6
:10250000F36AF3501526F450162215C011F016C0C8
:1025100012F01200000E1A1A000E1B1A800E1C1A5E
:1025200017C009F018C00AF019C00BF01AC00CF05F
:102530001BC00DF01CC00EF092EC0CF00BC019F09B
:102540000AC018F009C017F01200026E380E016EB2
:102550000250D4EC12F0026E0C0E016E0250D4EC5C
:1025600012F0026E060E016E0250D4EC12F0026EF2
:10257000800E016E0250D4EC12F0120001C083FFF5
:10258000828082928284000E5D6E000E5C6E5D50D1
:10259000800A7D0FE90ED8B45C5CD8B003D05C4AE9
:1025A0005D2AF5D78294120001C083FF8290829247
:1025B0008284000E5D6E000E5C6E5D50800A7D0FA1
:1025C000E90ED8B45C5CD8B003D05C4A5D2AF5D77C
:1025D000829412000AD002C0D9FF03C0DAFFDF5094
:1025E000016EBEEC12F0024A032A02C0D9FF03C0FA
:1025F000DAFFDF50D8B41200EED77F0E03140210BA
:102600000110D8B406D0000E011A000E021A800E76
:10261000031A01C001F002C002F003C003F012006F
:1026200000018B6B8A6B896B5D6A5C6A000EF86EC9
:102630000001E2EF09F0010EC26E0E0EC16EA60E91
:0C264000C06E000EC46E000EC36E1200CF
:020000040020DA
:08000000FFFFFFFFFFFFFFFF00
:020000040030CA
:0E00000000051F1FFF8385FF0FC00FE00F409C
:00000001FF
